{
	"IoTDataStorage.sol": {
		"IoTDataStorage": {
			"abi": [
				{
					"inputs": [],
					"stateMutability": "nonpayable",
					"type": "constructor"
				},
				{
					"anonymous": false,
					"inputs": [
						{
							"indexed": false,
							"internalType": "uint256",
							"name": "timestamp",
							"type": "uint256"
						},
						{
							"indexed": false,
							"internalType": "string",
							"name": "deviceId",
							"type": "string"
						},
						{
							"indexed": false,
							"internalType": "string",
							"name": "dataType",
							"type": "string"
						},
						{
							"indexed": false,
							"internalType": "string",
							"name": "dataValue",
							"type": "string"
						}
					],
					"name": "DataStored",
					"type": "event"
				},
				{
					"inputs": [],
					"name": "MAX_ENTRIES",
					"outputs": [
						{
							"internalType": "uint256",
							"name": "",
							"type": "uint256"
						}
					],
					"stateMutability": "view",
					"type": "function"
				},
				{
					"inputs": [
						{
							"internalType": "uint256",
							"name": "",
							"type": "uint256"
						}
					],
					"name": "dataRecords",
					"outputs": [
						{
							"internalType": "uint256",
							"name": "timestamp",
							"type": "uint256"
						},
						{
							"internalType": "string",
							"name": "deviceId",
							"type": "string"
						},
						{
							"internalType": "string",
							"name": "dataType",
							"type": "string"
						},
						{
							"internalType": "string",
							"name": "dataValue",
							"type": "string"
						}
					],
					"stateMutability": "view",
					"type": "function"
				},
				{
					"inputs": [
						{
							"internalType": "uint256",
							"name": "index",
							"type": "uint256"
						}
					],
					"name": "getRecord",
					"outputs": [
						{
							"internalType": "uint256",
							"name": "",
							"type": "uint256"
						},
						{
							"internalType": "string",
							"name": "",
							"type": "string"
						},
						{
							"internalType": "string",
							"name": "",
							"type": "string"
						},
						{
							"internalType": "string",
							"name": "",
							"type": "string"
						}
					],
					"stateMutability": "view",
					"type": "function"
				},
				{
					"inputs": [],
					"name": "getTotalRecords",
					"outputs": [
						{
							"internalType": "uint256",
							"name": "",
							"type": "uint256"
						}
					],
					"stateMutability": "view",
					"type": "function"
				},
				{
					"inputs": [],
					"name": "owner",
					"outputs": [
						{
							"internalType": "address",
							"name": "",
							"type": "address"
						}
					],
					"stateMutability": "view",
					"type": "function"
				},
				{
					"inputs": [
						{
							"internalType": "string",
							"name": "_deviceId",
							"type": "string"
						},
						{
							"internalType": "string",
							"name": "_dataType",
							"type": "string"
						},
						{
							"internalType": "string",
							"name": "_dataValue",
							"type": "string"
						}
					],
					"name": "storeData",
					"outputs": [],
					"stateMutability": "nonpayable",
					"type": "function"
				}
			],
			"devdoc": {
				"kind": "dev",
				"methods": {},
				"version": 1
			},
			"evm": {
				"assembly": "    /* \"IoTDataStorage.sol\":62:1426  contract IoTDataStorage {... */\n  mstore(0x40, 0x80)\n    /* \"IoTDataStorage.sol\":553:604  constructor() {... */\n  callvalue\n  dup1\n  iszero\n  tag_1\n  jumpi\n  revert(0x00, 0x00)\ntag_1:\n  pop\n    /* \"IoTDataStorage.sol\":586:596  msg.sender */\n  caller\n    /* \"IoTDataStorage.sol\":578:583  owner */\n  0x01\n  0x00\n    /* \"IoTDataStorage.sol\":578:596  owner = msg.sender */\n  0x0100\n  exp\n  dup2\n  sload\n  dup2\n  0xffffffffffffffffffffffffffffffffffffffff\n  mul\n  not\n  and\n  swap1\n  dup4\n  0xffffffffffffffffffffffffffffffffffffffff\n  and\n  mul\n  or\n  swap1\n  sstore\n  pop\n    /* \"IoTDataStorage.sol\":62:1426  contract IoTDataStorage {... */\n  dataSize(sub_0)\n  dup1\n  dataOffset(sub_0)\n  0x00\n  codecopy\n  0x00\n  return\nstop\n\nsub_0: assembly {\n        /* \"IoTDataStorage.sol\":62:1426  contract IoTDataStorage {... */\n      mstore(0x40, 0x80)\n      callvalue\n      dup1\n      iszero\n      tag_1\n      jumpi\n      revert(0x00, 0x00)\n    tag_1:\n      pop\n      jumpi(tag_2, lt(calldatasize, 0x04))\n      shr(0xe0, calldataload(0x00))\n      dup1\n      0x03e9e609\n      eq\n      tag_3\n      jumpi\n      dup1\n      0x0aeacb5e\n      eq\n      tag_4\n      jumpi\n      dup1\n      0x7d4cb964\n      eq\n      tag_5\n      jumpi\n      dup1\n      0x8da5cb5b\n      eq\n      tag_6\n      jumpi\n      dup1\n      0xc8592e0b\n      eq\n      tag_7\n      jumpi\n      dup1\n      0xd4001ef2\n      eq\n      tag_8\n      jumpi\n    tag_2:\n      revert(0x00, 0x00)\n        /* \"IoTDataStorage.sol\":1096:1423  function getRecord(uint256 index) public view returns (uint256, string memory, string memory, string memory) {... */\n    tag_3:\n      tag_9\n      0x04\n      dup1\n      calldatasize\n      sub\n      dup2\n      add\n      swap1\n      tag_10\n      swap2\n      swap1\n      tag_11\n      jump\t// in\n    tag_10:\n      tag_12\n      jump\t// in\n    tag_9:\n      mload(0x40)\n      tag_13\n      swap5\n      swap4\n      swap3\n      swap2\n      swap1\n      tag_14\n      jump\t// in\n    tag_13:\n      mload(0x40)\n      dup1\n      swap2\n      sub\n      swap1\n      return\n        /* \"IoTDataStorage.sol\":985:1086  function getTotalRecords() public view returns (uint256) {... */\n    tag_4:\n      tag_15\n      tag_16\n      jump\t// in\n    tag_15:\n      mload(0x40)\n      tag_17\n      swap2\n      swap1\n      tag_18\n      jump\t// in\n    tag_17:\n      mload(0x40)\n      dup1\n      swap2\n      sub\n      swap1\n      return\n        /* \"IoTDataStorage.sol\":233:274  uint256 public constant MAX_ENTRIES = 100 */\n    tag_5:\n      tag_19\n      tag_20\n      jump\t// in\n    tag_19:\n      mload(0x40)\n      tag_21\n      swap2\n      swap1\n      tag_18\n      jump\t// in\n    tag_21:\n      mload(0x40)\n      dup1\n      swap2\n      sub\n      swap1\n      return\n        /* \"IoTDataStorage.sol\":316:336  address public owner */\n    tag_6:\n      tag_22\n      tag_23\n      jump\t// in\n    tag_22:\n      mload(0x40)\n      tag_24\n      swap2\n      swap1\n      tag_25\n      jump\t// in\n    tag_24:\n      mload(0x40)\n      dup1\n      swap2\n      sub\n      swap1\n      return\n        /* \"IoTDataStorage.sol\":281:309  IoTData[] public dataRecords */\n    tag_7:\n      tag_26\n      0x04\n      dup1\n      calldatasize\n      sub\n      dup2\n      add\n      swap1\n      tag_27\n      swap2\n      swap1\n      tag_11\n      jump\t// in\n    tag_27:\n      tag_28\n      jump\t// in\n    tag_26:\n      mload(0x40)\n      tag_29\n      swap5\n      swap4\n      swap3\n      swap2\n      swap1\n      tag_14\n      jump\t// in\n    tag_29:\n      mload(0x40)\n      dup1\n      swap2\n      sub\n      swap1\n      return\n        /* \"IoTDataStorage.sol\":614:975  function storeData(string memory _deviceId, string memory _dataType, string memory _dataValue) public onlyOwner {... */\n    tag_8:\n      tag_30\n      0x04\n      dup1\n      calldatasize\n      sub\n      dup2\n      add\n      swap1\n      tag_31\n      swap2\n      swap1\n      tag_32\n      jump\t// in\n    tag_31:\n      tag_33\n      jump\t// in\n    tag_30:\n      stop\n        /* \"IoTDataStorage.sol\":1096:1423  function getRecord(uint256 index) public view returns (uint256, string memory, string memory, string memory) {... */\n    tag_12:\n        /* \"IoTDataStorage.sol\":1151:1158  uint256 */\n      0x00\n        /* \"IoTDataStorage.sol\":1160:1173  string memory */\n      0x60\n        /* \"IoTDataStorage.sol\":1175:1188  string memory */\n      dup1\n        /* \"IoTDataStorage.sol\":1190:1203  string memory */\n      0x60\n        /* \"IoTDataStorage.sol\":1232:1243  dataRecords */\n      0x00\n        /* \"IoTDataStorage.sol\":1232:1250  dataRecords.length */\n      dup1\n      sload\n      swap1\n      pop\n        /* \"IoTDataStorage.sol\":1224:1229  index */\n      dup6\n        /* \"IoTDataStorage.sol\":1224:1250  index < dataRecords.length */\n      lt\n        /* \"IoTDataStorage.sol\":1216:1274  require(index < dataRecords.length, \"Index out of bounds\") */\n      tag_35\n      jumpi\n      mload(0x40)\n      0x08c379a000000000000000000000000000000000000000000000000000000000\n      dup2\n      mstore\n      0x04\n      add\n      tag_36\n      swap1\n      tag_37\n      jump\t// in\n    tag_36:\n      mload(0x40)\n      dup1\n      swap2\n      sub\n      swap1\n      revert\n    tag_35:\n        /* \"IoTDataStorage.sol\":1285:1306  IoTData memory record */\n      0x00\n        /* \"IoTDataStorage.sol\":1309:1320  dataRecords */\n      0x00\n        /* \"IoTDataStorage.sol\":1321:1326  index */\n      dup7\n        /* \"IoTDataStorage.sol\":1309:1327  dataRecords[index] */\n      dup2\n      sload\n      dup2\n      lt\n      tag_38\n      jumpi\n      tag_39\n      tag_40\n      jump\t// in\n    tag_39:\n    tag_38:\n      swap1\n      0x00\n      mstore\n      keccak256(0x00, 0x20)\n      swap1\n      0x04\n      mul\n      add\n        /* \"IoTDataStorage.sol\":1285:1327  IoTData memory record = dataRecords[index] */\n      mload(0x40)\n      dup1\n      0x80\n      add\n      0x40\n      mstore\n      swap1\n      dup2\n      0x00\n      dup3\n      add\n      sload\n      dup2\n      mstore\n      0x20\n      add\n      0x01\n      dup3\n      add\n      dup1\n      sload\n      tag_42\n      swap1\n      tag_43\n      jump\t// in\n    tag_42:\n      dup1\n      0x1f\n      add\n      0x20\n      dup1\n      swap2\n      div\n      mul\n      0x20\n      add\n      mload(0x40)\n      swap1\n      dup2\n      add\n      0x40\n      mstore\n      dup1\n      swap3\n      swap2\n      swap1\n      dup2\n      dup2\n      mstore\n      0x20\n      add\n      dup3\n      dup1\n      sload\n      tag_44\n      swap1\n      tag_43\n      jump\t// in\n    tag_44:\n      dup1\n      iszero\n      tag_45\n      jumpi\n      dup1\n      0x1f\n      lt\n      tag_46\n      jumpi\n      0x0100\n      dup1\n      dup4\n      sload\n      div\n      mul\n      dup4\n      mstore\n      swap2\n      0x20\n      add\n      swap2\n      jump(tag_45)\n    tag_46:\n      dup3\n      add\n      swap2\n      swap1\n      0x00\n      mstore\n      keccak256(0x00, 0x20)\n      swap1\n    tag_47:\n      dup2\n      sload\n      dup2\n      mstore\n      swap1\n      0x01\n      add\n      swap1\n      0x20\n      add\n      dup1\n      dup4\n      gt\n      tag_47\n      jumpi\n      dup3\n      swap1\n      sub\n      0x1f\n      and\n      dup3\n      add\n      swap2\n    tag_45:\n      pop\n      pop\n      pop\n      pop\n      pop\n      dup2\n      mstore\n      0x20\n      add\n      0x02\n      dup3\n      add\n      dup1\n      sload\n      tag_48\n      swap1\n      tag_43\n      jump\t// in\n    tag_48:\n      dup1\n      0x1f\n      add\n      0x20\n      dup1\n      swap2\n      div\n      mul\n      0x20\n      add\n      mload(0x40)\n      swap1\n      dup2\n      add\n      0x40\n      mstore\n      dup1\n      swap3\n      swap2\n      swap1\n      dup2\n      dup2\n      mstore\n      0x20\n      add\n      dup3\n      dup1\n      sload\n      tag_49\n      swap1\n      tag_43\n      jump\t// in\n    tag_49:\n      dup1\n      iszero\n      tag_50\n      jumpi\n      dup1\n      0x1f\n      lt\n      tag_51\n      jumpi\n      0x0100\n      dup1\n      dup4\n      sload\n      div\n      mul\n      dup4\n      mstore\n      swap2\n      0x20\n      add\n      swap2\n      jump(tag_50)\n    tag_51:\n      dup3\n      add\n      swap2\n      swap1\n      0x00\n      mstore\n      keccak256(0x00, 0x20)\n      swap1\n    tag_52:\n      dup2\n      sload\n      dup2\n      mstore\n      swap1\n      0x01\n      add\n      swap1\n      0x20\n      add\n      dup1\n      dup4\n      gt\n      tag_52\n      jumpi\n      dup3\n      swap1\n      sub\n      0x1f\n      and\n      dup3\n      add\n      swap2\n    tag_50:\n      pop\n      pop\n      pop\n      pop\n      pop\n      dup2\n      mstore\n      0x20\n      add\n      0x03\n      dup3\n      add\n      dup1\n      sload\n      tag_53\n      swap1\n      tag_43\n      jump\t// in\n    tag_53:\n      dup1\n      0x1f\n      add\n      0x20\n      dup1\n      swap2\n      div\n      mul\n      0x20\n      add\n      mload(0x40)\n      swap1\n      dup2\n      add\n      0x40\n      mstore\n      dup1\n      swap3\n      swap2\n      swap1\n      dup2\n      dup2\n      mstore\n      0x20\n      add\n      dup3\n      dup1\n      sload\n      tag_54\n      swap1\n      tag_43\n      jump\t// in\n    tag_54:\n      dup1\n      iszero\n      tag_55\n      jumpi\n      dup1\n      0x1f\n      lt\n      tag_56\n      jumpi\n      0x0100\n      dup1\n      dup4\n      sload\n      div\n      mul\n      dup4\n      mstore\n      swap2\n      0x20\n      add\n      swap2\n      jump(tag_55)\n    tag_56:\n      dup3\n      add\n      swap2\n      swap1\n      0x00\n      mstore\n      keccak256(0x00, 0x20)\n      swap1\n    tag_57:\n      dup2\n      sload\n      dup2\n      mstore\n      swap1\n      0x01\n      add\n      swap1\n      0x20\n      add\n      dup1\n      dup4\n      gt\n      tag_57\n      jumpi\n      dup3\n      swap1\n      sub\n      0x1f\n      and\n      dup3\n      add\n      swap2\n    tag_55:\n      pop\n      pop\n      pop\n      pop\n      pop\n      dup2\n      mstore\n      pop\n      pop\n      swap1\n      pop\n        /* \"IoTDataStorage.sol\":1346:1352  record */\n      dup1\n        /* \"IoTDataStorage.sol\":1346:1362  record.timestamp */\n      0x00\n      add\n      mload\n        /* \"IoTDataStorage.sol\":1364:1370  record */\n      dup2\n        /* \"IoTDataStorage.sol\":1364:1379  record.deviceId */\n      0x20\n      add\n      mload\n        /* \"IoTDataStorage.sol\":1381:1387  record */\n      dup3\n        /* \"IoTDataStorage.sol\":1381:1396  record.dataType */\n      0x40\n      add\n      mload\n        /* \"IoTDataStorage.sol\":1398:1404  record */\n      dup4\n        /* \"IoTDataStorage.sol\":1398:1414  record.dataValue */\n      0x60\n      add\n      mload\n        /* \"IoTDataStorage.sol\":1338:1415  return (record.timestamp, record.deviceId, record.dataType, record.dataValue) */\n      swap5\n      pop\n      swap5\n      pop\n      swap5\n      pop\n      swap5\n      pop\n      pop\n        /* \"IoTDataStorage.sol\":1096:1423  function getRecord(uint256 index) public view returns (uint256, string memory, string memory, string memory) {... */\n      swap2\n      swap4\n      pop\n      swap2\n      swap4\n      jump\t// out\n        /* \"IoTDataStorage.sol\":985:1086  function getTotalRecords() public view returns (uint256) {... */\n    tag_16:\n        /* \"IoTDataStorage.sol\":1033:1040  uint256 */\n      0x00\n        /* \"IoTDataStorage.sol\":1060:1071  dataRecords */\n      0x00\n        /* \"IoTDataStorage.sol\":1060:1078  dataRecords.length */\n      dup1\n      sload\n      swap1\n      pop\n        /* \"IoTDataStorage.sol\":1053:1078  return dataRecords.length */\n      swap1\n      pop\n        /* \"IoTDataStorage.sol\":985:1086  function getTotalRecords() public view returns (uint256) {... */\n      swap1\n      jump\t// out\n        /* \"IoTDataStorage.sol\":233:274  uint256 public constant MAX_ENTRIES = 100 */\n    tag_20:\n        /* \"IoTDataStorage.sol\":271:274  100 */\n      0x64\n        /* \"IoTDataStorage.sol\":233:274  uint256 public constant MAX_ENTRIES = 100 */\n      dup2\n      jump\t// out\n        /* \"IoTDataStorage.sol\":316:336  address public owner */\n    tag_23:\n      0x01\n      0x00\n      swap1\n      sload\n      swap1\n      0x0100\n      exp\n      swap1\n      div\n      0xffffffffffffffffffffffffffffffffffffffff\n      and\n      dup2\n      jump\t// out\n        /* \"IoTDataStorage.sol\":281:309  IoTData[] public dataRecords */\n    tag_28:\n      0x00\n      dup2\n      dup2\n      sload\n      dup2\n      lt\n      tag_59\n      jumpi\n      0x00\n      dup1\n      revert\n    tag_59:\n      swap1\n      0x00\n      mstore\n      keccak256(0x00, 0x20)\n      swap1\n      0x04\n      mul\n      add\n      0x00\n      swap2\n      pop\n      swap1\n      pop\n      dup1\n      0x00\n      add\n      sload\n      swap1\n      dup1\n      0x01\n      add\n      dup1\n      sload\n      tag_61\n      swap1\n      tag_43\n      jump\t// in\n    tag_61:\n      dup1\n      0x1f\n      add\n      0x20\n      dup1\n      swap2\n      div\n      mul\n      0x20\n      add\n      mload(0x40)\n      swap1\n      dup2\n      add\n      0x40\n      mstore\n      dup1\n      swap3\n      swap2\n      swap1\n      dup2\n      dup2\n      mstore\n      0x20\n      add\n      dup3\n      dup1\n      sload\n      tag_62\n      swap1\n      tag_43\n      jump\t// in\n    tag_62:\n      dup1\n      iszero\n      tag_63\n      jumpi\n      dup1\n      0x1f\n      lt\n      tag_64\n      jumpi\n      0x0100\n      dup1\n      dup4\n      sload\n      div\n      mul\n      dup4\n      mstore\n      swap2\n      0x20\n      add\n      swap2\n      jump(tag_63)\n    tag_64:\n      dup3\n      add\n      swap2\n      swap1\n      0x00\n      mstore\n      keccak256(0x00, 0x20)\n      swap1\n    tag_65:\n      dup2\n      sload\n      dup2\n      mstore\n      swap1\n      0x01\n      add\n      swap1\n      0x20\n      add\n      dup1\n      dup4\n      gt\n      tag_65\n      jumpi\n      dup3\n      swap1\n      sub\n      0x1f\n      and\n      dup3\n      add\n      swap2\n    tag_63:\n      pop\n      pop\n      pop\n      pop\n      pop\n      swap1\n      dup1\n      0x02\n      add\n      dup1\n      sload\n      tag_66\n      swap1\n      tag_43\n      jump\t// in\n    tag_66:\n      dup1\n      0x1f\n      add\n      0x20\n      dup1\n      swap2\n      div\n      mul\n      0x20\n      add\n      mload(0x40)\n      swap1\n      dup2\n      add\n      0x40\n      mstore\n      dup1\n      swap3\n      swap2\n      swap1\n      dup2\n      dup2\n      mstore\n      0x20\n      add\n      dup3\n      dup1\n      sload\n      tag_67\n      swap1\n      tag_43\n      jump\t// in\n    tag_67:\n      dup1\n      iszero\n      tag_68\n      jumpi\n      dup1\n      0x1f\n      lt\n      tag_69\n      jumpi\n      0x0100\n      dup1\n      dup4\n      sload\n      div\n      mul\n      dup4\n      mstore\n      swap2\n      0x20\n      add\n      swap2\n      jump(tag_68)\n    tag_69:\n      dup3\n      add\n      swap2\n      swap1\n      0x00\n      mstore\n      keccak256(0x00, 0x20)\n      swap1\n    tag_70:\n      dup2\n      sload\n      dup2\n      mstore\n      swap1\n      0x01\n      add\n      swap1\n      0x20\n      add\n      dup1\n      dup4\n      gt\n      tag_70\n      jumpi\n      dup3\n      swap1\n      sub\n      0x1f\n      and\n      dup3\n      add\n      swap2\n    tag_68:\n      pop\n      pop\n      pop\n      pop\n      pop\n      swap1\n      dup1\n      0x03\n      add\n      dup1\n      sload\n      tag_71\n      swap1\n      tag_43\n      jump\t// in\n    tag_71:\n      dup1\n      0x1f\n      add\n      0x20\n      dup1\n      swap2\n      div\n      mul\n      0x20\n      add\n      mload(0x40)\n      swap1\n      dup2\n      add\n      0x40\n      mstore\n      dup1\n      swap3\n      swap2\n      swap1\n      dup2\n      dup2\n      mstore\n      0x20\n      add\n      dup3\n      dup1\n      sload\n      tag_72\n      swap1\n      tag_43\n      jump\t// in\n    tag_72:\n      dup1\n      iszero\n      tag_73\n      jumpi\n      dup1\n      0x1f\n      lt\n      tag_74\n      jumpi\n      0x0100\n      dup1\n      dup4\n      sload\n      div\n      mul\n      dup4\n      mstore\n      swap2\n      0x20\n      add\n      swap2\n      jump(tag_73)\n    tag_74:\n      dup3\n      add\n      swap2\n      swap1\n      0x00\n      mstore\n      keccak256(0x00, 0x20)\n      swap1\n    tag_75:\n      dup2\n      sload\n      dup2\n      mstore\n      swap1\n      0x01\n      add\n      swap1\n      0x20\n      add\n      dup1\n      dup4\n      gt\n      tag_75\n      jumpi\n      dup3\n      swap1\n      sub\n      0x1f\n      and\n      dup3\n      add\n      swap2\n    tag_73:\n      pop\n      pop\n      pop\n      pop\n      pop\n      swap1\n      pop\n      dup5\n      jump\t// out\n        /* \"IoTDataStorage.sol\":614:975  function storeData(string memory _deviceId, string memory _dataType, string memory _dataValue) public onlyOwner {... */\n    tag_33:\n        /* \"IoTDataStorage.sol\":499:504  owner */\n      0x01\n      0x00\n      swap1\n      sload\n      swap1\n      0x0100\n      exp\n      swap1\n      div\n      0xffffffffffffffffffffffffffffffffffffffff\n      and\n        /* \"IoTDataStorage.sol\":485:504  msg.sender == owner */\n      0xffffffffffffffffffffffffffffffffffffffff\n      and\n        /* \"IoTDataStorage.sol\":485:495  msg.sender */\n      caller\n        /* \"IoTDataStorage.sol\":485:504  msg.sender == owner */\n      0xffffffffffffffffffffffffffffffffffffffff\n      and\n      eq\n        /* \"IoTDataStorage.sol\":477:523  require(msg.sender == owner, \"Not authorized\") */\n      tag_77\n      jumpi\n      mload(0x40)\n      0x08c379a000000000000000000000000000000000000000000000000000000000\n      dup2\n      mstore\n      0x04\n      add\n      tag_78\n      swap1\n      tag_79\n      jump\t// in\n    tag_78:\n      mload(0x40)\n      dup1\n      swap2\n      sub\n      swap1\n      revert\n    tag_77:\n        /* \"IoTDataStorage.sol\":271:274  100 */\n      0x64\n        /* \"IoTDataStorage.sol\":745:756  dataRecords */\n      0x00\n        /* \"IoTDataStorage.sol\":745:763  dataRecords.length */\n      dup1\n      sload\n      swap1\n      pop\n        /* \"IoTDataStorage.sol\":745:777  dataRecords.length < MAX_ENTRIES */\n      lt\n        /* \"IoTDataStorage.sol\":737:803  require(dataRecords.length < MAX_ENTRIES, \"Storage limit reached\") */\n      tag_81\n      jumpi\n      mload(0x40)\n      0x08c379a000000000000000000000000000000000000000000000000000000000\n      dup2\n      mstore\n      0x04\n      add\n      tag_82\n      swap1\n      tag_83\n      jump\t// in\n    tag_82:\n      mload(0x40)\n      dup1\n      swap2\n      sub\n      swap1\n      revert\n    tag_81:\n        /* \"IoTDataStorage.sol\":814:825  dataRecords */\n      0x00\n        /* \"IoTDataStorage.sol\":831:889  IoTData(block.timestamp, _deviceId, _dataType, _dataValue) */\n      mload(0x40)\n      dup1\n      0x80\n      add\n      0x40\n      mstore\n      dup1\n        /* \"IoTDataStorage.sol\":839:854  block.timestamp */\n      timestamp\n        /* \"IoTDataStorage.sol\":831:889  IoTData(block.timestamp, _deviceId, _dataType, _dataValue) */\n      dup2\n      mstore\n      0x20\n      add\n        /* \"IoTDataStorage.sol\":856:865  _deviceId */\n      dup6\n        /* \"IoTDataStorage.sol\":831:889  IoTData(block.timestamp, _deviceId, _dataType, _dataValue) */\n      dup2\n      mstore\n      0x20\n      add\n        /* \"IoTDataStorage.sol\":867:876  _dataType */\n      dup5\n        /* \"IoTDataStorage.sol\":831:889  IoTData(block.timestamp, _deviceId, _dataType, _dataValue) */\n      dup2\n      mstore\n      0x20\n      add\n        /* \"IoTDataStorage.sol\":878:888  _dataValue */\n      dup4\n        /* \"IoTDataStorage.sol\":831:889  IoTData(block.timestamp, _deviceId, _dataType, _dataValue) */\n      dup2\n      mstore\n      pop\n        /* \"IoTDataStorage.sol\":814:890  dataRecords.push(IoTData(block.timestamp, _deviceId, _dataType, _dataValue)) */\n      swap1\n      dup1\n      0x01\n      dup2\n      sload\n      add\n      dup1\n      dup3\n      sstore\n      dup1\n      swap2\n      pop\n      pop\n      0x01\n      swap1\n      sub\n      swap1\n      0x00\n      mstore\n      keccak256(0x00, 0x20)\n      swap1\n      0x04\n      mul\n      add\n      0x00\n      swap1\n      swap2\n      swap1\n      swap2\n      swap1\n      swap2\n      pop\n      0x00\n      dup3\n      add\n      mload\n      dup2\n      0x00\n      add\n      sstore\n      0x20\n      dup3\n      add\n      mload\n      dup2\n      0x01\n      add\n      swap1\n      dup2\n      tag_85\n      swap2\n      swap1\n      tag_86\n      jump\t// in\n    tag_85:\n      pop\n      0x40\n      dup3\n      add\n      mload\n      dup2\n      0x02\n      add\n      swap1\n      dup2\n      tag_87\n      swap2\n      swap1\n      tag_86\n      jump\t// in\n    tag_87:\n      pop\n      0x60\n      dup3\n      add\n      mload\n      dup2\n      0x03\n      add\n      swap1\n      dup2\n      tag_88\n      swap2\n      swap1\n      tag_86\n      jump\t// in\n    tag_88:\n      pop\n      pop\n      pop\n        /* \"IoTDataStorage.sol\":906:967  DataStored(block.timestamp, _deviceId, _dataType, _dataValue) */\n      0xc27557253cfa793c3de4beda3cf3aad78548fbff6f148459c5d4e26e97d6e258\n        /* \"IoTDataStorage.sol\":917:932  block.timestamp */\n      timestamp\n        /* \"IoTDataStorage.sol\":934:943  _deviceId */\n      dup5\n        /* \"IoTDataStorage.sol\":945:954  _dataType */\n      dup5\n        /* \"IoTDataStorage.sol\":956:966  _dataValue */\n      dup5\n        /* \"IoTDataStorage.sol\":906:967  DataStored(block.timestamp, _deviceId, _dataType, _dataValue) */\n      mload(0x40)\n      tag_89\n      swap5\n      swap4\n      swap3\n      swap2\n      swap1\n      tag_14\n      jump\t// in\n    tag_89:\n      mload(0x40)\n      dup1\n      swap2\n      sub\n      swap1\n      log1\n        /* \"IoTDataStorage.sol\":614:975  function storeData(string memory _deviceId, string memory _dataType, string memory _dataValue) public onlyOwner {... */\n      pop\n      pop\n      pop\n      jump\t// out\n        /* \"#utility.yul\":7:82   */\n    tag_90:\n        /* \"#utility.yul\":40:46   */\n      0x00\n        /* \"#utility.yul\":73:75   */\n      0x40\n        /* \"#utility.yul\":67:76   */\n      mload\n        /* \"#utility.yul\":57:76   */\n      swap1\n      pop\n        /* \"#utility.yul\":7:82   */\n      swap1\n      jump\t// out\n        /* \"#utility.yul\":88:205   */\n    tag_91:\n        /* \"#utility.yul\":197:198   */\n      0x00\n        /* \"#utility.yul\":194:195   */\n      0x00\n        /* \"#utility.yul\":187:199   */\n      revert\n        /* \"#utility.yul\":211:328   */\n    tag_92:\n        /* \"#utility.yul\":320:321   */\n      0x00\n        /* \"#utility.yul\":317:318   */\n      0x00\n        /* \"#utility.yul\":310:322   */\n      revert\n        /* \"#utility.yul\":334:411   */\n    tag_93:\n        /* \"#utility.yul\":371:378   */\n      0x00\n        /* \"#utility.yul\":400:405   */\n      dup2\n        /* \"#utility.yul\":389:405   */\n      swap1\n      pop\n        /* \"#utility.yul\":334:411   */\n      swap2\n      swap1\n      pop\n      jump\t// out\n        /* \"#utility.yul\":417:539   */\n    tag_94:\n        /* \"#utility.yul\":490:514   */\n      tag_142\n        /* \"#utility.yul\":508:513   */\n      dup2\n        /* \"#utility.yul\":490:514   */\n      tag_93\n      jump\t// in\n    tag_142:\n        /* \"#utility.yul\":483:488   */\n      dup2\n        /* \"#utility.yul\":480:515   */\n      eq\n        /* \"#utility.yul\":470:533   */\n      tag_143\n      jumpi\n        /* \"#utility.yul\":529:530   */\n      0x00\n        /* \"#utility.yul\":526:527   */\n      0x00\n        /* \"#utility.yul\":519:531   */\n      revert\n        /* \"#utility.yul\":470:533   */\n    tag_143:\n        /* \"#utility.yul\":417:539   */\n      pop\n      jump\t// out\n        /* \"#utility.yul\":545:684   */\n    tag_95:\n        /* \"#utility.yul\":591:596   */\n      0x00\n        /* \"#utility.yul\":629:635   */\n      dup2\n        /* \"#utility.yul\":616:636   */\n      calldataload\n        /* \"#utility.yul\":607:636   */\n      swap1\n      pop\n        /* \"#utility.yul\":645:678   */\n      tag_145\n        /* \"#utility.yul\":672:677   */\n      dup2\n        /* \"#utility.yul\":645:678   */\n      tag_94\n      jump\t// in\n    tag_145:\n        /* \"#utility.yul\":545:684   */\n      swap3\n      swap2\n      pop\n      pop\n      jump\t// out\n        /* \"#utility.yul\":690:1019   */\n    tag_11:\n        /* \"#utility.yul\":749:755   */\n      0x00\n        /* \"#utility.yul\":798:800   */\n      0x20\n        /* \"#utility.yul\":786:795   */\n      dup3\n        /* \"#utility.yul\":777:784   */\n      dup5\n        /* \"#utility.yul\":773:796   */\n      sub\n        /* \"#utility.yul\":769:801   */\n      slt\n        /* \"#utility.yul\":766:885   */\n      iszero\n      tag_147\n      jumpi\n        /* \"#utility.yul\":804:883   */\n      tag_148\n      tag_91\n      jump\t// in\n    tag_148:\n        /* \"#utility.yul\":766:885   */\n    tag_147:\n        /* \"#utility.yul\":924:925   */\n      0x00\n        /* \"#utility.yul\":949:1002   */\n      tag_149\n        /* \"#utility.yul\":994:1001   */\n      dup5\n        /* \"#utility.yul\":985:991   */\n      dup3\n        /* \"#utility.yul\":974:983   */\n      dup6\n        /* \"#utility.yul\":970:992   */\n      add\n        /* \"#utility.yul\":949:1002   */\n      tag_95\n      jump\t// in\n    tag_149:\n        /* \"#utility.yul\":939:1002   */\n      swap2\n      pop\n        /* \"#utility.yul\":895:1012   */\n      pop\n        /* \"#utility.yul\":690:1019   */\n      swap3\n      swap2\n      pop\n      pop\n      jump\t// out\n        /* \"#utility.yul\":1025:1143   */\n    tag_96:\n        /* \"#utility.yul\":1112:1136   */\n      tag_151\n        /* \"#utility.yul\":1130:1135   */\n      dup2\n        /* \"#utility.yul\":1112:1136   */\n      tag_93\n      jump\t// in\n    tag_151:\n        /* \"#utility.yul\":1107:1110   */\n      dup3\n        /* \"#utility.yul\":1100:1137   */\n      mstore\n        /* \"#utility.yul\":1025:1143   */\n      pop\n      pop\n      jump\t// out\n        /* \"#utility.yul\":1149:1248   */\n    tag_97:\n        /* \"#utility.yul\":1201:1207   */\n      0x00\n        /* \"#utility.yul\":1235:1240   */\n      dup2\n        /* \"#utility.yul\":1229:1241   */\n      mload\n        /* \"#utility.yul\":1219:1241   */\n      swap1\n      pop\n        /* \"#utility.yul\":1149:1248   */\n      swap2\n      swap1\n      pop\n      jump\t// out\n        /* \"#utility.yul\":1254:1423   */\n    tag_98:\n        /* \"#utility.yul\":1338:1349   */\n      0x00\n        /* \"#utility.yul\":1372:1378   */\n      dup3\n        /* \"#utility.yul\":1367:1370   */\n      dup3\n        /* \"#utility.yul\":1360:1379   */\n      mstore\n        /* \"#utility.yul\":1412:1416   */\n      0x20\n        /* \"#utility.yul\":1407:1410   */\n      dup3\n        /* \"#utility.yul\":1403:1417   */\n      add\n        /* \"#utility.yul\":1388:1417   */\n      swap1\n      pop\n        /* \"#utility.yul\":1254:1423   */\n      swap3\n      swap2\n      pop\n      pop\n      jump\t// out\n        /* \"#utility.yul\":1429:1568   */\n    tag_99:\n        /* \"#utility.yul\":1518:1524   */\n      dup3\n        /* \"#utility.yul\":1513:1516   */\n      dup2\n        /* \"#utility.yul\":1508:1511   */\n      dup4\n        /* \"#utility.yul\":1502:1525   */\n      mcopy\n        /* \"#utility.yul\":1559:1560   */\n      0x00\n        /* \"#utility.yul\":1550:1556   */\n      dup4\n        /* \"#utility.yul\":1545:1548   */\n      dup4\n        /* \"#utility.yul\":1541:1557   */\n      add\n        /* \"#utility.yul\":1534:1561   */\n      mstore\n        /* \"#utility.yul\":1429:1568   */\n      pop\n      pop\n      pop\n      jump\t// out\n        /* \"#utility.yul\":1574:1676   */\n    tag_100:\n        /* \"#utility.yul\":1615:1621   */\n      0x00\n        /* \"#utility.yul\":1666:1668   */\n      0x1f\n        /* \"#utility.yul\":1662:1669   */\n      not\n        /* \"#utility.yul\":1657:1659   */\n      0x1f\n        /* \"#utility.yul\":1650:1655   */\n      dup4\n        /* \"#utility.yul\":1646:1660   */\n      add\n        /* \"#utility.yul\":1642:1670   */\n      and\n        /* \"#utility.yul\":1632:1670   */\n      swap1\n      pop\n        /* \"#utility.yul\":1574:1676   */\n      swap2\n      swap1\n      pop\n      jump\t// out\n        /* \"#utility.yul\":1682:2059   */\n    tag_101:\n        /* \"#utility.yul\":1770:1773   */\n      0x00\n        /* \"#utility.yul\":1798:1837   */\n      tag_157\n        /* \"#utility.yul\":1831:1836   */\n      dup3\n        /* \"#utility.yul\":1798:1837   */\n      tag_97\n      jump\t// in\n    tag_157:\n        /* \"#utility.yul\":1853:1924   */\n      tag_158\n        /* \"#utility.yul\":1917:1923   */\n      dup2\n        /* \"#utility.yul\":1912:1915   */\n      dup6\n        /* \"#utility.yul\":1853:1924   */\n      tag_98\n      jump\t// in\n    tag_158:\n        /* \"#utility.yul\":1846:1924   */\n      swap4\n      pop\n        /* \"#utility.yul\":1933:1998   */\n      tag_159\n        /* \"#utility.yul\":1991:1997   */\n      dup2\n        /* \"#utility.yul\":1986:1989   */\n      dup6\n        /* \"#utility.yul\":1979:1983   */\n      0x20\n        /* \"#utility.yul\":1972:1977   */\n      dup7\n        /* \"#utility.yul\":1968:1984   */\n      add\n        /* \"#utility.yul\":1933:1998   */\n      tag_99\n      jump\t// in\n    tag_159:\n        /* \"#utility.yul\":2023:2052   */\n      tag_160\n        /* \"#utility.yul\":2045:2051   */\n      dup2\n        /* \"#utility.yul\":2023:2052   */\n      tag_100\n      jump\t// in\n    tag_160:\n        /* \"#utility.yul\":2018:2021   */\n      dup5\n        /* \"#utility.yul\":2014:2053   */\n      add\n        /* \"#utility.yul\":2007:2053   */\n      swap2\n      pop\n        /* \"#utility.yul\":1774:2059   */\n      pop\n        /* \"#utility.yul\":1682:2059   */\n      swap3\n      swap2\n      pop\n      pop\n      jump\t// out\n        /* \"#utility.yul\":2065:2891   */\n    tag_14:\n        /* \"#utility.yul\":2302:2306   */\n      0x00\n        /* \"#utility.yul\":2340:2343   */\n      0x80\n        /* \"#utility.yul\":2329:2338   */\n      dup3\n        /* \"#utility.yul\":2325:2344   */\n      add\n        /* \"#utility.yul\":2317:2344   */\n      swap1\n      pop\n        /* \"#utility.yul\":2354:2425   */\n      tag_162\n        /* \"#utility.yul\":2422:2423   */\n      0x00\n        /* \"#utility.yul\":2411:2420   */\n      dup4\n        /* \"#utility.yul\":2407:2424   */\n      add\n        /* \"#utility.yul\":2398:2404   */\n      dup8\n        /* \"#utility.yul\":2354:2425   */\n      tag_96\n      jump\t// in\n    tag_162:\n        /* \"#utility.yul\":2472:2481   */\n      dup2\n        /* \"#utility.yul\":2466:2470   */\n      dup2\n        /* \"#utility.yul\":2462:2482   */\n      sub\n        /* \"#utility.yul\":2457:2459   */\n      0x20\n        /* \"#utility.yul\":2446:2455   */\n      dup4\n        /* \"#utility.yul\":2442:2460   */\n      add\n        /* \"#utility.yul\":2435:2483   */\n      mstore\n        /* \"#utility.yul\":2500:2578   */\n      tag_163\n        /* \"#utility.yul\":2573:2577   */\n      dup2\n        /* \"#utility.yul\":2564:2570   */\n      dup7\n        /* \"#utility.yul\":2500:2578   */\n      tag_101\n      jump\t// in\n    tag_163:\n        /* \"#utility.yul\":2492:2578   */\n      swap1\n      pop\n        /* \"#utility.yul\":2625:2634   */\n      dup2\n        /* \"#utility.yul\":2619:2623   */\n      dup2\n        /* \"#utility.yul\":2615:2635   */\n      sub\n        /* \"#utility.yul\":2610:2612   */\n      0x40\n        /* \"#utility.yul\":2599:2608   */\n      dup4\n        /* \"#utility.yul\":2595:2613   */\n      add\n        /* \"#utility.yul\":2588:2636   */\n      mstore\n        /* \"#utility.yul\":2653:2731   */\n      tag_164\n        /* \"#utility.yul\":2726:2730   */\n      dup2\n        /* \"#utility.yul\":2717:2723   */\n      dup6\n        /* \"#utility.yul\":2653:2731   */\n      tag_101\n      jump\t// in\n    tag_164:\n        /* \"#utility.yul\":2645:2731   */\n      swap1\n      pop\n        /* \"#utility.yul\":2778:2787   */\n      dup2\n        /* \"#utility.yul\":2772:2776   */\n      dup2\n        /* \"#utility.yul\":2768:2788   */\n      sub\n        /* \"#utility.yul\":2763:2765   */\n      0x60\n        /* \"#utility.yul\":2752:2761   */\n      dup4\n        /* \"#utility.yul\":2748:2766   */\n      add\n        /* \"#utility.yul\":2741:2789   */\n      mstore\n        /* \"#utility.yul\":2806:2884   */\n      tag_165\n        /* \"#utility.yul\":2879:2883   */\n      dup2\n        /* \"#utility.yul\":2870:2876   */\n      dup5\n        /* \"#utility.yul\":2806:2884   */\n      tag_101\n      jump\t// in\n    tag_165:\n        /* \"#utility.yul\":2798:2884   */\n      swap1\n      pop\n        /* \"#utility.yul\":2065:2891   */\n      swap6\n      swap5\n      pop\n      pop\n      pop\n      pop\n      pop\n      jump\t// out\n        /* \"#utility.yul\":2897:3119   */\n    tag_18:\n        /* \"#utility.yul\":2990:2994   */\n      0x00\n        /* \"#utility.yul\":3028:3030   */\n      0x20\n        /* \"#utility.yul\":3017:3026   */\n      dup3\n        /* \"#utility.yul\":3013:3031   */\n      add\n        /* \"#utility.yul\":3005:3031   */\n      swap1\n      pop\n        /* \"#utility.yul\":3041:3112   */\n      tag_167\n        /* \"#utility.yul\":3109:3110   */\n      0x00\n        /* \"#utility.yul\":3098:3107   */\n      dup4\n        /* \"#utility.yul\":3094:3111   */\n      add\n        /* \"#utility.yul\":3085:3091   */\n      dup5\n        /* \"#utility.yul\":3041:3112   */\n      tag_96\n      jump\t// in\n    tag_167:\n        /* \"#utility.yul\":2897:3119   */\n      swap3\n      swap2\n      pop\n      pop\n      jump\t// out\n        /* \"#utility.yul\":3125:3251   */\n    tag_102:\n        /* \"#utility.yul\":3162:3169   */\n      0x00\n        /* \"#utility.yul\":3202:3244   */\n      0xffffffffffffffffffffffffffffffffffffffff\n        /* \"#utility.yul\":3195:3200   */\n      dup3\n        /* \"#utility.yul\":3191:3245   */\n      and\n        /* \"#utility.yul\":3180:3245   */\n      swap1\n      pop\n        /* \"#utility.yul\":3125:3251   */\n      swap2\n      swap1\n      pop\n      jump\t// out\n        /* \"#utility.yul\":3257:3353   */\n    tag_103:\n        /* \"#utility.yul\":3294:3301   */\n      0x00\n        /* \"#utility.yul\":3323:3347   */\n      tag_170\n        /* \"#utility.yul\":3341:3346   */\n      dup3\n        /* \"#utility.yul\":3323:3347   */\n      tag_102\n      jump\t// in\n    tag_170:\n        /* \"#utility.yul\":3312:3347   */\n      swap1\n      pop\n        /* \"#utility.yul\":3257:3353   */\n      swap2\n      swap1\n      pop\n      jump\t// out\n        /* \"#utility.yul\":3359:3477   */\n    tag_104:\n        /* \"#utility.yul\":3446:3470   */\n      tag_172\n        /* \"#utility.yul\":3464:3469   */\n      dup2\n        /* \"#utility.yul\":3446:3470   */\n      tag_103\n      jump\t// in\n    tag_172:\n        /* \"#utility.yul\":3441:3444   */\n      dup3\n        /* \"#utility.yul\":3434:3471   */\n      mstore\n        /* \"#utility.yul\":3359:3477   */\n      pop\n      pop\n      jump\t// out\n        /* \"#utility.yul\":3483:3705   */\n    tag_25:\n        /* \"#utility.yul\":3576:3580   */\n      0x00\n        /* \"#utility.yul\":3614:3616   */\n      0x20\n        /* \"#utility.yul\":3603:3612   */\n      dup3\n        /* \"#utility.yul\":3599:3617   */\n      add\n        /* \"#utility.yul\":3591:3617   */\n      swap1\n      pop\n        /* \"#utility.yul\":3627:3698   */\n      tag_174\n        /* \"#utility.yul\":3695:3696   */\n      0x00\n        /* \"#utility.yul\":3684:3693   */\n      dup4\n        /* \"#utility.yul\":3680:3697   */\n      add\n        /* \"#utility.yul\":3671:3677   */\n      dup5\n        /* \"#utility.yul\":3627:3698   */\n      tag_104\n      jump\t// in\n    tag_174:\n        /* \"#utility.yul\":3483:3705   */\n      swap3\n      swap2\n      pop\n      pop\n      jump\t// out\n        /* \"#utility.yul\":3711:3828   */\n    tag_105:\n        /* \"#utility.yul\":3820:3821   */\n      0x00\n        /* \"#utility.yul\":3817:3818   */\n      0x00\n        /* \"#utility.yul\":3810:3822   */\n      revert\n        /* \"#utility.yul\":3834:3951   */\n    tag_106:\n        /* \"#utility.yul\":3943:3944   */\n      0x00\n        /* \"#utility.yul\":3940:3941   */\n      0x00\n        /* \"#utility.yul\":3933:3945   */\n      revert\n        /* \"#utility.yul\":3957:4137   */\n    tag_107:\n        /* \"#utility.yul\":4005:4082   */\n      0x4e487b7100000000000000000000000000000000000000000000000000000000\n        /* \"#utility.yul\":4002:4003   */\n      0x00\n        /* \"#utility.yul\":3995:4083   */\n      mstore\n        /* \"#utility.yul\":4102:4106   */\n      0x41\n        /* \"#utility.yul\":4099:4100   */\n      0x04\n        /* \"#utility.yul\":4092:4107   */\n      mstore\n        /* \"#utility.yul\":4126:4130   */\n      0x24\n        /* \"#utility.yul\":4123:4124   */\n      0x00\n        /* \"#utility.yul\":4116:4131   */\n      revert\n        /* \"#utility.yul\":4143:4424   */\n    tag_108:\n        /* \"#utility.yul\":4226:4253   */\n      tag_179\n        /* \"#utility.yul\":4248:4252   */\n      dup3\n        /* \"#utility.yul\":4226:4253   */\n      tag_100\n      jump\t// in\n    tag_179:\n        /* \"#utility.yul\":4218:4224   */\n      dup2\n        /* \"#utility.yul\":4214:4254   */\n      add\n        /* \"#utility.yul\":4356:4362   */\n      dup2\n        /* \"#utility.yul\":4344:4354   */\n      dup2\n        /* \"#utility.yul\":4341:4363   */\n      lt\n        /* \"#utility.yul\":4320:4338   */\n      0xffffffffffffffff\n        /* \"#utility.yul\":4308:4318   */\n      dup3\n        /* \"#utility.yul\":4305:4339   */\n      gt\n        /* \"#utility.yul\":4302:4364   */\n      or\n        /* \"#utility.yul\":4299:4387   */\n      iszero\n      tag_180\n      jumpi\n        /* \"#utility.yul\":4367:4385   */\n      tag_181\n      tag_107\n      jump\t// in\n    tag_181:\n        /* \"#utility.yul\":4299:4387   */\n    tag_180:\n        /* \"#utility.yul\":4407:4417   */\n      dup1\n        /* \"#utility.yul\":4403:4405   */\n      0x40\n        /* \"#utility.yul\":4396:4418   */\n      mstore\n        /* \"#utility.yul\":4186:4424   */\n      pop\n        /* \"#utility.yul\":4143:4424   */\n      pop\n      pop\n      jump\t// out\n        /* \"#utility.yul\":4430:4559   */\n    tag_109:\n        /* \"#utility.yul\":4464:4470   */\n      0x00\n        /* \"#utility.yul\":4491:4511   */\n      tag_183\n      tag_90\n      jump\t// in\n    tag_183:\n        /* \"#utility.yul\":4481:4511   */\n      swap1\n      pop\n        /* \"#utility.yul\":4520:4553   */\n      tag_184\n        /* \"#utility.yul\":4548:4552   */\n      dup3\n        /* \"#utility.yul\":4540:4546   */\n      dup3\n        /* \"#utility.yul\":4520:4553   */\n      tag_108\n      jump\t// in\n    tag_184:\n        /* \"#utility.yul\":4430:4559   */\n      swap2\n      swap1\n      pop\n      jump\t// out\n        /* \"#utility.yul\":4565:4873   */\n    tag_110:\n        /* \"#utility.yul\":4627:4631   */\n      0x00\n        /* \"#utility.yul\":4717:4735   */\n      0xffffffffffffffff\n        /* \"#utility.yul\":4709:4715   */\n      dup3\n        /* \"#utility.yul\":4706:4736   */\n      gt\n        /* \"#utility.yul\":4703:4759   */\n      iszero\n      tag_186\n      jumpi\n        /* \"#utility.yul\":4739:4757   */\n      tag_187\n      tag_107\n      jump\t// in\n    tag_187:\n        /* \"#utility.yul\":4703:4759   */\n    tag_186:\n        /* \"#utility.yul\":4777:4806   */\n      tag_188\n        /* \"#utility.yul\":4799:4805   */\n      dup3\n        /* \"#utility.yul\":4777:4806   */\n      tag_100\n      jump\t// in\n    tag_188:\n        /* \"#utility.yul\":4769:4806   */\n      swap1\n      pop\n        /* \"#utility.yul\":4861:4865   */\n      0x20\n        /* \"#utility.yul\":4855:4859   */\n      dup2\n        /* \"#utility.yul\":4851:4866   */\n      add\n        /* \"#utility.yul\":4843:4866   */\n      swap1\n      pop\n        /* \"#utility.yul\":4565:4873   */\n      swap2\n      swap1\n      pop\n      jump\t// out\n        /* \"#utility.yul\":4879:5027   */\n    tag_111:\n        /* \"#utility.yul\":4977:4983   */\n      dup3\n        /* \"#utility.yul\":4972:4975   */\n      dup2\n        /* \"#utility.yul\":4967:4970   */\n      dup4\n        /* \"#utility.yul\":4954:4984   */\n      calldatacopy\n        /* \"#utility.yul\":5018:5019   */\n      0x00\n        /* \"#utility.yul\":5009:5015   */\n      dup4\n        /* \"#utility.yul\":5004:5007   */\n      dup4\n        /* \"#utility.yul\":5000:5016   */\n      add\n        /* \"#utility.yul\":4993:5020   */\n      mstore\n        /* \"#utility.yul\":4879:5027   */\n      pop\n      pop\n      pop\n      jump\t// out\n        /* \"#utility.yul\":5033:5458   */\n    tag_112:\n        /* \"#utility.yul\":5111:5116   */\n      0x00\n        /* \"#utility.yul\":5136:5202   */\n      tag_191\n        /* \"#utility.yul\":5152:5201   */\n      tag_192\n        /* \"#utility.yul\":5194:5200   */\n      dup5\n        /* \"#utility.yul\":5152:5201   */\n      tag_110\n      jump\t// in\n    tag_192:\n        /* \"#utility.yul\":5136:5202   */\n      tag_109\n      jump\t// in\n    tag_191:\n        /* \"#utility.yul\":5127:5202   */\n      swap1\n      pop\n        /* \"#utility.yul\":5225:5231   */\n      dup3\n        /* \"#utility.yul\":5218:5223   */\n      dup2\n        /* \"#utility.yul\":5211:5232   */\n      mstore\n        /* \"#utility.yul\":5263:5267   */\n      0x20\n        /* \"#utility.yul\":5256:5261   */\n      dup2\n        /* \"#utility.yul\":5252:5268   */\n      add\n        /* \"#utility.yul\":5301:5304   */\n      dup5\n        /* \"#utility.yul\":5292:5298   */\n      dup5\n        /* \"#utility.yul\":5287:5290   */\n      dup5\n        /* \"#utility.yul\":5283:5299   */\n      add\n        /* \"#utility.yul\":5280:5305   */\n      gt\n        /* \"#utility.yul\":5277:5389   */\n      iszero\n      tag_193\n      jumpi\n        /* \"#utility.yul\":5308:5387   */\n      tag_194\n      tag_106\n      jump\t// in\n    tag_194:\n        /* \"#utility.yul\":5277:5389   */\n    tag_193:\n        /* \"#utility.yul\":5398:5452   */\n      tag_195\n        /* \"#utility.yul\":5445:5451   */\n      dup5\n        /* \"#utility.yul\":5440:5443   */\n      dup3\n        /* \"#utility.yul\":5435:5438   */\n      dup6\n        /* \"#utility.yul\":5398:5452   */\n      tag_111\n      jump\t// in\n    tag_195:\n        /* \"#utility.yul\":5117:5458   */\n      pop\n        /* \"#utility.yul\":5033:5458   */\n      swap4\n      swap3\n      pop\n      pop\n      pop\n      jump\t// out\n        /* \"#utility.yul\":5478:5818   */\n    tag_113:\n        /* \"#utility.yul\":5534:5539   */\n      0x00\n        /* \"#utility.yul\":5583:5586   */\n      dup3\n        /* \"#utility.yul\":5576:5580   */\n      0x1f\n        /* \"#utility.yul\":5568:5574   */\n      dup4\n        /* \"#utility.yul\":5564:5581   */\n      add\n        /* \"#utility.yul\":5560:5587   */\n      slt\n        /* \"#utility.yul\":5550:5672   */\n      tag_197\n      jumpi\n        /* \"#utility.yul\":5591:5670   */\n      tag_198\n      tag_105\n      jump\t// in\n    tag_198:\n        /* \"#utility.yul\":5550:5672   */\n    tag_197:\n        /* \"#utility.yul\":5708:5714   */\n      dup2\n        /* \"#utility.yul\":5695:5715   */\n      calldataload\n        /* \"#utility.yul\":5733:5812   */\n      tag_199\n        /* \"#utility.yul\":5808:5811   */\n      dup5\n        /* \"#utility.yul\":5800:5806   */\n      dup3\n        /* \"#utility.yul\":5793:5797   */\n      0x20\n        /* \"#utility.yul\":5785:5791   */\n      dup7\n        /* \"#utility.yul\":5781:5798   */\n      add\n        /* \"#utility.yul\":5733:5812   */\n      tag_112\n      jump\t// in\n    tag_199:\n        /* \"#utility.yul\":5724:5812   */\n      swap2\n      pop\n        /* \"#utility.yul\":5540:5818   */\n      pop\n        /* \"#utility.yul\":5478:5818   */\n      swap3\n      swap2\n      pop\n      pop\n      jump\t// out\n        /* \"#utility.yul\":5824:6983   */\n    tag_32:\n        /* \"#utility.yul\":5931:5937   */\n      0x00\n        /* \"#utility.yul\":5939:5945   */\n      0x00\n        /* \"#utility.yul\":5947:5953   */\n      0x00\n        /* \"#utility.yul\":5996:5998   */\n      0x60\n        /* \"#utility.yul\":5984:5993   */\n      dup5\n        /* \"#utility.yul\":5975:5982   */\n      dup7\n        /* \"#utility.yul\":5971:5994   */\n      sub\n        /* \"#utility.yul\":5967:5999   */\n      slt\n        /* \"#utility.yul\":5964:6083   */\n      iszero\n      tag_201\n      jumpi\n        /* \"#utility.yul\":6002:6081   */\n      tag_202\n      tag_91\n      jump\t// in\n    tag_202:\n        /* \"#utility.yul\":5964:6083   */\n    tag_201:\n        /* \"#utility.yul\":6150:6151   */\n      0x00\n        /* \"#utility.yul\":6139:6148   */\n      dup5\n        /* \"#utility.yul\":6135:6152   */\n      add\n        /* \"#utility.yul\":6122:6153   */\n      calldataload\n        /* \"#utility.yul\":6180:6198   */\n      0xffffffffffffffff\n        /* \"#utility.yul\":6172:6178   */\n      dup2\n        /* \"#utility.yul\":6169:6199   */\n      gt\n        /* \"#utility.yul\":6166:6283   */\n      iszero\n      tag_203\n      jumpi\n        /* \"#utility.yul\":6202:6281   */\n      tag_204\n      tag_92\n      jump\t// in\n    tag_204:\n        /* \"#utility.yul\":6166:6283   */\n    tag_203:\n        /* \"#utility.yul\":6307:6370   */\n      tag_205\n        /* \"#utility.yul\":6362:6369   */\n      dup7\n        /* \"#utility.yul\":6353:6359   */\n      dup3\n        /* \"#utility.yul\":6342:6351   */\n      dup8\n        /* \"#utility.yul\":6338:6360   */\n      add\n        /* \"#utility.yul\":6307:6370   */\n      tag_113\n      jump\t// in\n    tag_205:\n        /* \"#utility.yul\":6297:6370   */\n      swap4\n      pop\n        /* \"#utility.yul\":6093:6380   */\n      pop\n        /* \"#utility.yul\":6447:6449   */\n      0x20\n        /* \"#utility.yul\":6436:6445   */\n      dup5\n        /* \"#utility.yul\":6432:6450   */\n      add\n        /* \"#utility.yul\":6419:6451   */\n      calldataload\n        /* \"#utility.yul\":6478:6496   */\n      0xffffffffffffffff\n        /* \"#utility.yul\":6470:6476   */\n      dup2\n        /* \"#utility.yul\":6467:6497   */\n      gt\n        /* \"#utility.yul\":6464:6581   */\n      iszero\n      tag_206\n      jumpi\n        /* \"#utility.yul\":6500:6579   */\n      tag_207\n      tag_92\n      jump\t// in\n    tag_207:\n        /* \"#utility.yul\":6464:6581   */\n    tag_206:\n        /* \"#utility.yul\":6605:6668   */\n      tag_208\n        /* \"#utility.yul\":6660:6667   */\n      dup7\n        /* \"#utility.yul\":6651:6657   */\n      dup3\n        /* \"#utility.yul\":6640:6649   */\n      dup8\n        /* \"#utility.yul\":6636:6658   */\n      add\n        /* \"#utility.yul\":6605:6668   */\n      tag_113\n      jump\t// in\n    tag_208:\n        /* \"#utility.yul\":6595:6668   */\n      swap3\n      pop\n        /* \"#utility.yul\":6390:6678   */\n      pop\n        /* \"#utility.yul\":6745:6747   */\n      0x40\n        /* \"#utility.yul\":6734:6743   */\n      dup5\n        /* \"#utility.yul\":6730:6748   */\n      add\n        /* \"#utility.yul\":6717:6749   */\n      calldataload\n        /* \"#utility.yul\":6776:6794   */\n      0xffffffffffffffff\n        /* \"#utility.yul\":6768:6774   */\n      dup2\n        /* \"#utility.yul\":6765:6795   */\n      gt\n        /* \"#utility.yul\":6762:6879   */\n      iszero\n      tag_209\n      jumpi\n        /* \"#utility.yul\":6798:6877   */\n      tag_210\n      tag_92\n      jump\t// in\n    tag_210:\n        /* \"#utility.yul\":6762:6879   */\n    tag_209:\n        /* \"#utility.yul\":6903:6966   */\n      tag_211\n        /* \"#utility.yul\":6958:6965   */\n      dup7\n        /* \"#utility.yul\":6949:6955   */\n      dup3\n        /* \"#utility.yul\":6938:6947   */\n      dup8\n        /* \"#utility.yul\":6934:6956   */\n      add\n        /* \"#utility.yul\":6903:6966   */\n      tag_113\n      jump\t// in\n    tag_211:\n        /* \"#utility.yul\":6893:6966   */\n      swap2\n      pop\n        /* \"#utility.yul\":6688:6976   */\n      pop\n        /* \"#utility.yul\":5824:6983   */\n      swap3\n      pop\n      swap3\n      pop\n      swap3\n      jump\t// out\n        /* \"#utility.yul\":6989:7158   */\n    tag_114:\n        /* \"#utility.yul\":7129:7150   */\n      0x496e646578206f7574206f6620626f756e647300000000000000000000000000\n        /* \"#utility.yul\":7125:7126   */\n      0x00\n        /* \"#utility.yul\":7117:7123   */\n      dup3\n        /* \"#utility.yul\":7113:7127   */\n      add\n        /* \"#utility.yul\":7106:7151   */\n      mstore\n        /* \"#utility.yul\":6989:7158   */\n      pop\n      jump\t// out\n        /* \"#utility.yul\":7164:7530   */\n    tag_115:\n        /* \"#utility.yul\":7306:7309   */\n      0x00\n        /* \"#utility.yul\":7327:7394   */\n      tag_214\n        /* \"#utility.yul\":7391:7393   */\n      0x13\n        /* \"#utility.yul\":7386:7389   */\n      dup4\n        /* \"#utility.yul\":7327:7394   */\n      tag_98\n      jump\t// in\n    tag_214:\n        /* \"#utility.yul\":7320:7394   */\n      swap2\n      pop\n        /* \"#utility.yul\":7403:7496   */\n      tag_215\n        /* \"#utility.yul\":7492:7495   */\n      dup3\n        /* \"#utility.yul\":7403:7496   */\n      tag_114\n      jump\t// in\n    tag_215:\n        /* \"#utility.yul\":7521:7523   */\n      0x20\n        /* \"#utility.yul\":7516:7519   */\n      dup3\n        /* \"#utility.yul\":7512:7524   */\n      add\n        /* \"#utility.yul\":7505:7524   */\n      swap1\n      pop\n        /* \"#utility.yul\":7164:7530   */\n      swap2\n      swap1\n      pop\n      jump\t// out\n        /* \"#utility.yul\":7536:7955   */\n    tag_37:\n        /* \"#utility.yul\":7702:7706   */\n      0x00\n        /* \"#utility.yul\":7740:7742   */\n      0x20\n        /* \"#utility.yul\":7729:7738   */\n      dup3\n        /* \"#utility.yul\":7725:7743   */\n      add\n        /* \"#utility.yul\":7717:7743   */\n      swap1\n      pop\n        /* \"#utility.yul\":7789:7798   */\n      dup2\n        /* \"#utility.yul\":7783:7787   */\n      dup2\n        /* \"#utility.yul\":7779:7799   */\n      sub\n        /* \"#utility.yul\":7775:7776   */\n      0x00\n        /* \"#utility.yul\":7764:7773   */\n      dup4\n        /* \"#utility.yul\":7760:7777   */\n      add\n        /* \"#utility.yul\":7753:7800   */\n      mstore\n        /* \"#utility.yul\":7817:7948   */\n      tag_217\n        /* \"#utility.yul\":7943:7947   */\n      dup2\n        /* \"#utility.yul\":7817:7948   */\n      tag_115\n      jump\t// in\n    tag_217:\n        /* \"#utility.yul\":7809:7948   */\n      swap1\n      pop\n        /* \"#utility.yul\":7536:7955   */\n      swap2\n      swap1\n      pop\n      jump\t// out\n        /* \"#utility.yul\":7961:8141   */\n    tag_40:\n        /* \"#utility.yul\":8009:8086   */\n      0x4e487b7100000000000000000000000000000000000000000000000000000000\n        /* \"#utility.yul\":8006:8007   */\n      0x00\n        /* \"#utility.yul\":7999:8087   */\n      mstore\n        /* \"#utility.yul\":8106:8110   */\n      0x32\n        /* \"#utility.yul\":8103:8104   */\n      0x04\n        /* \"#utility.yul\":8096:8111   */\n      mstore\n        /* \"#utility.yul\":8130:8134   */\n      0x24\n        /* \"#utility.yul\":8127:8128   */\n      0x00\n        /* \"#utility.yul\":8120:8135   */\n      revert\n        /* \"#utility.yul\":8147:8327   */\n    tag_116:\n        /* \"#utility.yul\":8195:8272   */\n      0x4e487b7100000000000000000000000000000000000000000000000000000000\n        /* \"#utility.yul\":8192:8193   */\n      0x00\n        /* \"#utility.yul\":8185:8273   */\n      mstore\n        /* \"#utility.yul\":8292:8296   */\n      0x22\n        /* \"#utility.yul\":8289:8290   */\n      0x04\n        /* \"#utility.yul\":8282:8297   */\n      mstore\n        /* \"#utility.yul\":8316:8320   */\n      0x24\n        /* \"#utility.yul\":8313:8314   */\n      0x00\n        /* \"#utility.yul\":8306:8321   */\n      revert\n        /* \"#utility.yul\":8333:8653   */\n    tag_43:\n        /* \"#utility.yul\":8377:8383   */\n      0x00\n        /* \"#utility.yul\":8414:8415   */\n      0x02\n        /* \"#utility.yul\":8408:8412   */\n      dup3\n        /* \"#utility.yul\":8404:8416   */\n      div\n        /* \"#utility.yul\":8394:8416   */\n      swap1\n      pop\n        /* \"#utility.yul\":8461:8462   */\n      0x01\n        /* \"#utility.yul\":8455:8459   */\n      dup3\n        /* \"#utility.yul\":8451:8463   */\n      and\n        /* \"#utility.yul\":8482:8500   */\n      dup1\n        /* \"#utility.yul\":8472:8553   */\n      tag_221\n      jumpi\n        /* \"#utility.yul\":8538:8542   */\n      0x7f\n        /* \"#utility.yul\":8530:8536   */\n      dup3\n        /* \"#utility.yul\":8526:8543   */\n      and\n        /* \"#utility.yul\":8516:8543   */\n      swap2\n      pop\n        /* \"#utility.yul\":8472:8553   */\n    tag_221:\n        /* \"#utility.yul\":8600:8602   */\n      0x20\n        /* \"#utility.yul\":8592:8598   */\n      dup3\n        /* \"#utility.yul\":8589:8603   */\n      lt\n        /* \"#utility.yul\":8569:8587   */\n      dup2\n        /* \"#utility.yul\":8566:8604   */\n      sub\n        /* \"#utility.yul\":8563:8647   */\n      tag_222\n      jumpi\n        /* \"#utility.yul\":8619:8637   */\n      tag_223\n      tag_116\n      jump\t// in\n    tag_223:\n        /* \"#utility.yul\":8563:8647   */\n    tag_222:\n        /* \"#utility.yul\":8384:8653   */\n      pop\n        /* \"#utility.yul\":8333:8653   */\n      swap2\n      swap1\n      pop\n      jump\t// out\n        /* \"#utility.yul\":8659:8823   */\n    tag_117:\n        /* \"#utility.yul\":8799:8815   */\n      0x4e6f7420617574686f72697a6564000000000000000000000000000000000000\n        /* \"#utility.yul\":8795:8796   */\n      0x00\n        /* \"#utility.yul\":8787:8793   */\n      dup3\n        /* \"#utility.yul\":8783:8797   */\n      add\n        /* \"#utility.yul\":8776:8816   */\n      mstore\n        /* \"#utility.yul\":8659:8823   */\n      pop\n      jump\t// out\n        /* \"#utility.yul\":8829:9195   */\n    tag_118:\n        /* \"#utility.yul\":8971:8974   */\n      0x00\n        /* \"#utility.yul\":8992:9059   */\n      tag_226\n        /* \"#utility.yul\":9056:9058   */\n      0x0e\n        /* \"#utility.yul\":9051:9054   */\n      dup4\n        /* \"#utility.yul\":8992:9059   */\n      tag_98\n      jump\t// in\n    tag_226:\n        /* \"#utility.yul\":8985:9059   */\n      swap2\n      pop\n        /* \"#utility.yul\":9068:9161   */\n      tag_227\n        /* \"#utility.yul\":9157:9160   */\n      dup3\n        /* \"#utility.yul\":9068:9161   */\n      tag_117\n      jump\t// in\n    tag_227:\n        /* \"#utility.yul\":9186:9188   */\n      0x20\n        /* \"#utility.yul\":9181:9184   */\n      dup3\n        /* \"#utility.yul\":9177:9189   */\n      add\n        /* \"#utility.yul\":9170:9189   */\n      swap1\n      pop\n        /* \"#utility.yul\":8829:9195   */\n      swap2\n      swap1\n      pop\n      jump\t// out\n        /* \"#utility.yul\":9201:9620   */\n    tag_79:\n        /* \"#utility.yul\":9367:9371   */\n      0x00\n        /* \"#utility.yul\":9405:9407   */\n      0x20\n        /* \"#utility.yul\":9394:9403   */\n      dup3\n        /* \"#utility.yul\":9390:9408   */\n      add\n        /* \"#utility.yul\":9382:9408   */\n      swap1\n      pop\n        /* \"#utility.yul\":9454:9463   */\n      dup2\n        /* \"#utility.yul\":9448:9452   */\n      dup2\n        /* \"#utility.yul\":9444:9464   */\n      sub\n        /* \"#utility.yul\":9440:9441   */\n      0x00\n        /* \"#utility.yul\":9429:9438   */\n      dup4\n        /* \"#utility.yul\":9425:9442   */\n      add\n        /* \"#utility.yul\":9418:9465   */\n      mstore\n        /* \"#utility.yul\":9482:9613   */\n      tag_229\n        /* \"#utility.yul\":9608:9612   */\n      dup2\n        /* \"#utility.yul\":9482:9613   */\n      tag_118\n      jump\t// in\n    tag_229:\n        /* \"#utility.yul\":9474:9613   */\n      swap1\n      pop\n        /* \"#utility.yul\":9201:9620   */\n      swap2\n      swap1\n      pop\n      jump\t// out\n        /* \"#utility.yul\":9626:9797   */\n    tag_119:\n        /* \"#utility.yul\":9766:9789   */\n      0x53746f72616765206c696d697420726561636865640000000000000000000000\n        /* \"#utility.yul\":9762:9763   */\n      0x00\n        /* \"#utility.yul\":9754:9760   */\n      dup3\n        /* \"#utility.yul\":9750:9764   */\n      add\n        /* \"#utility.yul\":9743:9790   */\n      mstore\n        /* \"#utility.yul\":9626:9797   */\n      pop\n      jump\t// out\n        /* \"#utility.yul\":9803:10169   */\n    tag_120:\n        /* \"#utility.yul\":9945:9948   */\n      0x00\n        /* \"#utility.yul\":9966:10033   */\n      tag_232\n        /* \"#utility.yul\":10030:10032   */\n      0x15\n        /* \"#utility.yul\":10025:10028   */\n      dup4\n        /* \"#utility.yul\":9966:10033   */\n      tag_98\n      jump\t// in\n    tag_232:\n        /* \"#utility.yul\":9959:10033   */\n      swap2\n      pop\n        /* \"#utility.yul\":10042:10135   */\n      tag_233\n        /* \"#utility.yul\":10131:10134   */\n      dup3\n        /* \"#utility.yul\":10042:10135   */\n      tag_119\n      jump\t// in\n    tag_233:\n        /* \"#utility.yul\":10160:10162   */\n      0x20\n        /* \"#utility.yul\":10155:10158   */\n      dup3\n        /* \"#utility.yul\":10151:10163   */\n      add\n        /* \"#utility.yul\":10144:10163   */\n      swap1\n      pop\n        /* \"#utility.yul\":9803:10169   */\n      swap2\n      swap1\n      pop\n      jump\t// out\n        /* \"#utility.yul\":10175:10594   */\n    tag_83:\n        /* \"#utility.yul\":10341:10345   */\n      0x00\n        /* \"#utility.yul\":10379:10381   */\n      0x20\n        /* \"#utility.yul\":10368:10377   */\n      dup3\n        /* \"#utility.yul\":10364:10382   */\n      add\n        /* \"#utility.yul\":10356:10382   */\n      swap1\n      pop\n        /* \"#utility.yul\":10428:10437   */\n      dup2\n        /* \"#utility.yul\":10422:10426   */\n      dup2\n        /* \"#utility.yul\":10418:10438   */\n      sub\n        /* \"#utility.yul\":10414:10415   */\n      0x00\n        /* \"#utility.yul\":10403:10412   */\n      dup4\n        /* \"#utility.yul\":10399:10416   */\n      add\n        /* \"#utility.yul\":10392:10439   */\n      mstore\n        /* \"#utility.yul\":10456:10587   */\n      tag_235\n        /* \"#utility.yul\":10582:10586   */\n      dup2\n        /* \"#utility.yul\":10456:10587   */\n      tag_120\n      jump\t// in\n    tag_235:\n        /* \"#utility.yul\":10448:10587   */\n      swap1\n      pop\n        /* \"#utility.yul\":10175:10594   */\n      swap2\n      swap1\n      pop\n      jump\t// out\n        /* \"#utility.yul\":10600:10741   */\n    tag_121:\n        /* \"#utility.yul\":10649:10653   */\n      0x00\n        /* \"#utility.yul\":10672:10675   */\n      dup2\n        /* \"#utility.yul\":10664:10675   */\n      swap1\n      pop\n        /* \"#utility.yul\":10695:10698   */\n      dup2\n        /* \"#utility.yul\":10692:10693   */\n      0x00\n        /* \"#utility.yul\":10685:10699   */\n      mstore\n        /* \"#utility.yul\":10729:10733   */\n      0x20\n        /* \"#utility.yul\":10726:10727   */\n      0x00\n        /* \"#utility.yul\":10716:10734   */\n      keccak256\n        /* \"#utility.yul\":10708:10734   */\n      swap1\n      pop\n        /* \"#utility.yul\":10600:10741   */\n      swap2\n      swap1\n      pop\n      jump\t// out\n        /* \"#utility.yul\":10747:10840   */\n    tag_122:\n        /* \"#utility.yul\":10784:10790   */\n      0x00\n        /* \"#utility.yul\":10831:10833   */\n      0x20\n        /* \"#utility.yul\":10826:10828   */\n      0x1f\n        /* \"#utility.yul\":10819:10824   */\n      dup4\n        /* \"#utility.yul\":10815:10829   */\n      add\n        /* \"#utility.yul\":10811:10834   */\n      div\n        /* \"#utility.yul\":10801:10834   */\n      swap1\n      pop\n        /* \"#utility.yul\":10747:10840   */\n      swap2\n      swap1\n      pop\n      jump\t// out\n        /* \"#utility.yul\":10846:10953   */\n    tag_123:\n        /* \"#utility.yul\":10890:10898   */\n      0x00\n        /* \"#utility.yul\":10940:10945   */\n      dup3\n        /* \"#utility.yul\":10934:10938   */\n      dup3\n        /* \"#utility.yul\":10930:10946   */\n      shl\n        /* \"#utility.yul\":10909:10946   */\n      swap1\n      pop\n        /* \"#utility.yul\":10846:10953   */\n      swap3\n      swap2\n      pop\n      pop\n      jump\t// out\n        /* \"#utility.yul\":10959:11352   */\n    tag_124:\n        /* \"#utility.yul\":11028:11034   */\n      0x00\n        /* \"#utility.yul\":11078:11079   */\n      0x08\n        /* \"#utility.yul\":11066:11076   */\n      dup4\n        /* \"#utility.yul\":11062:11080   */\n      mul\n        /* \"#utility.yul\":11101:11198   */\n      tag_240\n        /* \"#utility.yul\":11131:11197   */\n      0xffffffffffffffffffffffffffffffffffffffffffffffffffffffffffffffff\n        /* \"#utility.yul\":11120:11129   */\n      dup3\n        /* \"#utility.yul\":11101:11198   */\n      tag_123\n      jump\t// in\n    tag_240:\n        /* \"#utility.yul\":11219:11258   */\n      tag_241\n        /* \"#utility.yul\":11249:11257   */\n      dup7\n        /* \"#utility.yul\":11238:11247   */\n      dup4\n        /* \"#utility.yul\":11219:11258   */\n      tag_123\n      jump\t// in\n    tag_241:\n        /* \"#utility.yul\":11207:11258   */\n      swap6\n      pop\n        /* \"#utility.yul\":11291:11295   */\n      dup1\n        /* \"#utility.yul\":11287:11296   */\n      not\n        /* \"#utility.yul\":11280:11285   */\n      dup5\n        /* \"#utility.yul\":11276:11297   */\n      and\n        /* \"#utility.yul\":11267:11297   */\n      swap4\n      pop\n        /* \"#utility.yul\":11340:11344   */\n      dup1\n        /* \"#utility.yul\":11330:11338   */\n      dup7\n        /* \"#utility.yul\":11326:11345   */\n      and\n        /* \"#utility.yul\":11319:11324   */\n      dup5\n        /* \"#utility.yul\":11316:11346   */\n      or\n        /* \"#utility.yul\":11306:11346   */\n      swap3\n      pop\n        /* \"#utility.yul\":11035:11352   */\n      pop\n      pop\n        /* \"#utility.yul\":10959:11352   */\n      swap4\n      swap3\n      pop\n      pop\n      pop\n      jump\t// out\n        /* \"#utility.yul\":11358:11418   */\n    tag_125:\n        /* \"#utility.yul\":11386:11389   */\n      0x00\n        /* \"#utility.yul\":11407:11412   */\n      dup2\n        /* \"#utility.yul\":11400:11412   */\n      swap1\n      pop\n        /* \"#utility.yul\":11358:11418   */\n      swap2\n      swap1\n      pop\n      jump\t// out\n        /* \"#utility.yul\":11424:11566   */\n    tag_126:\n        /* \"#utility.yul\":11474:11483   */\n      0x00\n        /* \"#utility.yul\":11507:11560   */\n      tag_244\n        /* \"#utility.yul\":11525:11559   */\n      tag_245\n        /* \"#utility.yul\":11534:11558   */\n      tag_246\n        /* \"#utility.yul\":11552:11557   */\n      dup5\n        /* \"#utility.yul\":11534:11558   */\n      tag_93\n      jump\t// in\n    tag_246:\n        /* \"#utility.yul\":11525:11559   */\n      tag_125\n      jump\t// in\n    tag_245:\n        /* \"#utility.yul\":11507:11560   */\n      tag_93\n      jump\t// in\n    tag_244:\n        /* \"#utility.yul\":11494:11560   */\n      swap1\n      pop\n        /* \"#utility.yul\":11424:11566   */\n      swap2\n      swap1\n      pop\n      jump\t// out\n        /* \"#utility.yul\":11572:11647   */\n    tag_127:\n        /* \"#utility.yul\":11615:11618   */\n      0x00\n        /* \"#utility.yul\":11636:11641   */\n      dup2\n        /* \"#utility.yul\":11629:11641   */\n      swap1\n      pop\n        /* \"#utility.yul\":11572:11647   */\n      swap2\n      swap1\n      pop\n      jump\t// out\n        /* \"#utility.yul\":11653:11922   */\n    tag_128:\n        /* \"#utility.yul\":11763:11802   */\n      tag_249\n        /* \"#utility.yul\":11794:11801   */\n      dup4\n        /* \"#utility.yul\":11763:11802   */\n      tag_126\n      jump\t// in\n    tag_249:\n        /* \"#utility.yul\":11824:11915   */\n      tag_250\n        /* \"#utility.yul\":11873:11914   */\n      tag_251\n        /* \"#utility.yul\":11897:11913   */\n      dup3\n        /* \"#utility.yul\":11873:11914   */\n      tag_127\n      jump\t// in\n    tag_251:\n        /* \"#utility.yul\":11865:11871   */\n      dup5\n        /* \"#utility.yul\":11858:11862   */\n      dup5\n        /* \"#utility.yul\":11852:11863   */\n      sload\n        /* \"#utility.yul\":11824:11915   */\n      tag_124\n      jump\t// in\n    tag_250:\n        /* \"#utility.yul\":11818:11822   */\n      dup3\n        /* \"#utility.yul\":11811:11916   */\n      sstore\n        /* \"#utility.yul\":11729:11922   */\n      pop\n        /* \"#utility.yul\":11653:11922   */\n      pop\n      pop\n      pop\n      jump\t// out\n        /* \"#utility.yul\":11928:12001   */\n    tag_129:\n        /* \"#utility.yul\":11973:11976   */\n      0x00\n        /* \"#utility.yul\":11994:11995   */\n      0x00\n        /* \"#utility.yul\":11987:11995   */\n      swap1\n      pop\n        /* \"#utility.yul\":11928:12001   */\n      swap1\n      jump\t// out\n        /* \"#utility.yul\":12007:12196   */\n    tag_130:\n        /* \"#utility.yul\":12084:12116   */\n      tag_254\n      tag_129\n      jump\t// in\n    tag_254:\n        /* \"#utility.yul\":12125:12190   */\n      tag_255\n        /* \"#utility.yul\":12183:12189   */\n      dup2\n        /* \"#utility.yul\":12175:12181   */\n      dup5\n        /* \"#utility.yul\":12169:12173   */\n      dup5\n        /* \"#utility.yul\":12125:12190   */\n      tag_128\n      jump\t// in\n    tag_255:\n        /* \"#utility.yul\":12060:12196   */\n      pop\n        /* \"#utility.yul\":12007:12196   */\n      pop\n      pop\n      jump\t// out\n        /* \"#utility.yul\":12202:12388   */\n    tag_131:\n        /* \"#utility.yul\":12262:12382   */\n    tag_257:\n        /* \"#utility.yul\":12279:12282   */\n      dup2\n        /* \"#utility.yul\":12272:12277   */\n      dup2\n        /* \"#utility.yul\":12269:12283   */\n      lt\n        /* \"#utility.yul\":12262:12382   */\n      iszero\n      tag_259\n      jumpi\n        /* \"#utility.yul\":12333:12372   */\n      tag_260\n        /* \"#utility.yul\":12370:12371   */\n      0x00\n        /* \"#utility.yul\":12363:12368   */\n      dup3\n        /* \"#utility.yul\":12333:12372   */\n      tag_130\n      jump\t// in\n    tag_260:\n        /* \"#utility.yul\":12306:12307   */\n      0x01\n        /* \"#utility.yul\":12299:12304   */\n      dup2\n        /* \"#utility.yul\":12295:12308   */\n      add\n        /* \"#utility.yul\":12286:12308   */\n      swap1\n      pop\n        /* \"#utility.yul\":12262:12382   */\n      jump(tag_257)\n    tag_259:\n        /* \"#utility.yul\":12202:12388   */\n      pop\n      pop\n      jump\t// out\n        /* \"#utility.yul\":12394:12937   */\n    tag_132:\n        /* \"#utility.yul\":12495:12497   */\n      0x1f\n        /* \"#utility.yul\":12490:12493   */\n      dup3\n        /* \"#utility.yul\":12487:12498   */\n      gt\n        /* \"#utility.yul\":12484:12930   */\n      iszero\n      tag_262\n      jumpi\n        /* \"#utility.yul\":12529:12567   */\n      tag_263\n        /* \"#utility.yul\":12561:12566   */\n      dup2\n        /* \"#utility.yul\":12529:12567   */\n      tag_121\n      jump\t// in\n    tag_263:\n        /* \"#utility.yul\":12613:12642   */\n      tag_264\n        /* \"#utility.yul\":12631:12641   */\n      dup5\n        /* \"#utility.yul\":12613:12642   */\n      tag_122\n      jump\t// in\n    tag_264:\n        /* \"#utility.yul\":12603:12611   */\n      dup2\n        /* \"#utility.yul\":12599:12643   */\n      add\n        /* \"#utility.yul\":12796:12798   */\n      0x20\n        /* \"#utility.yul\":12784:12794   */\n      dup6\n        /* \"#utility.yul\":12781:12799   */\n      lt\n        /* \"#utility.yul\":12778:12827   */\n      iszero\n      tag_265\n      jumpi\n        /* \"#utility.yul\":12817:12825   */\n      dup2\n        /* \"#utility.yul\":12802:12825   */\n      swap1\n      pop\n        /* \"#utility.yul\":12778:12827   */\n    tag_265:\n        /* \"#utility.yul\":12840:12920   */\n      tag_266\n        /* \"#utility.yul\":12896:12918   */\n      tag_267\n        /* \"#utility.yul\":12914:12917   */\n      dup6\n        /* \"#utility.yul\":12896:12918   */\n      tag_122\n      jump\t// in\n    tag_267:\n        /* \"#utility.yul\":12886:12894   */\n      dup4\n        /* \"#utility.yul\":12882:12919   */\n      add\n        /* \"#utility.yul\":12869:12880   */\n      dup3\n        /* \"#utility.yul\":12840:12920   */\n      tag_131\n      jump\t// in\n    tag_266:\n        /* \"#utility.yul\":12499:12930   */\n      pop\n      pop\n        /* \"#utility.yul\":12484:12930   */\n    tag_262:\n        /* \"#utility.yul\":12394:12937   */\n      pop\n      pop\n      pop\n      jump\t// out\n        /* \"#utility.yul\":12943:13060   */\n    tag_133:\n        /* \"#utility.yul\":12997:13005   */\n      0x00\n        /* \"#utility.yul\":13047:13052   */\n      dup3\n        /* \"#utility.yul\":13041:13045   */\n      dup3\n        /* \"#utility.yul\":13037:13053   */\n      shr\n        /* \"#utility.yul\":13016:13053   */\n      swap1\n      pop\n        /* \"#utility.yul\":12943:13060   */\n      swap3\n      swap2\n      pop\n      pop\n      jump\t// out\n        /* \"#utility.yul\":13066:13235   */\n    tag_134:\n        /* \"#utility.yul\":13110:13116   */\n      0x00\n        /* \"#utility.yul\":13143:13194   */\n      tag_270\n        /* \"#utility.yul\":13191:13192   */\n      0x00\n        /* \"#utility.yul\":13187:13193   */\n      not\n        /* \"#utility.yul\":13179:13184   */\n      dup5\n        /* \"#utility.yul\":13176:13177   */\n      0x08\n        /* \"#utility.yul\":13172:13185   */\n      mul\n        /* \"#utility.yul\":13143:13194   */\n      tag_133\n      jump\t// in\n    tag_270:\n        /* \"#utility.yul\":13139:13195   */\n      not\n        /* \"#utility.yul\":13224:13228   */\n      dup1\n        /* \"#utility.yul\":13218:13222   */\n      dup4\n        /* \"#utility.yul\":13214:13229   */\n      and\n        /* \"#utility.yul\":13204:13229   */\n      swap2\n      pop\n        /* \"#utility.yul\":13117:13235   */\n      pop\n        /* \"#utility.yul\":13066:13235   */\n      swap3\n      swap2\n      pop\n      pop\n      jump\t// out\n        /* \"#utility.yul\":13240:13535   */\n    tag_135:\n        /* \"#utility.yul\":13316:13320   */\n      0x00\n        /* \"#utility.yul\":13462:13491   */\n      tag_272\n        /* \"#utility.yul\":13487:13490   */\n      dup4\n        /* \"#utility.yul\":13481:13485   */\n      dup4\n        /* \"#utility.yul\":13462:13491   */\n      tag_134\n      jump\t// in\n    tag_272:\n        /* \"#utility.yul\":13454:13491   */\n      swap2\n      pop\n        /* \"#utility.yul\":13524:13527   */\n      dup3\n        /* \"#utility.yul\":13521:13522   */\n      0x02\n        /* \"#utility.yul\":13517:13528   */\n      mul\n        /* \"#utility.yul\":13511:13515   */\n      dup3\n        /* \"#utility.yul\":13508:13529   */\n      or\n        /* \"#utility.yul\":13500:13529   */\n      swap1\n      pop\n        /* \"#utility.yul\":13240:13535   */\n      swap3\n      swap2\n      pop\n      pop\n      jump\t// out\n        /* \"#utility.yul\":13540:14935   */\n    tag_86:\n        /* \"#utility.yul\":13657:13694   */\n      tag_274\n        /* \"#utility.yul\":13690:13693   */\n      dup3\n        /* \"#utility.yul\":13657:13694   */\n      tag_97\n      jump\t// in\n    tag_274:\n        /* \"#utility.yul\":13759:13777   */\n      0xffffffffffffffff\n        /* \"#utility.yul\":13751:13757   */\n      dup2\n        /* \"#utility.yul\":13748:13778   */\n      gt\n        /* \"#utility.yul\":13745:13801   */\n      iszero\n      tag_275\n      jumpi\n        /* \"#utility.yul\":13781:13799   */\n      tag_276\n      tag_107\n      jump\t// in\n    tag_276:\n        /* \"#utility.yul\":13745:13801   */\n    tag_275:\n        /* \"#utility.yul\":13825:13863   */\n      tag_277\n        /* \"#utility.yul\":13857:13861   */\n      dup3\n        /* \"#utility.yul\":13851:13862   */\n      sload\n        /* \"#utility.yul\":13825:13863   */\n      tag_43\n      jump\t// in\n    tag_277:\n        /* \"#utility.yul\":13910:13977   */\n      tag_278\n        /* \"#utility.yul\":13970:13976   */\n      dup3\n        /* \"#utility.yul\":13962:13968   */\n      dup3\n        /* \"#utility.yul\":13956:13960   */\n      dup6\n        /* \"#utility.yul\":13910:13977   */\n      tag_132\n      jump\t// in\n    tag_278:\n        /* \"#utility.yul\":14004:14005   */\n      0x00\n        /* \"#utility.yul\":14028:14032   */\n      0x20\n        /* \"#utility.yul\":14015:14032   */\n      swap1\n      pop\n        /* \"#utility.yul\":14060:14062   */\n      0x1f\n        /* \"#utility.yul\":14052:14058   */\n      dup4\n        /* \"#utility.yul\":14049:14063   */\n      gt\n        /* \"#utility.yul\":14077:14078   */\n      0x01\n        /* \"#utility.yul\":14072:14690   */\n      dup2\n      eq\n      tag_280\n      jumpi\n        /* \"#utility.yul\":14734:14735   */\n      0x00\n        /* \"#utility.yul\":14751:14757   */\n      dup5\n        /* \"#utility.yul\":14748:14825   */\n      iszero\n      tag_281\n      jumpi\n        /* \"#utility.yul\":14800:14809   */\n      dup3\n        /* \"#utility.yul\":14795:14798   */\n      dup8\n        /* \"#utility.yul\":14791:14810   */\n      add\n        /* \"#utility.yul\":14785:14811   */\n      mload\n        /* \"#utility.yul\":14776:14811   */\n      swap1\n      pop\n        /* \"#utility.yul\":14748:14825   */\n    tag_281:\n        /* \"#utility.yul\":14851:14918   */\n      tag_282\n        /* \"#utility.yul\":14911:14917   */\n      dup6\n        /* \"#utility.yul\":14904:14909   */\n      dup3\n        /* \"#utility.yul\":14851:14918   */\n      tag_135\n      jump\t// in\n    tag_282:\n        /* \"#utility.yul\":14845:14849   */\n      dup7\n        /* \"#utility.yul\":14838:14919   */\n      sstore\n        /* \"#utility.yul\":14707:14929   */\n      pop\n        /* \"#utility.yul\":14042:14929   */\n      jump(tag_279)\n        /* \"#utility.yul\":14072:14690   */\n    tag_280:\n        /* \"#utility.yul\":14124:14128   */\n      0x1f\n        /* \"#utility.yul\":14120:14129   */\n      not\n        /* \"#utility.yul\":14112:14118   */\n      dup5\n        /* \"#utility.yul\":14108:14130   */\n      and\n        /* \"#utility.yul\":14158:14195   */\n      tag_283\n        /* \"#utility.yul\":14190:14194   */\n      dup7\n        /* \"#utility.yul\":14158:14195   */\n      tag_121\n      jump\t// in\n    tag_283:\n        /* \"#utility.yul\":14217:14218   */\n      0x00\n        /* \"#utility.yul\":14231:14439   */\n    tag_284:\n        /* \"#utility.yul\":14245:14252   */\n      dup3\n        /* \"#utility.yul\":14242:14243   */\n      dup2\n        /* \"#utility.yul\":14239:14253   */\n      lt\n        /* \"#utility.yul\":14231:14439   */\n      iszero\n      tag_286\n      jumpi\n        /* \"#utility.yul\":14324:14333   */\n      dup5\n        /* \"#utility.yul\":14319:14322   */\n      dup10\n        /* \"#utility.yul\":14315:14334   */\n      add\n        /* \"#utility.yul\":14309:14335   */\n      mload\n        /* \"#utility.yul\":14301:14307   */\n      dup3\n        /* \"#utility.yul\":14294:14336   */\n      sstore\n        /* \"#utility.yul\":14375:14376   */\n      0x01\n        /* \"#utility.yul\":14367:14373   */\n      dup3\n        /* \"#utility.yul\":14363:14377   */\n      add\n        /* \"#utility.yul\":14353:14377   */\n      swap2\n      pop\n        /* \"#utility.yul\":14422:14424   */\n      0x20\n        /* \"#utility.yul\":14411:14420   */\n      dup6\n        /* \"#utility.yul\":14407:14425   */\n      add\n        /* \"#utility.yul\":14394:14425   */\n      swap5\n      pop\n        /* \"#utility.yul\":14268:14272   */\n      0x20\n        /* \"#utility.yul\":14265:14266   */\n      dup2\n        /* \"#utility.yul\":14261:14273   */\n      add\n        /* \"#utility.yul\":14256:14273   */\n      swap1\n      pop\n        /* \"#utility.yul\":14231:14439   */\n      jump(tag_284)\n    tag_286:\n        /* \"#utility.yul\":14467:14473   */\n      dup7\n        /* \"#utility.yul\":14458:14465   */\n      dup4\n        /* \"#utility.yul\":14455:14474   */\n      lt\n        /* \"#utility.yul\":14452:14631   */\n      iszero\n      tag_287\n      jumpi\n        /* \"#utility.yul\":14525:14534   */\n      dup5\n        /* \"#utility.yul\":14520:14523   */\n      dup10\n        /* \"#utility.yul\":14516:14535   */\n      add\n        /* \"#utility.yul\":14510:14536   */\n      mload\n        /* \"#utility.yul\":14568:14616   */\n      tag_288\n        /* \"#utility.yul\":14610:14614   */\n      0x1f\n        /* \"#utility.yul\":14602:14608   */\n      dup10\n        /* \"#utility.yul\":14598:14615   */\n      and\n        /* \"#utility.yul\":14587:14596   */\n      dup3\n        /* \"#utility.yul\":14568:14616   */\n      tag_134\n      jump\t// in\n    tag_288:\n        /* \"#utility.yul\":14560:14566   */\n      dup4\n        /* \"#utility.yul\":14553:14617   */\n      sstore\n        /* \"#utility.yul\":14475:14631   */\n      pop\n        /* \"#utility.yul\":14452:14631   */\n    tag_287:\n        /* \"#utility.yul\":14677:14678   */\n      0x01\n        /* \"#utility.yul\":14673:14674   */\n      0x02\n        /* \"#utility.yul\":14665:14671   */\n      dup9\n        /* \"#utility.yul\":14661:14675   */\n      mul\n        /* \"#utility.yul\":14657:14679   */\n      add\n        /* \"#utility.yul\":14651:14655   */\n      dup9\n        /* \"#utility.yul\":14644:14680   */\n      sstore\n        /* \"#utility.yul\":14079:14690   */\n      pop\n      pop\n      pop\n        /* \"#utility.yul\":14042:14929   */\n    tag_279:\n      pop\n        /* \"#utility.yul\":13632:14935   */\n      pop\n      pop\n      pop\n        /* \"#utility.yul\":13540:14935   */\n      pop\n      pop\n      jump\t// out\n\n    auxdata: 0xa26469706673582212209b4c5b279ded184370ca1cd4b7b08718e52d547a5e918a6150184ddb1113f01664736f6c634300081e0033\n}\n",
				"bytecode": {
					"linkReferences": {},
					"object": "6080604052348015600e575f5ffd5b503360015f6101000a81548173ffffffffffffffffffffffffffffffffffffffff021916908373ffffffffffffffffffffffffffffffffffffffff160217905550610f308061005c5f395ff3fe608060405234801561000f575f5ffd5b5060043610610060575f3560e01c806303e9e609146100645780630aeacb5e146100975780637d4cb964146100b55780638da5cb5b146100d3578063c8592e0b146100f1578063d4001ef214610124575b5f5ffd5b61007e60048036038101906100799190610786565b610140565b60405161008e9493929190610830565b60405180910390f35b61009f610395565b6040516100ac9190610888565b60405180910390f35b6100bd6103a0565b6040516100ca9190610888565b60405180910390f35b6100db6103a5565b6040516100e891906108e0565b60405180910390f35b61010b60048036038101906101069190610786565b6103ca565b60405161011b9493929190610830565b60405180910390f35b61013e60048036038101906101399190610a25565b610596565b005b5f60608060605f80549050851061018c576040517f08c379a000000000000000000000000000000000000000000000000000000000815260040161018390610b13565b60405180910390fd5b5f5f86815481106101a05761019f610b31565b5b905f5260205f2090600402016040518060800160405290815f82015481526020016001820180546101d090610b8b565b80601f01602080910402602001604051908101604052809291908181526020018280546101fc90610b8b565b80156102475780601f1061021e57610100808354040283529160200191610247565b820191905f5260205f20905b81548152906001019060200180831161022a57829003601f168201915b5050505050815260200160028201805461026090610b8b565b80601f016020809104026020016040519081016040528092919081815260200182805461028c90610b8b565b80156102d75780601f106102ae576101008083540402835291602001916102d7565b820191905f5260205f20905b8154815290600101906020018083116102ba57829003601f168201915b505050505081526020016003820180546102f090610b8b565b80601f016020809104026020016040519081016040528092919081815260200182805461031c90610b8b565b80156103675780601f1061033e57610100808354040283529160200191610367565b820191905f5260205f20905b81548152906001019060200180831161034a57829003601f168201915b5050505050815250509050805f01518160200151826040015183606001519450945094509450509193509193565b5f5f80549050905090565b606481565b60015f9054906101000a900473ffffffffffffffffffffffffffffffffffffffff1681565b5f81815481106103d8575f80fd5b905f5260205f2090600402015f91509050805f0154908060010180546103fd90610b8b565b80601f016020809104026020016040519081016040528092919081815260200182805461042990610b8b565b80156104745780601f1061044b57610100808354040283529160200191610474565b820191905f5260205f20905b81548152906001019060200180831161045757829003601f168201915b50505050509080600201805461048990610b8b565b80601f01602080910402602001604051908101604052809291908181526020018280546104b590610b8b565b80156105005780601f106104d757610100808354040283529160200191610500565b820191905f5260205f20905b8154815290600101906020018083116104e357829003601f168201915b50505050509080600301805461051590610b8b565b80601f016020809104026020016040519081016040528092919081815260200182805461054190610b8b565b801561058c5780601f106105635761010080835404028352916020019161058c565b820191905f5260205f20905b81548152906001019060200180831161056f57829003601f168201915b5050505050905084565b60015f9054906101000a900473ffffffffffffffffffffffffffffffffffffffff1673ffffffffffffffffffffffffffffffffffffffff163373ffffffffffffffffffffffffffffffffffffffff1614610625576040517f08c379a000000000000000000000000000000000000000000000000000000000815260040161061c90610c05565b60405180910390fd5b60645f805490501061066c576040517f08c379a000000000000000000000000000000000000000000000000000000000815260040161066390610c6d565b60405180910390fd5b5f604051806080016040528042815260200185815260200184815260200183815250908060018154018082558091505060019003905f5260205f2090600402015f909190919091505f820151815f015560208201518160010190816106d19190610e2b565b5060408201518160020190816106e79190610e2b565b5060608201518160030190816106fd9190610e2b565b5050507fc27557253cfa793c3de4beda3cf3aad78548fbff6f148459c5d4e26e97d6e258428484846040516107359493929190610830565b60405180910390a1505050565b5f604051905090565b5f5ffd5b5f5ffd5b5f819050919050565b61076581610753565b811461076f575f5ffd5b50565b5f813590506107808161075c565b92915050565b5f6020828403121561079b5761079a61074b565b5b5f6107a884828501610772565b91505092915050565b6107ba81610753565b82525050565b5f81519050919050565b5f82825260208201905092915050565b8281835e5f83830152505050565b5f601f19601f8301169050919050565b5f610802826107c0565b61080c81856107ca565b935061081c8185602086016107da565b610825816107e8565b840191505092915050565b5f6080820190506108435f8301876107b1565b818103602083015261085581866107f8565b9050818103604083015261086981856107f8565b9050818103606083015261087d81846107f8565b905095945050505050565b5f60208201905061089b5f8301846107b1565b92915050565b5f73ffffffffffffffffffffffffffffffffffffffff82169050919050565b5f6108ca826108a1565b9050919050565b6108da816108c0565b82525050565b5f6020820190506108f35f8301846108d1565b92915050565b5f5ffd5b5f5ffd5b7f4e487b71000000000000000000000000000000000000000000000000000000005f52604160045260245ffd5b610937826107e8565b810181811067ffffffffffffffff8211171561095657610955610901565b5b80604052505050565b5f610968610742565b9050610974828261092e565b919050565b5f67ffffffffffffffff82111561099357610992610901565b5b61099c826107e8565b9050602081019050919050565b828183375f83830152505050565b5f6109c96109c484610979565b61095f565b9050828152602081018484840111156109e5576109e46108fd565b5b6109f08482856109a9565b509392505050565b5f82601f830112610a0c57610a0b6108f9565b5b8135610a1c8482602086016109b7565b91505092915050565b5f5f5f60608486031215610a3c57610a3b61074b565b5b5f84013567ffffffffffffffff811115610a5957610a5861074f565b5b610a65868287016109f8565b935050602084013567ffffffffffffffff811115610a8657610a8561074f565b5b610a92868287016109f8565b925050604084013567ffffffffffffffff811115610ab357610ab261074f565b5b610abf868287016109f8565b9150509250925092565b7f496e646578206f7574206f6620626f756e6473000000000000000000000000005f82015250565b5f610afd6013836107ca565b9150610b0882610ac9565b602082019050919050565b5f6020820190508181035f830152610b2a81610af1565b9050919050565b7f4e487b71000000000000000000000000000000000000000000000000000000005f52603260045260245ffd5b7f4e487b71000000000000000000000000000000000000000000000000000000005f52602260045260245ffd5b5f6002820490506001821680610ba257607f821691505b602082108103610bb557610bb4610b5e565b5b50919050565b7f4e6f7420617574686f72697a65640000000000000000000000000000000000005f82015250565b5f610bef600e836107ca565b9150610bfa82610bbb565b602082019050919050565b5f6020820190508181035f830152610c1c81610be3565b9050919050565b7f53746f72616765206c696d6974207265616368656400000000000000000000005f82015250565b5f610c576015836107ca565b9150610c6282610c23565b602082019050919050565b5f6020820190508181035f830152610c8481610c4b565b9050919050565b5f819050815f5260205f209050919050565b5f6020601f8301049050919050565b5f82821b905092915050565b5f60088302610ce77fffffffffffffffffffffffffffffffffffffffffffffffffffffffffffffffff82610cac565b610cf18683610cac565b95508019841693508086168417925050509392505050565b5f819050919050565b5f610d2c610d27610d2284610753565b610d09565b610753565b9050919050565b5f819050919050565b610d4583610d12565b610d59610d5182610d33565b848454610cb8565b825550505050565b5f5f905090565b610d70610d61565b610d7b818484610d3c565b505050565b5b81811015610d9e57610d935f82610d68565b600181019050610d81565b5050565b601f821115610de357610db481610c8b565b610dbd84610c9d565b81016020851015610dcc578190505b610de0610dd885610c9d565b830182610d80565b50505b505050565b5f82821c905092915050565b5f610e035f1984600802610de8565b1980831691505092915050565b5f610e1b8383610df4565b9150826002028217905092915050565b610e34826107c0565b67ffffffffffffffff811115610e4d57610e4c610901565b5b610e578254610b8b565b610e62828285610da2565b5f60209050601f831160018114610e93575f8415610e81578287015190505b610e8b8582610e10565b865550610ef2565b601f198416610ea186610c8b565b5f5b82811015610ec857848901518255600182019150602085019450602081019050610ea3565b86831015610ee55784890151610ee1601f891682610df4565b8355505b6001600288020188555050505b50505050505056fea26469706673582212209b4c5b279ded184370ca1cd4b7b08718e52d547a5e918a6150184ddb1113f01664736f6c634300081e0033",
					"opcodes": "PUSH1 0x80 PUSH1 0x40 MSTORE CALLVALUE DUP1 ISZERO PUSH1 0xE JUMPI PUSH0 PUSH0 REVERT JUMPDEST POP CALLER PUSH1 0x1 PUSH0 PUSH2 0x100 EXP DUP2 SLOAD DUP2 PUSH20 0xFFFFFFFFFFFFFFFFFFFFFFFFFFFFFFFFFFFFFFFF MUL NOT AND SWAP1 DUP4 PUSH20 0xFFFFFFFFFFFFFFFFFFFFFFFFFFFFFFFFFFFFFFFF AND MUL OR SWAP1 SSTORE POP PUSH2 0xF30 DUP1 PUSH2 0x5C PUSH0 CODECOPY PUSH0 RETURN INVALID PUSH1 0x80 PUSH1 0x40 MSTORE CALLVALUE DUP1 ISZERO PUSH2 0xF JUMPI PUSH0 PUSH0 REVERT JUMPDEST POP PUSH1 0x4 CALLDATASIZE LT PUSH2 0x60 JUMPI PUSH0 CALLDATALOAD PUSH1 0xE0 SHR DUP1 PUSH4 0x3E9E609 EQ PUSH2 0x64 JUMPI DUP1 PUSH4 0xAEACB5E EQ PUSH2 0x97 JUMPI DUP1 PUSH4 0x7D4CB964 EQ PUSH2 0xB5 JUMPI DUP1 PUSH4 0x8DA5CB5B EQ PUSH2 0xD3 JUMPI DUP1 PUSH4 0xC8592E0B EQ PUSH2 0xF1 JUMPI DUP1 PUSH4 0xD4001EF2 EQ PUSH2 0x124 JUMPI JUMPDEST PUSH0 PUSH0 REVERT JUMPDEST PUSH2 0x7E PUSH1 0x4 DUP1 CALLDATASIZE SUB DUP2 ADD SWAP1 PUSH2 0x79 SWAP2 SWAP1 PUSH2 0x786 JUMP JUMPDEST PUSH2 0x140 JUMP JUMPDEST PUSH1 0x40 MLOAD PUSH2 0x8E SWAP5 SWAP4 SWAP3 SWAP2 SWAP1 PUSH2 0x830 JUMP JUMPDEST PUSH1 0x40 MLOAD DUP1 SWAP2 SUB SWAP1 RETURN JUMPDEST PUSH2 0x9F PUSH2 0x395 JUMP JUMPDEST PUSH1 0x40 MLOAD PUSH2 0xAC SWAP2 SWAP1 PUSH2 0x888 JUMP JUMPDEST PUSH1 0x40 MLOAD DUP1 SWAP2 SUB SWAP1 RETURN JUMPDEST PUSH2 0xBD PUSH2 0x3A0 JUMP JUMPDEST PUSH1 0x40 MLOAD PUSH2 0xCA SWAP2 SWAP1 PUSH2 0x888 JUMP JUMPDEST PUSH1 0x40 MLOAD DUP1 SWAP2 SUB SWAP1 RETURN JUMPDEST PUSH2 0xDB PUSH2 0x3A5 JUMP JUMPDEST PUSH1 0x40 MLOAD PUSH2 0xE8 SWAP2 SWAP1 PUSH2 0x8E0 JUMP JUMPDEST PUSH1 0x40 MLOAD DUP1 SWAP2 SUB SWAP1 RETURN JUMPDEST PUSH2 0x10B PUSH1 0x4 DUP1 CALLDATASIZE SUB DUP2 ADD SWAP1 PUSH2 0x106 SWAP2 SWAP1 PUSH2 0x786 JUMP JUMPDEST PUSH2 0x3CA JUMP JUMPDEST PUSH1 0x40 MLOAD PUSH2 0x11B SWAP5 SWAP4 SWAP3 SWAP2 SWAP1 PUSH2 0x830 JUMP JUMPDEST PUSH1 0x40 MLOAD DUP1 SWAP2 SUB SWAP1 RETURN JUMPDEST PUSH2 0x13E PUSH1 0x4 DUP1 CALLDATASIZE SUB DUP2 ADD SWAP1 PUSH2 0x139 SWAP2 SWAP1 PUSH2 0xA25 JUMP JUMPDEST PUSH2 0x596 JUMP JUMPDEST STOP JUMPDEST PUSH0 PUSH1 0x60 DUP1 PUSH1 0x60 PUSH0 DUP1 SLOAD SWAP1 POP DUP6 LT PUSH2 0x18C JUMPI PUSH1 0x40 MLOAD PUSH32 0x8C379A000000000000000000000000000000000000000000000000000000000 DUP2 MSTORE PUSH1 0x4 ADD PUSH2 0x183 SWAP1 PUSH2 0xB13 JUMP JUMPDEST PUSH1 0x40 MLOAD DUP1 SWAP2 SUB SWAP1 REVERT JUMPDEST PUSH0 PUSH0 DUP7 DUP2 SLOAD DUP2 LT PUSH2 0x1A0 JUMPI PUSH2 0x19F PUSH2 0xB31 JUMP JUMPDEST JUMPDEST SWAP1 PUSH0 MSTORE PUSH1 0x20 PUSH0 KECCAK256 SWAP1 PUSH1 0x4 MUL ADD PUSH1 0x40 MLOAD DUP1 PUSH1 0x80 ADD PUSH1 0x40 MSTORE SWAP1 DUP2 PUSH0 DUP3 ADD SLOAD DUP2 MSTORE PUSH1 0x20 ADD PUSH1 0x1 DUP3 ADD DUP1 SLOAD PUSH2 0x1D0 SWAP1 PUSH2 0xB8B JUMP JUMPDEST DUP1 PUSH1 0x1F ADD PUSH1 0x20 DUP1 SWAP2 DIV MUL PUSH1 0x20 ADD PUSH1 0x40 MLOAD SWAP1 DUP2 ADD PUSH1 0x40 MSTORE DUP1 SWAP3 SWAP2 SWAP1 DUP2 DUP2 MSTORE PUSH1 0x20 ADD DUP3 DUP1 SLOAD PUSH2 0x1FC SWAP1 PUSH2 0xB8B JUMP JUMPDEST DUP1 ISZERO PUSH2 0x247 JUMPI DUP1 PUSH1 0x1F LT PUSH2 0x21E JUMPI PUSH2 0x100 DUP1 DUP4 SLOAD DIV MUL DUP4 MSTORE SWAP2 PUSH1 0x20 ADD SWAP2 PUSH2 0x247 JUMP JUMPDEST DUP3 ADD SWAP2 SWAP1 PUSH0 MSTORE PUSH1 0x20 PUSH0 KECCAK256 SWAP1 JUMPDEST DUP2 SLOAD DUP2 MSTORE SWAP1 PUSH1 0x1 ADD SWAP1 PUSH1 0x20 ADD DUP1 DUP4 GT PUSH2 0x22A JUMPI DUP3 SWAP1 SUB PUSH1 0x1F AND DUP3 ADD SWAP2 JUMPDEST POP POP POP POP POP DUP2 MSTORE PUSH1 0x20 ADD PUSH1 0x2 DUP3 ADD DUP1 SLOAD PUSH2 0x260 SWAP1 PUSH2 0xB8B JUMP JUMPDEST DUP1 PUSH1 0x1F ADD PUSH1 0x20 DUP1 SWAP2 DIV MUL PUSH1 0x20 ADD PUSH1 0x40 MLOAD SWAP1 DUP2 ADD PUSH1 0x40 MSTORE DUP1 SWAP3 SWAP2 SWAP1 DUP2 DUP2 MSTORE PUSH1 0x20 ADD DUP3 DUP1 SLOAD PUSH2 0x28C SWAP1 PUSH2 0xB8B JUMP JUMPDEST DUP1 ISZERO PUSH2 0x2D7 JUMPI DUP1 PUSH1 0x1F LT PUSH2 0x2AE JUMPI PUSH2 0x100 DUP1 DUP4 SLOAD DIV MUL DUP4 MSTORE SWAP2 PUSH1 0x20 ADD SWAP2 PUSH2 0x2D7 JUMP JUMPDEST DUP3 ADD SWAP2 SWAP1 PUSH0 MSTORE PUSH1 0x20 PUSH0 KECCAK256 SWAP1 JUMPDEST DUP2 SLOAD DUP2 MSTORE SWAP1 PUSH1 0x1 ADD SWAP1 PUSH1 0x20 ADD DUP1 DUP4 GT PUSH2 0x2BA JUMPI DUP3 SWAP1 SUB PUSH1 0x1F AND DUP3 ADD SWAP2 JUMPDEST POP POP POP POP POP DUP2 MSTORE PUSH1 0x20 ADD PUSH1 0x3 DUP3 ADD DUP1 SLOAD PUSH2 0x2F0 SWAP1 PUSH2 0xB8B JUMP JUMPDEST DUP1 PUSH1 0x1F ADD PUSH1 0x20 DUP1 SWAP2 DIV MUL PUSH1 0x20 ADD PUSH1 0x40 MLOAD SWAP1 DUP2 ADD PUSH1 0x40 MSTORE DUP1 SWAP3 SWAP2 SWAP1 DUP2 DUP2 MSTORE PUSH1 0x20 ADD DUP3 DUP1 SLOAD PUSH2 0x31C SWAP1 PUSH2 0xB8B JUMP JUMPDEST DUP1 ISZERO PUSH2 0x367 JUMPI DUP1 PUSH1 0x1F LT PUSH2 0x33E JUMPI PUSH2 0x100 DUP1 DUP4 SLOAD DIV MUL DUP4 MSTORE SWAP2 PUSH1 0x20 ADD SWAP2 PUSH2 0x367 JUMP JUMPDEST DUP3 ADD SWAP2 SWAP1 PUSH0 MSTORE PUSH1 0x20 PUSH0 KECCAK256 SWAP1 JUMPDEST DUP2 SLOAD DUP2 MSTORE SWAP1 PUSH1 0x1 ADD SWAP1 PUSH1 0x20 ADD DUP1 DUP4 GT PUSH2 0x34A JUMPI DUP3 SWAP1 SUB PUSH1 0x1F AND DUP3 ADD SWAP2 JUMPDEST POP POP POP POP POP DUP2 MSTORE POP POP SWAP1 POP DUP1 PUSH0 ADD MLOAD DUP2 PUSH1 0x20 ADD MLOAD DUP3 PUSH1 0x40 ADD MLOAD DUP4 PUSH1 0x60 ADD MLOAD SWAP5 POP SWAP5 POP SWAP5 POP SWAP5 POP POP SWAP2 SWAP4 POP SWAP2 SWAP4 JUMP JUMPDEST PUSH0 PUSH0 DUP1 SLOAD SWAP1 POP SWAP1 POP SWAP1 JUMP JUMPDEST PUSH1 0x64 DUP2 JUMP JUMPDEST PUSH1 0x1 PUSH0 SWAP1 SLOAD SWAP1 PUSH2 0x100 EXP SWAP1 DIV PUSH20 0xFFFFFFFFFFFFFFFFFFFFFFFFFFFFFFFFFFFFFFFF AND DUP2 JUMP JUMPDEST PUSH0 DUP2 DUP2 SLOAD DUP2 LT PUSH2 0x3D8 JUMPI PUSH0 DUP1 REVERT JUMPDEST SWAP1 PUSH0 MSTORE PUSH1 0x20 PUSH0 KECCAK256 SWAP1 PUSH1 0x4 MUL ADD PUSH0 SWAP2 POP SWAP1 POP DUP1 PUSH0 ADD SLOAD SWAP1 DUP1 PUSH1 0x1 ADD DUP1 SLOAD PUSH2 0x3FD SWAP1 PUSH2 0xB8B JUMP JUMPDEST DUP1 PUSH1 0x1F ADD PUSH1 0x20 DUP1 SWAP2 DIV MUL PUSH1 0x20 ADD PUSH1 0x40 MLOAD SWAP1 DUP2 ADD PUSH1 0x40 MSTORE DUP1 SWAP3 SWAP2 SWAP1 DUP2 DUP2 MSTORE PUSH1 0x20 ADD DUP3 DUP1 SLOAD PUSH2 0x429 SWAP1 PUSH2 0xB8B JUMP JUMPDEST DUP1 ISZERO PUSH2 0x474 JUMPI DUP1 PUSH1 0x1F LT PUSH2 0x44B JUMPI PUSH2 0x100 DUP1 DUP4 SLOAD DIV MUL DUP4 MSTORE SWAP2 PUSH1 0x20 ADD SWAP2 PUSH2 0x474 JUMP JUMPDEST DUP3 ADD SWAP2 SWAP1 PUSH0 MSTORE PUSH1 0x20 PUSH0 KECCAK256 SWAP1 JUMPDEST DUP2 SLOAD DUP2 MSTORE SWAP1 PUSH1 0x1 ADD SWAP1 PUSH1 0x20 ADD DUP1 DUP4 GT PUSH2 0x457 JUMPI DUP3 SWAP1 SUB PUSH1 0x1F AND DUP3 ADD SWAP2 JUMPDEST POP POP POP POP POP SWAP1 DUP1 PUSH1 0x2 ADD DUP1 SLOAD PUSH2 0x489 SWAP1 PUSH2 0xB8B JUMP JUMPDEST DUP1 PUSH1 0x1F ADD PUSH1 0x20 DUP1 SWAP2 DIV MUL PUSH1 0x20 ADD PUSH1 0x40 MLOAD SWAP1 DUP2 ADD PUSH1 0x40 MSTORE DUP1 SWAP3 SWAP2 SWAP1 DUP2 DUP2 MSTORE PUSH1 0x20 ADD DUP3 DUP1 SLOAD PUSH2 0x4B5 SWAP1 PUSH2 0xB8B JUMP JUMPDEST DUP1 ISZERO PUSH2 0x500 JUMPI DUP1 PUSH1 0x1F LT PUSH2 0x4D7 JUMPI PUSH2 0x100 DUP1 DUP4 SLOAD DIV MUL DUP4 MSTORE SWAP2 PUSH1 0x20 ADD SWAP2 PUSH2 0x500 JUMP JUMPDEST DUP3 ADD SWAP2 SWAP1 PUSH0 MSTORE PUSH1 0x20 PUSH0 KECCAK256 SWAP1 JUMPDEST DUP2 SLOAD DUP2 MSTORE SWAP1 PUSH1 0x1 ADD SWAP1 PUSH1 0x20 ADD DUP1 DUP4 GT PUSH2 0x4E3 JUMPI DUP3 SWAP1 SUB PUSH1 0x1F AND DUP3 ADD SWAP2 JUMPDEST POP POP POP POP POP SWAP1 DUP1 PUSH1 0x3 ADD DUP1 SLOAD PUSH2 0x515 SWAP1 PUSH2 0xB8B JUMP JUMPDEST DUP1 PUSH1 0x1F ADD PUSH1 0x20 DUP1 SWAP2 DIV MUL PUSH1 0x20 ADD PUSH1 0x40 MLOAD SWAP1 DUP2 ADD PUSH1 0x40 MSTORE DUP1 SWAP3 SWAP2 SWAP1 DUP2 DUP2 MSTORE PUSH1 0x20 ADD DUP3 DUP1 SLOAD PUSH2 0x541 SWAP1 PUSH2 0xB8B JUMP JUMPDEST DUP1 ISZERO PUSH2 0x58C JUMPI DUP1 PUSH1 0x1F LT PUSH2 0x563 JUMPI PUSH2 0x100 DUP1 DUP4 SLOAD DIV MUL DUP4 MSTORE SWAP2 PUSH1 0x20 ADD SWAP2 PUSH2 0x58C JUMP JUMPDEST DUP3 ADD SWAP2 SWAP1 PUSH0 MSTORE PUSH1 0x20 PUSH0 KECCAK256 SWAP1 JUMPDEST DUP2 SLOAD DUP2 MSTORE SWAP1 PUSH1 0x1 ADD SWAP1 PUSH1 0x20 ADD DUP1 DUP4 GT PUSH2 0x56F JUMPI DUP3 SWAP1 SUB PUSH1 0x1F AND DUP3 ADD SWAP2 JUMPDEST POP POP POP POP POP SWAP1 POP DUP5 JUMP JUMPDEST PUSH1 0x1 PUSH0 SWAP1 SLOAD SWAP1 PUSH2 0x100 EXP SWAP1 DIV PUSH20 0xFFFFFFFFFFFFFFFFFFFFFFFFFFFFFFFFFFFFFFFF AND PUSH20 0xFFFFFFFFFFFFFFFFFFFFFFFFFFFFFFFFFFFFFFFF AND CALLER PUSH20 0xFFFFFFFFFFFFFFFFFFFFFFFFFFFFFFFFFFFFFFFF AND EQ PUSH2 0x625 JUMPI PUSH1 0x40 MLOAD PUSH32 0x8C379A000000000000000000000000000000000000000000000000000000000 DUP2 MSTORE PUSH1 0x4 ADD PUSH2 0x61C SWAP1 PUSH2 0xC05 JUMP JUMPDEST PUSH1 0x40 MLOAD DUP1 SWAP2 SUB SWAP1 REVERT JUMPDEST PUSH1 0x64 PUSH0 DUP1 SLOAD SWAP1 POP LT PUSH2 0x66C JUMPI PUSH1 0x40 MLOAD PUSH32 0x8C379A000000000000000000000000000000000000000000000000000000000 DUP2 MSTORE PUSH1 0x4 ADD PUSH2 0x663 SWAP1 PUSH2 0xC6D JUMP JUMPDEST PUSH1 0x40 MLOAD DUP1 SWAP2 SUB SWAP1 REVERT JUMPDEST PUSH0 PUSH1 0x40 MLOAD DUP1 PUSH1 0x80 ADD PUSH1 0x40 MSTORE DUP1 TIMESTAMP DUP2 MSTORE PUSH1 0x20 ADD DUP6 DUP2 MSTORE PUSH1 0x20 ADD DUP5 DUP2 MSTORE PUSH1 0x20 ADD DUP4 DUP2 MSTORE POP SWAP1 DUP1 PUSH1 0x1 DUP2 SLOAD ADD DUP1 DUP3 SSTORE DUP1 SWAP2 POP POP PUSH1 0x1 SWAP1 SUB SWAP1 PUSH0 MSTORE PUSH1 0x20 PUSH0 KECCAK256 SWAP1 PUSH1 0x4 MUL ADD PUSH0 SWAP1 SWAP2 SWAP1 SWAP2 SWAP1 SWAP2 POP PUSH0 DUP3 ADD MLOAD DUP2 PUSH0 ADD SSTORE PUSH1 0x20 DUP3 ADD MLOAD DUP2 PUSH1 0x1 ADD SWAP1 DUP2 PUSH2 0x6D1 SWAP2 SWAP1 PUSH2 0xE2B JUMP JUMPDEST POP PUSH1 0x40 DUP3 ADD MLOAD DUP2 PUSH1 0x2 ADD SWAP1 DUP2 PUSH2 0x6E7 SWAP2 SWAP1 PUSH2 0xE2B JUMP JUMPDEST POP PUSH1 0x60 DUP3 ADD MLOAD DUP2 PUSH1 0x3 ADD SWAP1 DUP2 PUSH2 0x6FD SWAP2 SWAP1 PUSH2 0xE2B JUMP JUMPDEST POP POP POP PUSH32 0xC27557253CFA793C3DE4BEDA3CF3AAD78548FBFF6F148459C5D4E26E97D6E258 TIMESTAMP DUP5 DUP5 DUP5 PUSH1 0x40 MLOAD PUSH2 0x735 SWAP5 SWAP4 SWAP3 SWAP2 SWAP1 PUSH2 0x830 JUMP JUMPDEST PUSH1 0x40 MLOAD DUP1 SWAP2 SUB SWAP1 LOG1 POP POP POP JUMP JUMPDEST PUSH0 PUSH1 0x40 MLOAD SWAP1 POP SWAP1 JUMP JUMPDEST PUSH0 PUSH0 REVERT JUMPDEST PUSH0 PUSH0 REVERT JUMPDEST PUSH0 DUP2 SWAP1 POP SWAP2 SWAP1 POP JUMP JUMPDEST PUSH2 0x765 DUP2 PUSH2 0x753 JUMP JUMPDEST DUP2 EQ PUSH2 0x76F JUMPI PUSH0 PUSH0 REVERT JUMPDEST POP JUMP JUMPDEST PUSH0 DUP2 CALLDATALOAD SWAP1 POP PUSH2 0x780 DUP2 PUSH2 0x75C JUMP JUMPDEST SWAP3 SWAP2 POP POP JUMP JUMPDEST PUSH0 PUSH1 0x20 DUP3 DUP5 SUB SLT ISZERO PUSH2 0x79B JUMPI PUSH2 0x79A PUSH2 0x74B JUMP JUMPDEST JUMPDEST PUSH0 PUSH2 0x7A8 DUP5 DUP3 DUP6 ADD PUSH2 0x772 JUMP JUMPDEST SWAP2 POP POP SWAP3 SWAP2 POP POP JUMP JUMPDEST PUSH2 0x7BA DUP2 PUSH2 0x753 JUMP JUMPDEST DUP3 MSTORE POP POP JUMP JUMPDEST PUSH0 DUP2 MLOAD SWAP1 POP SWAP2 SWAP1 POP JUMP JUMPDEST PUSH0 DUP3 DUP3 MSTORE PUSH1 0x20 DUP3 ADD SWAP1 POP SWAP3 SWAP2 POP POP JUMP JUMPDEST DUP3 DUP2 DUP4 MCOPY PUSH0 DUP4 DUP4 ADD MSTORE POP POP POP JUMP JUMPDEST PUSH0 PUSH1 0x1F NOT PUSH1 0x1F DUP4 ADD AND SWAP1 POP SWAP2 SWAP1 POP JUMP JUMPDEST PUSH0 PUSH2 0x802 DUP3 PUSH2 0x7C0 JUMP JUMPDEST PUSH2 0x80C DUP2 DUP6 PUSH2 0x7CA JUMP JUMPDEST SWAP4 POP PUSH2 0x81C DUP2 DUP6 PUSH1 0x20 DUP7 ADD PUSH2 0x7DA JUMP JUMPDEST PUSH2 0x825 DUP2 PUSH2 0x7E8 JUMP JUMPDEST DUP5 ADD SWAP2 POP POP SWAP3 SWAP2 POP POP JUMP JUMPDEST PUSH0 PUSH1 0x80 DUP3 ADD SWAP1 POP PUSH2 0x843 PUSH0 DUP4 ADD DUP8 PUSH2 0x7B1 JUMP JUMPDEST DUP2 DUP2 SUB PUSH1 0x20 DUP4 ADD MSTORE PUSH2 0x855 DUP2 DUP7 PUSH2 0x7F8 JUMP JUMPDEST SWAP1 POP DUP2 DUP2 SUB PUSH1 0x40 DUP4 ADD MSTORE PUSH2 0x869 DUP2 DUP6 PUSH2 0x7F8 JUMP JUMPDEST SWAP1 POP DUP2 DUP2 SUB PUSH1 0x60 DUP4 ADD MSTORE PUSH2 0x87D DUP2 DUP5 PUSH2 0x7F8 JUMP JUMPDEST SWAP1 POP SWAP6 SWAP5 POP POP POP POP POP JUMP JUMPDEST PUSH0 PUSH1 0x20 DUP3 ADD SWAP1 POP PUSH2 0x89B PUSH0 DUP4 ADD DUP5 PUSH2 0x7B1 JUMP JUMPDEST SWAP3 SWAP2 POP POP JUMP JUMPDEST PUSH0 PUSH20 0xFFFFFFFFFFFFFFFFFFFFFFFFFFFFFFFFFFFFFFFF DUP3 AND SWAP1 POP SWAP2 SWAP1 POP JUMP JUMPDEST PUSH0 PUSH2 0x8CA DUP3 PUSH2 0x8A1 JUMP JUMPDEST SWAP1 POP SWAP2 SWAP1 POP JUMP JUMPDEST PUSH2 0x8DA DUP2 PUSH2 0x8C0 JUMP JUMPDEST DUP3 MSTORE POP POP JUMP JUMPDEST PUSH0 PUSH1 0x20 DUP3 ADD SWAP1 POP PUSH2 0x8F3 PUSH0 DUP4 ADD DUP5 PUSH2 0x8D1 JUMP JUMPDEST SWAP3 SWAP2 POP POP JUMP JUMPDEST PUSH0 PUSH0 REVERT JUMPDEST PUSH0 PUSH0 REVERT JUMPDEST PUSH32 0x4E487B7100000000000000000000000000000000000000000000000000000000 PUSH0 MSTORE PUSH1 0x41 PUSH1 0x4 MSTORE PUSH1 0x24 PUSH0 REVERT JUMPDEST PUSH2 0x937 DUP3 PUSH2 0x7E8 JUMP JUMPDEST DUP2 ADD DUP2 DUP2 LT PUSH8 0xFFFFFFFFFFFFFFFF DUP3 GT OR ISZERO PUSH2 0x956 JUMPI PUSH2 0x955 PUSH2 0x901 JUMP JUMPDEST JUMPDEST DUP1 PUSH1 0x40 MSTORE POP POP POP JUMP JUMPDEST PUSH0 PUSH2 0x968 PUSH2 0x742 JUMP JUMPDEST SWAP1 POP PUSH2 0x974 DUP3 DUP3 PUSH2 0x92E JUMP JUMPDEST SWAP2 SWAP1 POP JUMP JUMPDEST PUSH0 PUSH8 0xFFFFFFFFFFFFFFFF DUP3 GT ISZERO PUSH2 0x993 JUMPI PUSH2 0x992 PUSH2 0x901 JUMP JUMPDEST JUMPDEST PUSH2 0x99C DUP3 PUSH2 0x7E8 JUMP JUMPDEST SWAP1 POP PUSH1 0x20 DUP2 ADD SWAP1 POP SWAP2 SWAP1 POP JUMP JUMPDEST DUP3 DUP2 DUP4 CALLDATACOPY PUSH0 DUP4 DUP4 ADD MSTORE POP POP POP JUMP JUMPDEST PUSH0 PUSH2 0x9C9 PUSH2 0x9C4 DUP5 PUSH2 0x979 JUMP JUMPDEST PUSH2 0x95F JUMP JUMPDEST SWAP1 POP DUP3 DUP2 MSTORE PUSH1 0x20 DUP2 ADD DUP5 DUP5 DUP5 ADD GT ISZERO PUSH2 0x9E5 JUMPI PUSH2 0x9E4 PUSH2 0x8FD JUMP JUMPDEST JUMPDEST PUSH2 0x9F0 DUP5 DUP3 DUP6 PUSH2 0x9A9 JUMP JUMPDEST POP SWAP4 SWAP3 POP POP POP JUMP JUMPDEST PUSH0 DUP3 PUSH1 0x1F DUP4 ADD SLT PUSH2 0xA0C JUMPI PUSH2 0xA0B PUSH2 0x8F9 JUMP JUMPDEST JUMPDEST DUP2 CALLDATALOAD PUSH2 0xA1C DUP5 DUP3 PUSH1 0x20 DUP7 ADD PUSH2 0x9B7 JUMP JUMPDEST SWAP2 POP POP SWAP3 SWAP2 POP POP JUMP JUMPDEST PUSH0 PUSH0 PUSH0 PUSH1 0x60 DUP5 DUP7 SUB SLT ISZERO PUSH2 0xA3C JUMPI PUSH2 0xA3B PUSH2 0x74B JUMP JUMPDEST JUMPDEST PUSH0 DUP5 ADD CALLDATALOAD PUSH8 0xFFFFFFFFFFFFFFFF DUP2 GT ISZERO PUSH2 0xA59 JUMPI PUSH2 0xA58 PUSH2 0x74F JUMP JUMPDEST JUMPDEST PUSH2 0xA65 DUP7 DUP3 DUP8 ADD PUSH2 0x9F8 JUMP JUMPDEST SWAP4 POP POP PUSH1 0x20 DUP5 ADD CALLDATALOAD PUSH8 0xFFFFFFFFFFFFFFFF DUP2 GT ISZERO PUSH2 0xA86 JUMPI PUSH2 0xA85 PUSH2 0x74F JUMP JUMPDEST JUMPDEST PUSH2 0xA92 DUP7 DUP3 DUP8 ADD PUSH2 0x9F8 JUMP JUMPDEST SWAP3 POP POP PUSH1 0x40 DUP5 ADD CALLDATALOAD PUSH8 0xFFFFFFFFFFFFFFFF DUP2 GT ISZERO PUSH2 0xAB3 JUMPI PUSH2 0xAB2 PUSH2 0x74F JUMP JUMPDEST JUMPDEST PUSH2 0xABF DUP7 DUP3 DUP8 ADD PUSH2 0x9F8 JUMP JUMPDEST SWAP2 POP POP SWAP3 POP SWAP3 POP SWAP3 JUMP JUMPDEST PUSH32 0x496E646578206F7574206F6620626F756E647300000000000000000000000000 PUSH0 DUP3 ADD MSTORE POP JUMP JUMPDEST PUSH0 PUSH2 0xAFD PUSH1 0x13 DUP4 PUSH2 0x7CA JUMP JUMPDEST SWAP2 POP PUSH2 0xB08 DUP3 PUSH2 0xAC9 JUMP JUMPDEST PUSH1 0x20 DUP3 ADD SWAP1 POP SWAP2 SWAP1 POP JUMP JUMPDEST PUSH0 PUSH1 0x20 DUP3 ADD SWAP1 POP DUP2 DUP2 SUB PUSH0 DUP4 ADD MSTORE PUSH2 0xB2A DUP2 PUSH2 0xAF1 JUMP JUMPDEST SWAP1 POP SWAP2 SWAP1 POP JUMP JUMPDEST PUSH32 0x4E487B7100000000000000000000000000000000000000000000000000000000 PUSH0 MSTORE PUSH1 0x32 PUSH1 0x4 MSTORE PUSH1 0x24 PUSH0 REVERT JUMPDEST PUSH32 0x4E487B7100000000000000000000000000000000000000000000000000000000 PUSH0 MSTORE PUSH1 0x22 PUSH1 0x4 MSTORE PUSH1 0x24 PUSH0 REVERT JUMPDEST PUSH0 PUSH1 0x2 DUP3 DIV SWAP1 POP PUSH1 0x1 DUP3 AND DUP1 PUSH2 0xBA2 JUMPI PUSH1 0x7F DUP3 AND SWAP2 POP JUMPDEST PUSH1 0x20 DUP3 LT DUP2 SUB PUSH2 0xBB5 JUMPI PUSH2 0xBB4 PUSH2 0xB5E JUMP JUMPDEST JUMPDEST POP SWAP2 SWAP1 POP JUMP JUMPDEST PUSH32 0x4E6F7420617574686F72697A6564000000000000000000000000000000000000 PUSH0 DUP3 ADD MSTORE POP JUMP JUMPDEST PUSH0 PUSH2 0xBEF PUSH1 0xE DUP4 PUSH2 0x7CA JUMP JUMPDEST SWAP2 POP PUSH2 0xBFA DUP3 PUSH2 0xBBB JUMP JUMPDEST PUSH1 0x20 DUP3 ADD SWAP1 POP SWAP2 SWAP1 POP JUMP JUMPDEST PUSH0 PUSH1 0x20 DUP3 ADD SWAP1 POP DUP2 DUP2 SUB PUSH0 DUP4 ADD MSTORE PUSH2 0xC1C DUP2 PUSH2 0xBE3 JUMP JUMPDEST SWAP1 POP SWAP2 SWAP1 POP JUMP JUMPDEST PUSH32 0x53746F72616765206C696D697420726561636865640000000000000000000000 PUSH0 DUP3 ADD MSTORE POP JUMP JUMPDEST PUSH0 PUSH2 0xC57 PUSH1 0x15 DUP4 PUSH2 0x7CA JUMP JUMPDEST SWAP2 POP PUSH2 0xC62 DUP3 PUSH2 0xC23 JUMP JUMPDEST PUSH1 0x20 DUP3 ADD SWAP1 POP SWAP2 SWAP1 POP JUMP JUMPDEST PUSH0 PUSH1 0x20 DUP3 ADD SWAP1 POP DUP2 DUP2 SUB PUSH0 DUP4 ADD MSTORE PUSH2 0xC84 DUP2 PUSH2 0xC4B JUMP JUMPDEST SWAP1 POP SWAP2 SWAP1 POP JUMP JUMPDEST PUSH0 DUP2 SWAP1 POP DUP2 PUSH0 MSTORE PUSH1 0x20 PUSH0 KECCAK256 SWAP1 POP SWAP2 SWAP1 POP JUMP JUMPDEST PUSH0 PUSH1 0x20 PUSH1 0x1F DUP4 ADD DIV SWAP1 POP SWAP2 SWAP1 POP JUMP JUMPDEST PUSH0 DUP3 DUP3 SHL SWAP1 POP SWAP3 SWAP2 POP POP JUMP JUMPDEST PUSH0 PUSH1 0x8 DUP4 MUL PUSH2 0xCE7 PUSH32 0xFFFFFFFFFFFFFFFFFFFFFFFFFFFFFFFFFFFFFFFFFFFFFFFFFFFFFFFFFFFFFFFF DUP3 PUSH2 0xCAC JUMP JUMPDEST PUSH2 0xCF1 DUP7 DUP4 PUSH2 0xCAC JUMP JUMPDEST SWAP6 POP DUP1 NOT DUP5 AND SWAP4 POP DUP1 DUP7 AND DUP5 OR SWAP3 POP POP POP SWAP4 SWAP3 POP POP POP JUMP JUMPDEST PUSH0 DUP2 SWAP1 POP SWAP2 SWAP1 POP JUMP JUMPDEST PUSH0 PUSH2 0xD2C PUSH2 0xD27 PUSH2 0xD22 DUP5 PUSH2 0x753 JUMP JUMPDEST PUSH2 0xD09 JUMP JUMPDEST PUSH2 0x753 JUMP JUMPDEST SWAP1 POP SWAP2 SWAP1 POP JUMP JUMPDEST PUSH0 DUP2 SWAP1 POP SWAP2 SWAP1 POP JUMP JUMPDEST PUSH2 0xD45 DUP4 PUSH2 0xD12 JUMP JUMPDEST PUSH2 0xD59 PUSH2 0xD51 DUP3 PUSH2 0xD33 JUMP JUMPDEST DUP5 DUP5 SLOAD PUSH2 0xCB8 JUMP JUMPDEST DUP3 SSTORE POP POP POP POP JUMP JUMPDEST PUSH0 PUSH0 SWAP1 POP SWAP1 JUMP JUMPDEST PUSH2 0xD70 PUSH2 0xD61 JUMP JUMPDEST PUSH2 0xD7B DUP2 DUP5 DUP5 PUSH2 0xD3C JUMP JUMPDEST POP POP POP JUMP JUMPDEST JUMPDEST DUP2 DUP2 LT ISZERO PUSH2 0xD9E JUMPI PUSH2 0xD93 PUSH0 DUP3 PUSH2 0xD68 JUMP JUMPDEST PUSH1 0x1 DUP2 ADD SWAP1 POP PUSH2 0xD81 JUMP JUMPDEST POP POP JUMP JUMPDEST PUSH1 0x1F DUP3 GT ISZERO PUSH2 0xDE3 JUMPI PUSH2 0xDB4 DUP2 PUSH2 0xC8B JUMP JUMPDEST PUSH2 0xDBD DUP5 PUSH2 0xC9D JUMP JUMPDEST DUP2 ADD PUSH1 0x20 DUP6 LT ISZERO PUSH2 0xDCC JUMPI DUP2 SWAP1 POP JUMPDEST PUSH2 0xDE0 PUSH2 0xDD8 DUP6 PUSH2 0xC9D JUMP JUMPDEST DUP4 ADD DUP3 PUSH2 0xD80 JUMP JUMPDEST POP POP JUMPDEST POP POP POP JUMP JUMPDEST PUSH0 DUP3 DUP3 SHR SWAP1 POP SWAP3 SWAP2 POP POP JUMP JUMPDEST PUSH0 PUSH2 0xE03 PUSH0 NOT DUP5 PUSH1 0x8 MUL PUSH2 0xDE8 JUMP JUMPDEST NOT DUP1 DUP4 AND SWAP2 POP POP SWAP3 SWAP2 POP POP JUMP JUMPDEST PUSH0 PUSH2 0xE1B DUP4 DUP4 PUSH2 0xDF4 JUMP JUMPDEST SWAP2 POP DUP3 PUSH1 0x2 MUL DUP3 OR SWAP1 POP SWAP3 SWAP2 POP POP JUMP JUMPDEST PUSH2 0xE34 DUP3 PUSH2 0x7C0 JUMP JUMPDEST PUSH8 0xFFFFFFFFFFFFFFFF DUP2 GT ISZERO PUSH2 0xE4D JUMPI PUSH2 0xE4C PUSH2 0x901 JUMP JUMPDEST JUMPDEST PUSH2 0xE57 DUP3 SLOAD PUSH2 0xB8B JUMP JUMPDEST PUSH2 0xE62 DUP3 DUP3 DUP6 PUSH2 0xDA2 JUMP JUMPDEST PUSH0 PUSH1 0x20 SWAP1 POP PUSH1 0x1F DUP4 GT PUSH1 0x1 DUP2 EQ PUSH2 0xE93 JUMPI PUSH0 DUP5 ISZERO PUSH2 0xE81 JUMPI DUP3 DUP8 ADD MLOAD SWAP1 POP JUMPDEST PUSH2 0xE8B DUP6 DUP3 PUSH2 0xE10 JUMP JUMPDEST DUP7 SSTORE POP PUSH2 0xEF2 JUMP JUMPDEST PUSH1 0x1F NOT DUP5 AND PUSH2 0xEA1 DUP7 PUSH2 0xC8B JUMP JUMPDEST PUSH0 JUMPDEST DUP3 DUP2 LT ISZERO PUSH2 0xEC8 JUMPI DUP5 DUP10 ADD MLOAD DUP3 SSTORE PUSH1 0x1 DUP3 ADD SWAP2 POP PUSH1 0x20 DUP6 ADD SWAP5 POP PUSH1 0x20 DUP2 ADD SWAP1 POP PUSH2 0xEA3 JUMP JUMPDEST DUP7 DUP4 LT ISZERO PUSH2 0xEE5 JUMPI DUP5 DUP10 ADD MLOAD PUSH2 0xEE1 PUSH1 0x1F DUP10 AND DUP3 PUSH2 0xDF4 JUMP JUMPDEST DUP4 SSTORE POP JUMPDEST PUSH1 0x1 PUSH1 0x2 DUP9 MUL ADD DUP9 SSTORE POP POP POP JUMPDEST POP POP POP POP POP POP JUMP INVALID LOG2 PUSH5 0x6970667358 0x22 SLT KECCAK256 SWAP12 0x4C JUMPDEST 0x27 SWAP14 0xED XOR NUMBER PUSH17 0xCA1CD4B7B08718E52D547A5E918A615018 0x4D 0xDB GT SGT CREATE AND PUSH5 0x736F6C6343 STOP ADDMOD 0x1E STOP CALLER "
				},
				"gasEstimates": {
					"creation": {
						"codeDepositCost": "777600",
						"executionCost": "25075",
						"totalCost": "802675"
					},
					"external": {
						"MAX_ENTRIES()": "347",
						"dataRecords(uint256)": "infinite",
						"getRecord(uint256)": "infinite",
						"getTotalRecords()": "2439",
						"owner()": "2552",
						"storeData(string,string,string)": "infinite"
					}
				},
				"methodIdentifiers": {
					"MAX_ENTRIES()": "7d4cb964",
					"dataRecords(uint256)": "c8592e0b",
					"getRecord(uint256)": "03e9e609",
					"getTotalRecords()": "0aeacb5e",
					"owner()": "8da5cb5b",
					"storeData(string,string,string)": "d4001ef2"
				}
			},
			"storageLayout": {
				"storage": [
					{
						"astId": 17,
						"contract": "IoTDataStorage.sol:IoTDataStorage",
						"label": "dataRecords",
						"offset": 0,
						"slot": "0",
						"type": "t_array(t_struct(IoTData)10_storage)dyn_storage"
					},
					{
						"astId": 19,
						"contract": "IoTDataStorage.sol:IoTDataStorage",
						"label": "owner",
						"offset": 0,
						"slot": "1",
						"type": "t_address"
					}
				],
				"types": {
					"t_address": {
						"encoding": "inplace",
						"label": "address",
						"numberOfBytes": "20"
					},
					"t_array(t_struct(IoTData)10_storage)dyn_storage": {
						"base": "t_struct(IoTData)10_storage",
						"encoding": "dynamic_array",
						"label": "struct IoTDataStorage.IoTData[]",
						"numberOfBytes": "32"
					},
					"t_string_storage": {
						"encoding": "bytes",
						"label": "string",
						"numberOfBytes": "32"
					},
					"t_struct(IoTData)10_storage": {
						"encoding": "inplace",
						"label": "struct IoTDataStorage.IoTData",
						"members": [
							{
								"astId": 3,
								"contract": "IoTDataStorage.sol:IoTDataStorage",
								"label": "timestamp",
								"offset": 0,
								"slot": "0",
								"type": "t_uint256"
							},
							{
								"astId": 5,
								"contract": "IoTDataStorage.sol:IoTDataStorage",
								"label": "deviceId",
								"offset": 0,
								"slot": "1",
								"type": "t_string_storage"
							},
							{
								"astId": 7,
								"contract": "IoTDataStorage.sol:IoTDataStorage",
								"label": "dataType",
								"offset": 0,
								"slot": "2",
								"type": "t_string_storage"
							},
							{
								"astId": 9,
								"contract": "IoTDataStorage.sol:IoTDataStorage",
								"label": "dataValue",
								"offset": 0,
								"slot": "3",
								"type": "t_string_storage"
							}
						],
						"numberOfBytes": "128"
					},
					"t_uint256": {
						"encoding": "inplace",
						"label": "uint256",
						"numberOfBytes": "32"
					}
				}
			},
			"userdoc": {
				"kind": "user",
				"methods": {},
				"version": 1
			}
		}
	}
}