{
	"IoTDataStorage.sol": {
		"LogisticsDataStorage": {
			"abi": [
				{
					"inputs": [],
					"stateMutability": "nonpayable",
					"type": "constructor"
				},
				{
					"anonymous": false,
					"inputs": [
						{
							"indexed": false,
							"internalType": "uint256",
							"name": "blockchainTimestamp",
							"type": "uint256"
						},
						{
							"indexed": false,
							"internalType": "string",
							"name": "originalTimestamp",
							"type": "string"
						},
						{
							"indexed": false,
							"internalType": "string",
							"name": "packageId",
							"type": "string"
						},
						{
							"indexed": false,
							"internalType": "string",
							"name": "rfidTag",
							"type": "string"
						},
						{
							"indexed": false,
							"internalType": "string",
							"name": "latitude",
							"type": "string"
						},
						{
							"indexed": false,
							"internalType": "string",
							"name": "longitude",
							"type": "string"
						},
						{
							"indexed": false,
							"internalType": "string",
							"name": "temperatureC",
							"type": "string"
						},
						{
							"indexed": false,
							"internalType": "string",
							"name": "deviceId",
							"type": "string"
						}
					],
					"name": "LogisticsDataStored",
					"type": "event"
				},
				{
					"inputs": [],
					"name": "MAX_ENTRIES",
					"outputs": [
						{
							"internalType": "uint256",
							"name": "",
							"type": "uint256"
						}
					],
					"stateMutability": "view",
					"type": "function"
				},
				{
					"inputs": [
						{
							"internalType": "uint256",
							"name": "index",
							"type": "uint256"
						}
					],
					"name": "getLogisticsRecord",
					"outputs": [
						{
							"internalType": "uint256",
							"name": "blockchainTimestamp",
							"type": "uint256"
						},
						{
							"internalType": "string",
							"name": "originalTimestamp",
							"type": "string"
						},
						{
							"internalType": "string",
							"name": "packageId",
							"type": "string"
						},
						{
							"internalType": "string",
							"name": "rfidTag",
							"type": "string"
						},
						{
							"internalType": "string",
							"name": "latitude",
							"type": "string"
						},
						{
							"internalType": "string",
							"name": "longitude",
							"type": "string"
						},
						{
							"internalType": "string",
							"name": "temperatureC",
							"type": "string"
						},
						{
							"internalType": "string",
							"name": "deviceId",
							"type": "string"
						}
					],
					"stateMutability": "view",
					"type": "function"
				},
				{
					"inputs": [],
					"name": "getTotalRecords",
					"outputs": [
						{
							"internalType": "uint256",
							"name": "",
							"type": "uint256"
						}
					],
					"stateMutability": "view",
					"type": "function"
				},
				{
					"inputs": [
						{
							"internalType": "uint256",
							"name": "",
							"type": "uint256"
						}
					],
					"name": "logisticsRecords",
					"outputs": [
						{
							"internalType": "uint256",
							"name": "blockchainTimestamp",
							"type": "uint256"
						},
						{
							"internalType": "string",
							"name": "originalTimestamp",
							"type": "string"
						},
						{
							"internalType": "string",
							"name": "packageId",
							"type": "string"
						},
						{
							"internalType": "string",
							"name": "rfidTag",
							"type": "string"
						},
						{
							"internalType": "string",
							"name": "latitude",
							"type": "string"
						},
						{
							"internalType": "string",
							"name": "longitude",
							"type": "string"
						},
						{
							"internalType": "string",
							"name": "temperatureC",
							"type": "string"
						},
						{
							"internalType": "string",
							"name": "deviceId",
							"type": "string"
						}
					],
					"stateMutability": "view",
					"type": "function"
				},
				{
					"inputs": [],
					"name": "owner",
					"outputs": [
						{
							"internalType": "address",
							"name": "",
							"type": "address"
						}
					],
					"stateMutability": "view",
					"type": "function"
				},
				{
					"inputs": [
						{
							"internalType": "string",
							"name": "_originalTimestamp",
							"type": "string"
						},
						{
							"internalType": "string",
							"name": "_packageId",
							"type": "string"
						},
						{
							"internalType": "string",
							"name": "_rfidTag",
							"type": "string"
						},
						{
							"internalType": "string",
							"name": "_latitude",
							"type": "string"
						},
						{
							"internalType": "string",
							"name": "_longitude",
							"type": "string"
						},
						{
							"internalType": "string",
							"name": "_temperatureC",
							"type": "string"
						},
						{
							"internalType": "string",
							"name": "_deviceId",
							"type": "string"
						}
					],
					"name": "storeLogisticsData",
					"outputs": [],
					"stateMutability": "nonpayable",
					"type": "function"
				}
			],
			"devdoc": {
				"kind": "dev",
				"methods": {},
				"version": 1
			},
			"evm": {
				"assembly": "    /* \"IoTDataStorage.sol\":91:3108  contract LogisticsDataStorage {... */\n  mstore(0x40, 0x80)\n    /* \"IoTDataStorage.sol\":1103:1154  constructor() {... */\n  callvalue\n  dup1\n  iszero\n  tag_1\n  jumpi\n  revert(0x00, 0x00)\ntag_1:\n  pop\n    /* \"IoTDataStorage.sol\":1136:1146  msg.sender */\n  caller\n    /* \"IoTDataStorage.sol\":1128:1133  owner */\n  0x01\n  0x00\n    /* \"IoTDataStorage.sol\":1128:1146  owner = msg.sender */\n  0x0100\n  exp\n  dup2\n  sload\n  dup2\n  0xffffffffffffffffffffffffffffffffffffffff\n  mul\n  not\n  and\n  swap1\n  dup4\n  0xffffffffffffffffffffffffffffffffffffffff\n  and\n  mul\n  or\n  swap1\n  sstore\n  pop\n    /* \"IoTDataStorage.sol\":91:3108  contract LogisticsDataStorage {... */\n  dataSize(sub_0)\n  dup1\n  dataOffset(sub_0)\n  0x00\n  codecopy\n  0x00\n  return\nstop\n\nsub_0: assembly {\n        /* \"IoTDataStorage.sol\":91:3108  contract LogisticsDataStorage {... */\n      mstore(0x40, 0x80)\n      callvalue\n      dup1\n      iszero\n      tag_1\n      jumpi\n      revert(0x00, 0x00)\n    tag_1:\n      pop\n      jumpi(tag_2, lt(calldatasize, 0x04))\n      shr(0xe0, calldataload(0x00))\n      dup1\n      0x0aeacb5e\n      eq\n      tag_3\n      jumpi\n      dup1\n      0x7d4cb964\n      eq\n      tag_4\n      jumpi\n      dup1\n      0x8bec7048\n      eq\n      tag_5\n      jumpi\n      dup1\n      0x8da5cb5b\n      eq\n      tag_6\n      jumpi\n      dup1\n      0xddf747df\n      eq\n      tag_7\n      jumpi\n      dup1\n      0xe64037fa\n      eq\n      tag_8\n      jumpi\n    tag_2:\n      revert(0x00, 0x00)\n        /* \"IoTDataStorage.sol\":2172:2278  function getTotalRecords() public view returns (uint256) {... */\n    tag_3:\n      tag_9\n      tag_10\n      jump\t// in\n    tag_9:\n      mload(0x40)\n      tag_11\n      swap2\n      swap1\n      tag_12\n      jump\t// in\n    tag_11:\n      mload(0x40)\n      dup1\n      swap2\n      sub\n      swap1\n      return\n        /* \"IoTDataStorage.sol\":517:558  uint256 public constant MAX_ENTRIES = 100 */\n    tag_4:\n      tag_13\n      tag_14\n      jump\t// in\n    tag_13:\n      mload(0x40)\n      tag_15\n      swap2\n      swap1\n      tag_12\n      jump\t// in\n    tag_15:\n      mload(0x40)\n      dup1\n      swap2\n      sub\n      swap1\n      return\n        /* \"IoTDataStorage.sol\":599:640  LogisticsRecord[] public logisticsRecords */\n    tag_5:\n      tag_16\n      0x04\n      dup1\n      calldatasize\n      sub\n      dup2\n      add\n      swap1\n      tag_17\n      swap2\n      swap1\n      tag_18\n      jump\t// in\n    tag_17:\n      tag_19\n      jump\t// in\n    tag_16:\n      mload(0x40)\n      tag_20\n      swap9\n      swap8\n      swap7\n      swap6\n      swap5\n      swap4\n      swap3\n      swap2\n      swap1\n      tag_21\n      jump\t// in\n    tag_20:\n      mload(0x40)\n      dup1\n      swap2\n      sub\n      swap1\n      return\n        /* \"IoTDataStorage.sol\":647:667  address public owner */\n    tag_6:\n      tag_22\n      tag_23\n      jump\t// in\n    tag_22:\n      mload(0x40)\n      tag_24\n      swap2\n      swap1\n      tag_25\n      jump\t// in\n    tag_24:\n      mload(0x40)\n      dup1\n      swap2\n      sub\n      swap1\n      return\n        /* \"IoTDataStorage.sol\":1162:2164  function storeLogisticsData(... */\n    tag_7:\n      tag_26\n      0x04\n      dup1\n      calldatasize\n      sub\n      dup2\n      add\n      swap1\n      tag_27\n      swap2\n      swap1\n      tag_28\n      jump\t// in\n    tag_27:\n      tag_29\n      jump\t// in\n    tag_26:\n      stop\n        /* \"IoTDataStorage.sol\":2286:3105  function getLogisticsRecord(uint256 index) public view returns (... */\n    tag_8:\n      tag_30\n      0x04\n      dup1\n      calldatasize\n      sub\n      dup2\n      add\n      swap1\n      tag_31\n      swap2\n      swap1\n      tag_18\n      jump\t// in\n    tag_31:\n      tag_32\n      jump\t// in\n    tag_30:\n      mload(0x40)\n      tag_33\n      swap9\n      swap8\n      swap7\n      swap6\n      swap5\n      swap4\n      swap3\n      swap2\n      swap1\n      tag_21\n      jump\t// in\n    tag_33:\n      mload(0x40)\n      dup1\n      swap2\n      sub\n      swap1\n      return\n        /* \"IoTDataStorage.sol\":2172:2278  function getTotalRecords() public view returns (uint256) {... */\n    tag_10:\n        /* \"IoTDataStorage.sol\":2220:2227  uint256 */\n      0x00\n        /* \"IoTDataStorage.sol\":2247:2263  logisticsRecords */\n      0x00\n        /* \"IoTDataStorage.sol\":2247:2270  logisticsRecords.length */\n      dup1\n      sload\n      swap1\n      pop\n        /* \"IoTDataStorage.sol\":2240:2270  return logisticsRecords.length */\n      swap1\n      pop\n        /* \"IoTDataStorage.sol\":2172:2278  function getTotalRecords() public view returns (uint256) {... */\n      swap1\n      jump\t// out\n        /* \"IoTDataStorage.sol\":517:558  uint256 public constant MAX_ENTRIES = 100 */\n    tag_14:\n        /* \"IoTDataStorage.sol\":555:558  100 */\n      0x64\n        /* \"IoTDataStorage.sol\":517:558  uint256 public constant MAX_ENTRIES = 100 */\n      dup2\n      jump\t// out\n        /* \"IoTDataStorage.sol\":599:640  LogisticsRecord[] public logisticsRecords */\n    tag_19:\n      0x00\n      dup2\n      dup2\n      sload\n      dup2\n      lt\n      tag_35\n      jumpi\n      0x00\n      dup1\n      revert\n    tag_35:\n      swap1\n      0x00\n      mstore\n      keccak256(0x00, 0x20)\n      swap1\n      0x08\n      mul\n      add\n      0x00\n      swap2\n      pop\n      swap1\n      pop\n      dup1\n      0x00\n      add\n      sload\n      swap1\n      dup1\n      0x01\n      add\n      dup1\n      sload\n      tag_37\n      swap1\n      tag_38\n      jump\t// in\n    tag_37:\n      dup1\n      0x1f\n      add\n      0x20\n      dup1\n      swap2\n      div\n      mul\n      0x20\n      add\n      mload(0x40)\n      swap1\n      dup2\n      add\n      0x40\n      mstore\n      dup1\n      swap3\n      swap2\n      swap1\n      dup2\n      dup2\n      mstore\n      0x20\n      add\n      dup3\n      dup1\n      sload\n      tag_39\n      swap1\n      tag_38\n      jump\t// in\n    tag_39:\n      dup1\n      iszero\n      tag_40\n      jumpi\n      dup1\n      0x1f\n      lt\n      tag_41\n      jumpi\n      0x0100\n      dup1\n      dup4\n      sload\n      div\n      mul\n      dup4\n      mstore\n      swap2\n      0x20\n      add\n      swap2\n      jump(tag_40)\n    tag_41:\n      dup3\n      add\n      swap2\n      swap1\n      0x00\n      mstore\n      keccak256(0x00, 0x20)\n      swap1\n    tag_42:\n      dup2\n      sload\n      dup2\n      mstore\n      swap1\n      0x01\n      add\n      swap1\n      0x20\n      add\n      dup1\n      dup4\n      gt\n      tag_42\n      jumpi\n      dup3\n      swap1\n      sub\n      0x1f\n      and\n      dup3\n      add\n      swap2\n    tag_40:\n      pop\n      pop\n      pop\n      pop\n      pop\n      swap1\n      dup1\n      0x02\n      add\n      dup1\n      sload\n      tag_43\n      swap1\n      tag_38\n      jump\t// in\n    tag_43:\n      dup1\n      0x1f\n      add\n      0x20\n      dup1\n      swap2\n      div\n      mul\n      0x20\n      add\n      mload(0x40)\n      swap1\n      dup2\n      add\n      0x40\n      mstore\n      dup1\n      swap3\n      swap2\n      swap1\n      dup2\n      dup2\n      mstore\n      0x20\n      add\n      dup3\n      dup1\n      sload\n      tag_44\n      swap1\n      tag_38\n      jump\t// in\n    tag_44:\n      dup1\n      iszero\n      tag_45\n      jumpi\n      dup1\n      0x1f\n      lt\n      tag_46\n      jumpi\n      0x0100\n      dup1\n      dup4\n      sload\n      div\n      mul\n      dup4\n      mstore\n      swap2\n      0x20\n      add\n      swap2\n      jump(tag_45)\n    tag_46:\n      dup3\n      add\n      swap2\n      swap1\n      0x00\n      mstore\n      keccak256(0x00, 0x20)\n      swap1\n    tag_47:\n      dup2\n      sload\n      dup2\n      mstore\n      swap1\n      0x01\n      add\n      swap1\n      0x20\n      add\n      dup1\n      dup4\n      gt\n      tag_47\n      jumpi\n      dup3\n      swap1\n      sub\n      0x1f\n      and\n      dup3\n      add\n      swap2\n    tag_45:\n      pop\n      pop\n      pop\n      pop\n      pop\n      swap1\n      dup1\n      0x03\n      add\n      dup1\n      sload\n      tag_48\n      swap1\n      tag_38\n      jump\t// in\n    tag_48:\n      dup1\n      0x1f\n      add\n      0x20\n      dup1\n      swap2\n      div\n      mul\n      0x20\n      add\n      mload(0x40)\n      swap1\n      dup2\n      add\n      0x40\n      mstore\n      dup1\n      swap3\n      swap2\n      swap1\n      dup2\n      dup2\n      mstore\n      0x20\n      add\n      dup3\n      dup1\n      sload\n      tag_49\n      swap1\n      tag_38\n      jump\t// in\n    tag_49:\n      dup1\n      iszero\n      tag_50\n      jumpi\n      dup1\n      0x1f\n      lt\n      tag_51\n      jumpi\n      0x0100\n      dup1\n      dup4\n      sload\n      div\n      mul\n      dup4\n      mstore\n      swap2\n      0x20\n      add\n      swap2\n      jump(tag_50)\n    tag_51:\n      dup3\n      add\n      swap2\n      swap1\n      0x00\n      mstore\n      keccak256(0x00, 0x20)\n      swap1\n    tag_52:\n      dup2\n      sload\n      dup2\n      mstore\n      swap1\n      0x01\n      add\n      swap1\n      0x20\n      add\n      dup1\n      dup4\n      gt\n      tag_52\n      jumpi\n      dup3\n      swap1\n      sub\n      0x1f\n      and\n      dup3\n      add\n      swap2\n    tag_50:\n      pop\n      pop\n      pop\n      pop\n      pop\n      swap1\n      dup1\n      0x04\n      add\n      dup1\n      sload\n      tag_53\n      swap1\n      tag_38\n      jump\t// in\n    tag_53:\n      dup1\n      0x1f\n      add\n      0x20\n      dup1\n      swap2\n      div\n      mul\n      0x20\n      add\n      mload(0x40)\n      swap1\n      dup2\n      add\n      0x40\n      mstore\n      dup1\n      swap3\n      swap2\n      swap1\n      dup2\n      dup2\n      mstore\n      0x20\n      add\n      dup3\n      dup1\n      sload\n      tag_54\n      swap1\n      tag_38\n      jump\t// in\n    tag_54:\n      dup1\n      iszero\n      tag_55\n      jumpi\n      dup1\n      0x1f\n      lt\n      tag_56\n      jumpi\n      0x0100\n      dup1\n      dup4\n      sload\n      div\n      mul\n      dup4\n      mstore\n      swap2\n      0x20\n      add\n      swap2\n      jump(tag_55)\n    tag_56:\n      dup3\n      add\n      swap2\n      swap1\n      0x00\n      mstore\n      keccak256(0x00, 0x20)\n      swap1\n    tag_57:\n      dup2\n      sload\n      dup2\n      mstore\n      swap1\n      0x01\n      add\n      swap1\n      0x20\n      add\n      dup1\n      dup4\n      gt\n      tag_57\n      jumpi\n      dup3\n      swap1\n      sub\n      0x1f\n      and\n      dup3\n      add\n      swap2\n    tag_55:\n      pop\n      pop\n      pop\n      pop\n      pop\n      swap1\n      dup1\n      0x05\n      add\n      dup1\n      sload\n      tag_58\n      swap1\n      tag_38\n      jump\t// in\n    tag_58:\n      dup1\n      0x1f\n      add\n      0x20\n      dup1\n      swap2\n      div\n      mul\n      0x20\n      add\n      mload(0x40)\n      swap1\n      dup2\n      add\n      0x40\n      mstore\n      dup1\n      swap3\n      swap2\n      swap1\n      dup2\n      dup2\n      mstore\n      0x20\n      add\n      dup3\n      dup1\n      sload\n      tag_59\n      swap1\n      tag_38\n      jump\t// in\n    tag_59:\n      dup1\n      iszero\n      tag_60\n      jumpi\n      dup1\n      0x1f\n      lt\n      tag_61\n      jumpi\n      0x0100\n      dup1\n      dup4\n      sload\n      div\n      mul\n      dup4\n      mstore\n      swap2\n      0x20\n      add\n      swap2\n      jump(tag_60)\n    tag_61:\n      dup3\n      add\n      swap2\n      swap1\n      0x00\n      mstore\n      keccak256(0x00, 0x20)\n      swap1\n    tag_62:\n      dup2\n      sload\n      dup2\n      mstore\n      swap1\n      0x01\n      add\n      swap1\n      0x20\n      add\n      dup1\n      dup4\n      gt\n      tag_62\n      jumpi\n      dup3\n      swap1\n      sub\n      0x1f\n      and\n      dup3\n      add\n      swap2\n    tag_60:\n      pop\n      pop\n      pop\n      pop\n      pop\n      swap1\n      dup1\n      0x06\n      add\n      dup1\n      sload\n      tag_63\n      swap1\n      tag_38\n      jump\t// in\n    tag_63:\n      dup1\n      0x1f\n      add\n      0x20\n      dup1\n      swap2\n      div\n      mul\n      0x20\n      add\n      mload(0x40)\n      swap1\n      dup2\n      add\n      0x40\n      mstore\n      dup1\n      swap3\n      swap2\n      swap1\n      dup2\n      dup2\n      mstore\n      0x20\n      add\n      dup3\n      dup1\n      sload\n      tag_64\n      swap1\n      tag_38\n      jump\t// in\n    tag_64:\n      dup1\n      iszero\n      tag_65\n      jumpi\n      dup1\n      0x1f\n      lt\n      tag_66\n      jumpi\n      0x0100\n      dup1\n      dup4\n      sload\n      div\n      mul\n      dup4\n      mstore\n      swap2\n      0x20\n      add\n      swap2\n      jump(tag_65)\n    tag_66:\n      dup3\n      add\n      swap2\n      swap1\n      0x00\n      mstore\n      keccak256(0x00, 0x20)\n      swap1\n    tag_67:\n      dup2\n      sload\n      dup2\n      mstore\n      swap1\n      0x01\n      add\n      swap1\n      0x20\n      add\n      dup1\n      dup4\n      gt\n      tag_67\n      jumpi\n      dup3\n      swap1\n      sub\n      0x1f\n      and\n      dup3\n      add\n      swap2\n    tag_65:\n      pop\n      pop\n      pop\n      pop\n      pop\n      swap1\n      dup1\n      0x07\n      add\n      dup1\n      sload\n      tag_68\n      swap1\n      tag_38\n      jump\t// in\n    tag_68:\n      dup1\n      0x1f\n      add\n      0x20\n      dup1\n      swap2\n      div\n      mul\n      0x20\n      add\n      mload(0x40)\n      swap1\n      dup2\n      add\n      0x40\n      mstore\n      dup1\n      swap3\n      swap2\n      swap1\n      dup2\n      dup2\n      mstore\n      0x20\n      add\n      dup3\n      dup1\n      sload\n      tag_69\n      swap1\n      tag_38\n      jump\t// in\n    tag_69:\n      dup1\n      iszero\n      tag_70\n      jumpi\n      dup1\n      0x1f\n      lt\n      tag_71\n      jumpi\n      0x0100\n      dup1\n      dup4\n      sload\n      div\n      mul\n      dup4\n      mstore\n      swap2\n      0x20\n      add\n      swap2\n      jump(tag_70)\n    tag_71:\n      dup3\n      add\n      swap2\n      swap1\n      0x00\n      mstore\n      keccak256(0x00, 0x20)\n      swap1\n    tag_72:\n      dup2\n      sload\n      dup2\n      mstore\n      swap1\n      0x01\n      add\n      swap1\n      0x20\n      add\n      dup1\n      dup4\n      gt\n      tag_72\n      jumpi\n      dup3\n      swap1\n      sub\n      0x1f\n      and\n      dup3\n      add\n      swap2\n    tag_70:\n      pop\n      pop\n      pop\n      pop\n      pop\n      swap1\n      pop\n      dup9\n      jump\t// out\n        /* \"IoTDataStorage.sol\":647:667  address public owner */\n    tag_23:\n      0x01\n      0x00\n      swap1\n      sload\n      swap1\n      0x0100\n      exp\n      swap1\n      div\n      0xffffffffffffffffffffffffffffffffffffffff\n      and\n      dup2\n      jump\t// out\n        /* \"IoTDataStorage.sol\":1162:2164  function storeLogisticsData(... */\n    tag_29:\n        /* \"IoTDataStorage.sol\":1005:1010  owner */\n      0x01\n      0x00\n      swap1\n      sload\n      swap1\n      0x0100\n      exp\n      swap1\n      div\n      0xffffffffffffffffffffffffffffffffffffffff\n      and\n        /* \"IoTDataStorage.sol\":991:1010  msg.sender == owner */\n      0xffffffffffffffffffffffffffffffffffffffff\n      and\n        /* \"IoTDataStorage.sol\":991:1001  msg.sender */\n      caller\n        /* \"IoTDataStorage.sol\":991:1010  msg.sender == owner */\n      0xffffffffffffffffffffffffffffffffffffffff\n      and\n      eq\n        /* \"IoTDataStorage.sol\":983:1075  require(msg.sender == owner, \"Not authorized: Only contract owner can perform this action.\") */\n      tag_74\n      jumpi\n      mload(0x40)\n      0x08c379a000000000000000000000000000000000000000000000000000000000\n      dup2\n      mstore\n      0x04\n      add\n      tag_75\n      swap1\n      tag_76\n      jump\t// in\n    tag_75:\n      mload(0x40)\n      dup1\n      swap2\n      sub\n      swap1\n      revert\n    tag_74:\n        /* \"IoTDataStorage.sol\":555:558  100 */\n      0x64\n        /* \"IoTDataStorage.sol\":1485:1501  logisticsRecords */\n      0x00\n        /* \"IoTDataStorage.sol\":1485:1508  logisticsRecords.length */\n      dup1\n      sload\n      swap1\n      pop\n        /* \"IoTDataStorage.sol\":1485:1522  logisticsRecords.length < MAX_ENTRIES */\n      lt\n        /* \"IoTDataStorage.sol\":1477:1574  require(logisticsRecords.length < MAX_ENTRIES, \"Storage limit reached: Cannot add more records.\") */\n      tag_78\n      jumpi\n      mload(0x40)\n      0x08c379a000000000000000000000000000000000000000000000000000000000\n      dup2\n      mstore\n      0x04\n      add\n      tag_79\n      swap1\n      tag_80\n      jump\t// in\n    tag_79:\n      mload(0x40)\n      dup1\n      swap2\n      sub\n      swap1\n      revert\n    tag_78:\n        /* \"IoTDataStorage.sol\":1595:1611  logisticsRecords */\n      0x00\n        /* \"IoTDataStorage.sol\":1617:1887  LogisticsRecord(... */\n      mload(0x40)\n      dup1\n      0x0100\n      add\n      0x40\n      mstore\n      dup1\n        /* \"IoTDataStorage.sol\":1647:1662  block.timestamp */\n      timestamp\n        /* \"IoTDataStorage.sol\":1617:1887  LogisticsRecord(... */\n      dup2\n      mstore\n      0x20\n      add\n        /* \"IoTDataStorage.sol\":1709:1727  _originalTimestamp */\n      dup10\n        /* \"IoTDataStorage.sol\":1617:1887  LogisticsRecord(... */\n      dup2\n      mstore\n      0x20\n      add\n        /* \"IoTDataStorage.sol\":1742:1752  _packageId */\n      dup9\n        /* \"IoTDataStorage.sol\":1617:1887  LogisticsRecord(... */\n      dup2\n      mstore\n      0x20\n      add\n        /* \"IoTDataStorage.sol\":1767:1775  _rfidTag */\n      dup8\n        /* \"IoTDataStorage.sol\":1617:1887  LogisticsRecord(... */\n      dup2\n      mstore\n      0x20\n      add\n        /* \"IoTDataStorage.sol\":1790:1799  _latitude */\n      dup7\n        /* \"IoTDataStorage.sol\":1617:1887  LogisticsRecord(... */\n      dup2\n      mstore\n      0x20\n      add\n        /* \"IoTDataStorage.sol\":1814:1824  _longitude */\n      dup6\n        /* \"IoTDataStorage.sol\":1617:1887  LogisticsRecord(... */\n      dup2\n      mstore\n      0x20\n      add\n        /* \"IoTDataStorage.sol\":1839:1852  _temperatureC */\n      dup5\n        /* \"IoTDataStorage.sol\":1617:1887  LogisticsRecord(... */\n      dup2\n      mstore\n      0x20\n      add\n        /* \"IoTDataStorage.sol\":1867:1876  _deviceId */\n      dup4\n        /* \"IoTDataStorage.sol\":1617:1887  LogisticsRecord(... */\n      dup2\n      mstore\n      pop\n        /* \"IoTDataStorage.sol\":1595:1888  logisticsRecords.push(LogisticsRecord(... */\n      swap1\n      dup1\n      0x01\n      dup2\n      sload\n      add\n      dup1\n      dup3\n      sstore\n      dup1\n      swap2\n      pop\n      pop\n      0x01\n      swap1\n      sub\n      swap1\n      0x00\n      mstore\n      keccak256(0x00, 0x20)\n      swap1\n      0x08\n      mul\n      add\n      0x00\n      swap1\n      swap2\n      swap1\n      swap2\n      swap1\n      swap2\n      pop\n      0x00\n      dup3\n      add\n      mload\n      dup2\n      0x00\n      add\n      sstore\n      0x20\n      dup3\n      add\n      mload\n      dup2\n      0x01\n      add\n      swap1\n      dup2\n      tag_82\n      swap2\n      swap1\n      tag_83\n      jump\t// in\n    tag_82:\n      pop\n      0x40\n      dup3\n      add\n      mload\n      dup2\n      0x02\n      add\n      swap1\n      dup2\n      tag_84\n      swap2\n      swap1\n      tag_83\n      jump\t// in\n    tag_84:\n      pop\n      0x60\n      dup3\n      add\n      mload\n      dup2\n      0x03\n      add\n      swap1\n      dup2\n      tag_85\n      swap2\n      swap1\n      tag_83\n      jump\t// in\n    tag_85:\n      pop\n      0x80\n      dup3\n      add\n      mload\n      dup2\n      0x04\n      add\n      swap1\n      dup2\n      tag_86\n      swap2\n      swap1\n      tag_83\n      jump\t// in\n    tag_86:\n      pop\n      0xa0\n      dup3\n      add\n      mload\n      dup2\n      0x05\n      add\n      swap1\n      dup2\n      tag_87\n      swap2\n      swap1\n      tag_83\n      jump\t// in\n    tag_87:\n      pop\n      0xc0\n      dup3\n      add\n      mload\n      dup2\n      0x06\n      add\n      swap1\n      dup2\n      tag_88\n      swap2\n      swap1\n      tag_83\n      jump\t// in\n    tag_88:\n      pop\n      0xe0\n      dup3\n      add\n      mload\n      dup2\n      0x07\n      add\n      swap1\n      dup2\n      tag_89\n      swap2\n      swap1\n      tag_83\n      jump\t// in\n    tag_89:\n      pop\n      pop\n      pop\n        /* \"IoTDataStorage.sol\":1914:2156  LogisticsDataStored(... */\n      0x61312b82ac27a2e0703617e52182f184bfa9862858646b031a6a3cab9ba89d9b\n        /* \"IoTDataStorage.sol\":1948:1963  block.timestamp */\n      timestamp\n        /* \"IoTDataStorage.sol\":1978:1996  _originalTimestamp */\n      dup9\n        /* \"IoTDataStorage.sol\":2011:2021  _packageId */\n      dup9\n        /* \"IoTDataStorage.sol\":2036:2044  _rfidTag */\n      dup9\n        /* \"IoTDataStorage.sol\":2059:2068  _latitude */\n      dup9\n        /* \"IoTDataStorage.sol\":2083:2093  _longitude */\n      dup9\n        /* \"IoTDataStorage.sol\":2108:2121  _temperatureC */\n      dup9\n        /* \"IoTDataStorage.sol\":2136:2145  _deviceId */\n      dup9\n        /* \"IoTDataStorage.sol\":1914:2156  LogisticsDataStored(... */\n      mload(0x40)\n      tag_90\n      swap9\n      swap8\n      swap7\n      swap6\n      swap5\n      swap4\n      swap3\n      swap2\n      swap1\n      tag_21\n      jump\t// in\n    tag_90:\n      mload(0x40)\n      dup1\n      swap2\n      sub\n      swap1\n      log1\n        /* \"IoTDataStorage.sol\":1162:2164  function storeLogisticsData(... */\n      pop\n      pop\n      pop\n      pop\n      pop\n      pop\n      pop\n      jump\t// out\n        /* \"IoTDataStorage.sol\":2286:3105  function getLogisticsRecord(uint256 index) public view returns (... */\n    tag_32:\n        /* \"IoTDataStorage.sol\":2360:2387  uint256 blockchainTimestamp */\n      0x00\n        /* \"IoTDataStorage.sol\":2398:2429  string memory originalTimestamp */\n      0x60\n        /* \"IoTDataStorage.sol\":2440:2463  string memory packageId */\n      dup1\n        /* \"IoTDataStorage.sol\":2474:2495  string memory rfidTag */\n      0x60\n        /* \"IoTDataStorage.sol\":2506:2528  string memory latitude */\n      dup1\n        /* \"IoTDataStorage.sol\":2539:2562  string memory longitude */\n      0x60\n        /* \"IoTDataStorage.sol\":2573:2599  string memory temperatureC */\n      dup1\n        /* \"IoTDataStorage.sol\":2610:2632  string memory deviceId */\n      0x60\n        /* \"IoTDataStorage.sol\":2667:2683  logisticsRecords */\n      0x00\n        /* \"IoTDataStorage.sol\":2667:2690  logisticsRecords.length */\n      dup1\n      sload\n      swap1\n      pop\n        /* \"IoTDataStorage.sol\":2659:2664  index */\n      dup10\n        /* \"IoTDataStorage.sol\":2659:2690  index < logisticsRecords.length */\n      lt\n        /* \"IoTDataStorage.sol\":2651:2737  require(index < logisticsRecords.length, \"Index out of bounds: Invalid record index.\") */\n      tag_92\n      jumpi\n      mload(0x40)\n      0x08c379a000000000000000000000000000000000000000000000000000000000\n      dup2\n      mstore\n      0x04\n      add\n      tag_93\n      swap1\n      tag_94\n      jump\t// in\n    tag_93:\n      mload(0x40)\n      dup1\n      swap2\n      sub\n      swap1\n      revert\n    tag_92:\n        /* \"IoTDataStorage.sol\":2748:2777  LogisticsRecord memory record */\n      0x00\n        /* \"IoTDataStorage.sol\":2780:2796  logisticsRecords */\n      0x00\n        /* \"IoTDataStorage.sol\":2797:2802  index */\n      dup11\n        /* \"IoTDataStorage.sol\":2780:2803  logisticsRecords[index] */\n      dup2\n      sload\n      dup2\n      lt\n      tag_95\n      jumpi\n      tag_96\n      tag_97\n      jump\t// in\n    tag_96:\n    tag_95:\n      swap1\n      0x00\n      mstore\n      keccak256(0x00, 0x20)\n      swap1\n      0x08\n      mul\n      add\n        /* \"IoTDataStorage.sol\":2748:2803  LogisticsRecord memory record = logisticsRecords[index] */\n      mload(0x40)\n      dup1\n      0x0100\n      add\n      0x40\n      mstore\n      swap1\n      dup2\n      0x00\n      dup3\n      add\n      sload\n      dup2\n      mstore\n      0x20\n      add\n      0x01\n      dup3\n      add\n      dup1\n      sload\n      tag_99\n      swap1\n      tag_38\n      jump\t// in\n    tag_99:\n      dup1\n      0x1f\n      add\n      0x20\n      dup1\n      swap2\n      div\n      mul\n      0x20\n      add\n      mload(0x40)\n      swap1\n      dup2\n      add\n      0x40\n      mstore\n      dup1\n      swap3\n      swap2\n      swap1\n      dup2\n      dup2\n      mstore\n      0x20\n      add\n      dup3\n      dup1\n      sload\n      tag_100\n      swap1\n      tag_38\n      jump\t// in\n    tag_100:\n      dup1\n      iszero\n      tag_101\n      jumpi\n      dup1\n      0x1f\n      lt\n      tag_102\n      jumpi\n      0x0100\n      dup1\n      dup4\n      sload\n      div\n      mul\n      dup4\n      mstore\n      swap2\n      0x20\n      add\n      swap2\n      jump(tag_101)\n    tag_102:\n      dup3\n      add\n      swap2\n      swap1\n      0x00\n      mstore\n      keccak256(0x00, 0x20)\n      swap1\n    tag_103:\n      dup2\n      sload\n      dup2\n      mstore\n      swap1\n      0x01\n      add\n      swap1\n      0x20\n      add\n      dup1\n      dup4\n      gt\n      tag_103\n      jumpi\n      dup3\n      swap1\n      sub\n      0x1f\n      and\n      dup3\n      add\n      swap2\n    tag_101:\n      pop\n      pop\n      pop\n      pop\n      pop\n      dup2\n      mstore\n      0x20\n      add\n      0x02\n      dup3\n      add\n      dup1\n      sload\n      tag_104\n      swap1\n      tag_38\n      jump\t// in\n    tag_104:\n      dup1\n      0x1f\n      add\n      0x20\n      dup1\n      swap2\n      div\n      mul\n      0x20\n      add\n      mload(0x40)\n      swap1\n      dup2\n      add\n      0x40\n      mstore\n      dup1\n      swap3\n      swap2\n      swap1\n      dup2\n      dup2\n      mstore\n      0x20\n      add\n      dup3\n      dup1\n      sload\n      tag_105\n      swap1\n      tag_38\n      jump\t// in\n    tag_105:\n      dup1\n      iszero\n      tag_106\n      jumpi\n      dup1\n      0x1f\n      lt\n      tag_107\n      jumpi\n      0x0100\n      dup1\n      dup4\n      sload\n      div\n      mul\n      dup4\n      mstore\n      swap2\n      0x20\n      add\n      swap2\n      jump(tag_106)\n    tag_107:\n      dup3\n      add\n      swap2\n      swap1\n      0x00\n      mstore\n      keccak256(0x00, 0x20)\n      swap1\n    tag_108:\n      dup2\n      sload\n      dup2\n      mstore\n      swap1\n      0x01\n      add\n      swap1\n      0x20\n      add\n      dup1\n      dup4\n      gt\n      tag_108\n      jumpi\n      dup3\n      swap1\n      sub\n      0x1f\n      and\n      dup3\n      add\n      swap2\n    tag_106:\n      pop\n      pop\n      pop\n      pop\n      pop\n      dup2\n      mstore\n      0x20\n      add\n      0x03\n      dup3\n      add\n      dup1\n      sload\n      tag_109\n      swap1\n      tag_38\n      jump\t// in\n    tag_109:\n      dup1\n      0x1f\n      add\n      0x20\n      dup1\n      swap2\n      div\n      mul\n      0x20\n      add\n      mload(0x40)\n      swap1\n      dup2\n      add\n      0x40\n      mstore\n      dup1\n      swap3\n      swap2\n      swap1\n      dup2\n      dup2\n      mstore\n      0x20\n      add\n      dup3\n      dup1\n      sload\n      tag_110\n      swap1\n      tag_38\n      jump\t// in\n    tag_110:\n      dup1\n      iszero\n      tag_111\n      jumpi\n      dup1\n      0x1f\n      lt\n      tag_112\n      jumpi\n      0x0100\n      dup1\n      dup4\n      sload\n      div\n      mul\n      dup4\n      mstore\n      swap2\n      0x20\n      add\n      swap2\n      jump(tag_111)\n    tag_112:\n      dup3\n      add\n      swap2\n      swap1\n      0x00\n      mstore\n      keccak256(0x00, 0x20)\n      swap1\n    tag_113:\n      dup2\n      sload\n      dup2\n      mstore\n      swap1\n      0x01\n      add\n      swap1\n      0x20\n      add\n      dup1\n      dup4\n      gt\n      tag_113\n      jumpi\n      dup3\n      swap1\n      sub\n      0x1f\n      and\n      dup3\n      add\n      swap2\n    tag_111:\n      pop\n      pop\n      pop\n      pop\n      pop\n      dup2\n      mstore\n      0x20\n      add\n      0x04\n      dup3\n      add\n      dup1\n      sload\n      tag_114\n      swap1\n      tag_38\n      jump\t// in\n    tag_114:\n      dup1\n      0x1f\n      add\n      0x20\n      dup1\n      swap2\n      div\n      mul\n      0x20\n      add\n      mload(0x40)\n      swap1\n      dup2\n      add\n      0x40\n      mstore\n      dup1\n      swap3\n      swap2\n      swap1\n      dup2\n      dup2\n      mstore\n      0x20\n      add\n      dup3\n      dup1\n      sload\n      tag_115\n      swap1\n      tag_38\n      jump\t// in\n    tag_115:\n      dup1\n      iszero\n      tag_116\n      jumpi\n      dup1\n      0x1f\n      lt\n      tag_117\n      jumpi\n      0x0100\n      dup1\n      dup4\n      sload\n      div\n      mul\n      dup4\n      mstore\n      swap2\n      0x20\n      add\n      swap2\n      jump(tag_116)\n    tag_117:\n      dup3\n      add\n      swap2\n      swap1\n      0x00\n      mstore\n      keccak256(0x00, 0x20)\n      swap1\n    tag_118:\n      dup2\n      sload\n      dup2\n      mstore\n      swap1\n      0x01\n      add\n      swap1\n      0x20\n      add\n      dup1\n      dup4\n      gt\n      tag_118\n      jumpi\n      dup3\n      swap1\n      sub\n      0x1f\n      and\n      dup3\n      add\n      swap2\n    tag_116:\n      pop\n      pop\n      pop\n      pop\n      pop\n      dup2\n      mstore\n      0x20\n      add\n      0x05\n      dup3\n      add\n      dup1\n      sload\n      tag_119\n      swap1\n      tag_38\n      jump\t// in\n    tag_119:\n      dup1\n      0x1f\n      add\n      0x20\n      dup1\n      swap2\n      div\n      mul\n      0x20\n      add\n      mload(0x40)\n      swap1\n      dup2\n      add\n      0x40\n      mstore\n      dup1\n      swap3\n      swap2\n      swap1\n      dup2\n      dup2\n      mstore\n      0x20\n      add\n      dup3\n      dup1\n      sload\n      tag_120\n      swap1\n      tag_38\n      jump\t// in\n    tag_120:\n      dup1\n      iszero\n      tag_121\n      jumpi\n      dup1\n      0x1f\n      lt\n      tag_122\n      jumpi\n      0x0100\n      dup1\n      dup4\n      sload\n      div\n      mul\n      dup4\n      mstore\n      swap2\n      0x20\n      add\n      swap2\n      jump(tag_121)\n    tag_122:\n      dup3\n      add\n      swap2\n      swap1\n      0x00\n      mstore\n      keccak256(0x00, 0x20)\n      swap1\n    tag_123:\n      dup2\n      sload\n      dup2\n      mstore\n      swap1\n      0x01\n      add\n      swap1\n      0x20\n      add\n      dup1\n      dup4\n      gt\n      tag_123\n      jumpi\n      dup3\n      swap1\n      sub\n      0x1f\n      and\n      dup3\n      add\n      swap2\n    tag_121:\n      pop\n      pop\n      pop\n      pop\n      pop\n      dup2\n      mstore\n      0x20\n      add\n      0x06\n      dup3\n      add\n      dup1\n      sload\n      tag_124\n      swap1\n      tag_38\n      jump\t// in\n    tag_124:\n      dup1\n      0x1f\n      add\n      0x20\n      dup1\n      swap2\n      div\n      mul\n      0x20\n      add\n      mload(0x40)\n      swap1\n      dup2\n      add\n      0x40\n      mstore\n      dup1\n      swap3\n      swap2\n      swap1\n      dup2\n      dup2\n      mstore\n      0x20\n      add\n      dup3\n      dup1\n      sload\n      tag_125\n      swap1\n      tag_38\n      jump\t// in\n    tag_125:\n      dup1\n      iszero\n      tag_126\n      jumpi\n      dup1\n      0x1f\n      lt\n      tag_127\n      jumpi\n      0x0100\n      dup1\n      dup4\n      sload\n      div\n      mul\n      dup4\n      mstore\n      swap2\n      0x20\n      add\n      swap2\n      jump(tag_126)\n    tag_127:\n      dup3\n      add\n      swap2\n      swap1\n      0x00\n      mstore\n      keccak256(0x00, 0x20)\n      swap1\n    tag_128:\n      dup2\n      sload\n      dup2\n      mstore\n      swap1\n      0x01\n      add\n      swap1\n      0x20\n      add\n      dup1\n      dup4\n      gt\n      tag_128\n      jumpi\n      dup3\n      swap1\n      sub\n      0x1f\n      and\n      dup3\n      add\n      swap2\n    tag_126:\n      pop\n      pop\n      pop\n      pop\n      pop\n      dup2\n      mstore\n      0x20\n      add\n      0x07\n      dup3\n      add\n      dup1\n      sload\n      tag_129\n      swap1\n      tag_38\n      jump\t// in\n    tag_129:\n      dup1\n      0x1f\n      add\n      0x20\n      dup1\n      swap2\n      div\n      mul\n      0x20\n      add\n      mload(0x40)\n      swap1\n      dup2\n      add\n      0x40\n      mstore\n      dup1\n      swap3\n      swap2\n      swap1\n      dup2\n      dup2\n      mstore\n      0x20\n      add\n      dup3\n      dup1\n      sload\n      tag_130\n      swap1\n      tag_38\n      jump\t// in\n    tag_130:\n      dup1\n      iszero\n      tag_131\n      jumpi\n      dup1\n      0x1f\n      lt\n      tag_132\n      jumpi\n      0x0100\n      dup1\n      dup4\n      sload\n      div\n      mul\n      dup4\n      mstore\n      swap2\n      0x20\n      add\n      swap2\n      jump(tag_131)\n    tag_132:\n      dup3\n      add\n      swap2\n      swap1\n      0x00\n      mstore\n      keccak256(0x00, 0x20)\n      swap1\n    tag_133:\n      dup2\n      sload\n      dup2\n      mstore\n      swap1\n      0x01\n      add\n      swap1\n      0x20\n      add\n      dup1\n      dup4\n      gt\n      tag_133\n      jumpi\n      dup3\n      swap1\n      sub\n      0x1f\n      and\n      dup3\n      add\n      swap2\n    tag_131:\n      pop\n      pop\n      pop\n      pop\n      pop\n      dup2\n      mstore\n      pop\n      pop\n      swap1\n      pop\n        /* \"IoTDataStorage.sol\":2836:2842  record */\n      dup1\n        /* \"IoTDataStorage.sol\":2836:2862  record.blockchainTimestamp */\n      0x00\n      add\n      mload\n        /* \"IoTDataStorage.sol\":2877:2883  record */\n      dup2\n        /* \"IoTDataStorage.sol\":2877:2901  record.originalTimestamp */\n      0x20\n      add\n      mload\n        /* \"IoTDataStorage.sol\":2916:2922  record */\n      dup3\n        /* \"IoTDataStorage.sol\":2916:2932  record.packageId */\n      0x40\n      add\n      mload\n        /* \"IoTDataStorage.sol\":2947:2953  record */\n      dup4\n        /* \"IoTDataStorage.sol\":2947:2961  record.rfidTag */\n      0x60\n      add\n      mload\n        /* \"IoTDataStorage.sol\":2976:2982  record */\n      dup5\n        /* \"IoTDataStorage.sol\":2976:2991  record.latitude */\n      0x80\n      add\n      mload\n        /* \"IoTDataStorage.sol\":3006:3012  record */\n      dup6\n        /* \"IoTDataStorage.sol\":3006:3022  record.longitude */\n      0xa0\n      add\n      mload\n        /* \"IoTDataStorage.sol\":3037:3043  record */\n      dup7\n        /* \"IoTDataStorage.sol\":3037:3056  record.temperatureC */\n      0xc0\n      add\n      mload\n        /* \"IoTDataStorage.sol\":3071:3077  record */\n      dup8\n        /* \"IoTDataStorage.sol\":3071:3086  record.deviceId */\n      0xe0\n      add\n      mload\n        /* \"IoTDataStorage.sol\":2814:3097  return (... */\n      swap9\n      pop\n      swap9\n      pop\n      swap9\n      pop\n      swap9\n      pop\n      swap9\n      pop\n      swap9\n      pop\n      swap9\n      pop\n      swap9\n      pop\n      pop\n        /* \"IoTDataStorage.sol\":2286:3105  function getLogisticsRecord(uint256 index) public view returns (... */\n      swap2\n      swap4\n      swap6\n      swap8\n      pop\n      swap2\n      swap4\n      swap6\n      swap8\n      jump\t// out\n        /* \"#utility.yul\":7:84   */\n    tag_134:\n        /* \"#utility.yul\":44:51   */\n      0x00\n        /* \"#utility.yul\":73:78   */\n      dup2\n        /* \"#utility.yul\":62:78   */\n      swap1\n      pop\n        /* \"#utility.yul\":7:84   */\n      swap2\n      swap1\n      pop\n      jump\t// out\n        /* \"#utility.yul\":90:208   */\n    tag_135:\n        /* \"#utility.yul\":177:201   */\n      tag_183\n        /* \"#utility.yul\":195:200   */\n      dup2\n        /* \"#utility.yul\":177:201   */\n      tag_134\n      jump\t// in\n    tag_183:\n        /* \"#utility.yul\":172:175   */\n      dup3\n        /* \"#utility.yul\":165:202   */\n      mstore\n        /* \"#utility.yul\":90:208   */\n      pop\n      pop\n      jump\t// out\n        /* \"#utility.yul\":214:436   */\n    tag_12:\n        /* \"#utility.yul\":307:311   */\n      0x00\n        /* \"#utility.yul\":345:347   */\n      0x20\n        /* \"#utility.yul\":334:343   */\n      dup3\n        /* \"#utility.yul\":330:348   */\n      add\n        /* \"#utility.yul\":322:348   */\n      swap1\n      pop\n        /* \"#utility.yul\":358:429   */\n      tag_185\n        /* \"#utility.yul\":426:427   */\n      0x00\n        /* \"#utility.yul\":415:424   */\n      dup4\n        /* \"#utility.yul\":411:428   */\n      add\n        /* \"#utility.yul\":402:408   */\n      dup5\n        /* \"#utility.yul\":358:429   */\n      tag_135\n      jump\t// in\n    tag_185:\n        /* \"#utility.yul\":214:436   */\n      swap3\n      swap2\n      pop\n      pop\n      jump\t// out\n        /* \"#utility.yul\":442:517   */\n    tag_136:\n        /* \"#utility.yul\":475:481   */\n      0x00\n        /* \"#utility.yul\":508:510   */\n      0x40\n        /* \"#utility.yul\":502:511   */\n      mload\n        /* \"#utility.yul\":492:511   */\n      swap1\n      pop\n        /* \"#utility.yul\":442:517   */\n      swap1\n      jump\t// out\n        /* \"#utility.yul\":523:640   */\n    tag_137:\n        /* \"#utility.yul\":632:633   */\n      0x00\n        /* \"#utility.yul\":629:630   */\n      0x00\n        /* \"#utility.yul\":622:634   */\n      revert\n        /* \"#utility.yul\":646:763   */\n    tag_138:\n        /* \"#utility.yul\":755:756   */\n      0x00\n        /* \"#utility.yul\":752:753   */\n      0x00\n        /* \"#utility.yul\":745:757   */\n      revert\n        /* \"#utility.yul\":769:891   */\n    tag_139:\n        /* \"#utility.yul\":842:866   */\n      tag_190\n        /* \"#utility.yul\":860:865   */\n      dup2\n        /* \"#utility.yul\":842:866   */\n      tag_134\n      jump\t// in\n    tag_190:\n        /* \"#utility.yul\":835:840   */\n      dup2\n        /* \"#utility.yul\":832:867   */\n      eq\n        /* \"#utility.yul\":822:885   */\n      tag_191\n      jumpi\n        /* \"#utility.yul\":881:882   */\n      0x00\n        /* \"#utility.yul\":878:879   */\n      0x00\n        /* \"#utility.yul\":871:883   */\n      revert\n        /* \"#utility.yul\":822:885   */\n    tag_191:\n        /* \"#utility.yul\":769:891   */\n      pop\n      jump\t// out\n        /* \"#utility.yul\":897:1036   */\n    tag_140:\n        /* \"#utility.yul\":943:948   */\n      0x00\n        /* \"#utility.yul\":981:987   */\n      dup2\n        /* \"#utility.yul\":968:988   */\n      calldataload\n        /* \"#utility.yul\":959:988   */\n      swap1\n      pop\n        /* \"#utility.yul\":997:1030   */\n      tag_193\n        /* \"#utility.yul\":1024:1029   */\n      dup2\n        /* \"#utility.yul\":997:1030   */\n      tag_139\n      jump\t// in\n    tag_193:\n        /* \"#utility.yul\":897:1036   */\n      swap3\n      swap2\n      pop\n      pop\n      jump\t// out\n        /* \"#utility.yul\":1042:1371   */\n    tag_18:\n        /* \"#utility.yul\":1101:1107   */\n      0x00\n        /* \"#utility.yul\":1150:1152   */\n      0x20\n        /* \"#utility.yul\":1138:1147   */\n      dup3\n        /* \"#utility.yul\":1129:1136   */\n      dup5\n        /* \"#utility.yul\":1125:1148   */\n      sub\n        /* \"#utility.yul\":1121:1153   */\n      slt\n        /* \"#utility.yul\":1118:1237   */\n      iszero\n      tag_195\n      jumpi\n        /* \"#utility.yul\":1156:1235   */\n      tag_196\n      tag_137\n      jump\t// in\n    tag_196:\n        /* \"#utility.yul\":1118:1237   */\n    tag_195:\n        /* \"#utility.yul\":1276:1277   */\n      0x00\n        /* \"#utility.yul\":1301:1354   */\n      tag_197\n        /* \"#utility.yul\":1346:1353   */\n      dup5\n        /* \"#utility.yul\":1337:1343   */\n      dup3\n        /* \"#utility.yul\":1326:1335   */\n      dup6\n        /* \"#utility.yul\":1322:1344   */\n      add\n        /* \"#utility.yul\":1301:1354   */\n      tag_140\n      jump\t// in\n    tag_197:\n        /* \"#utility.yul\":1291:1354   */\n      swap2\n      pop\n        /* \"#utility.yul\":1247:1364   */\n      pop\n        /* \"#utility.yul\":1042:1371   */\n      swap3\n      swap2\n      pop\n      pop\n      jump\t// out\n        /* \"#utility.yul\":1377:1476   */\n    tag_141:\n        /* \"#utility.yul\":1429:1435   */\n      0x00\n        /* \"#utility.yul\":1463:1468   */\n      dup2\n        /* \"#utility.yul\":1457:1469   */\n      mload\n        /* \"#utility.yul\":1447:1469   */\n      swap1\n      pop\n        /* \"#utility.yul\":1377:1476   */\n      swap2\n      swap1\n      pop\n      jump\t// out\n        /* \"#utility.yul\":1482:1651   */\n    tag_142:\n        /* \"#utility.yul\":1566:1577   */\n      0x00\n        /* \"#utility.yul\":1600:1606   */\n      dup3\n        /* \"#utility.yul\":1595:1598   */\n      dup3\n        /* \"#utility.yul\":1588:1607   */\n      mstore\n        /* \"#utility.yul\":1640:1644   */\n      0x20\n        /* \"#utility.yul\":1635:1638   */\n      dup3\n        /* \"#utility.yul\":1631:1645   */\n      add\n        /* \"#utility.yul\":1616:1645   */\n      swap1\n      pop\n        /* \"#utility.yul\":1482:1651   */\n      swap3\n      swap2\n      pop\n      pop\n      jump\t// out\n        /* \"#utility.yul\":1657:1796   */\n    tag_143:\n        /* \"#utility.yul\":1746:1752   */\n      dup3\n        /* \"#utility.yul\":1741:1744   */\n      dup2\n        /* \"#utility.yul\":1736:1739   */\n      dup4\n        /* \"#utility.yul\":1730:1753   */\n      mcopy\n        /* \"#utility.yul\":1787:1788   */\n      0x00\n        /* \"#utility.yul\":1778:1784   */\n      dup4\n        /* \"#utility.yul\":1773:1776   */\n      dup4\n        /* \"#utility.yul\":1769:1785   */\n      add\n        /* \"#utility.yul\":1762:1789   */\n      mstore\n        /* \"#utility.yul\":1657:1796   */\n      pop\n      pop\n      pop\n      jump\t// out\n        /* \"#utility.yul\":1802:1904   */\n    tag_144:\n        /* \"#utility.yul\":1843:1849   */\n      0x00\n        /* \"#utility.yul\":1894:1896   */\n      0x1f\n        /* \"#utility.yul\":1890:1897   */\n      not\n        /* \"#utility.yul\":1885:1887   */\n      0x1f\n        /* \"#utility.yul\":1878:1883   */\n      dup4\n        /* \"#utility.yul\":1874:1888   */\n      add\n        /* \"#utility.yul\":1870:1898   */\n      and\n        /* \"#utility.yul\":1860:1898   */\n      swap1\n      pop\n        /* \"#utility.yul\":1802:1904   */\n      swap2\n      swap1\n      pop\n      jump\t// out\n        /* \"#utility.yul\":1910:2287   */\n    tag_145:\n        /* \"#utility.yul\":1998:2001   */\n      0x00\n        /* \"#utility.yul\":2026:2065   */\n      tag_203\n        /* \"#utility.yul\":2059:2064   */\n      dup3\n        /* \"#utility.yul\":2026:2065   */\n      tag_141\n      jump\t// in\n    tag_203:\n        /* \"#utility.yul\":2081:2152   */\n      tag_204\n        /* \"#utility.yul\":2145:2151   */\n      dup2\n        /* \"#utility.yul\":2140:2143   */\n      dup6\n        /* \"#utility.yul\":2081:2152   */\n      tag_142\n      jump\t// in\n    tag_204:\n        /* \"#utility.yul\":2074:2152   */\n      swap4\n      pop\n        /* \"#utility.yul\":2161:2226   */\n      tag_205\n        /* \"#utility.yul\":2219:2225   */\n      dup2\n        /* \"#utility.yul\":2214:2217   */\n      dup6\n        /* \"#utility.yul\":2207:2211   */\n      0x20\n        /* \"#utility.yul\":2200:2205   */\n      dup7\n        /* \"#utility.yul\":2196:2212   */\n      add\n        /* \"#utility.yul\":2161:2226   */\n      tag_143\n      jump\t// in\n    tag_205:\n        /* \"#utility.yul\":2251:2280   */\n      tag_206\n        /* \"#utility.yul\":2273:2279   */\n      dup2\n        /* \"#utility.yul\":2251:2280   */\n      tag_144\n      jump\t// in\n    tag_206:\n        /* \"#utility.yul\":2246:2249   */\n      dup5\n        /* \"#utility.yul\":2242:2281   */\n      add\n        /* \"#utility.yul\":2235:2281   */\n      swap2\n      pop\n        /* \"#utility.yul\":2002:2287   */\n      pop\n        /* \"#utility.yul\":1910:2287   */\n      swap3\n      swap2\n      pop\n      pop\n      jump\t// out\n        /* \"#utility.yul\":2293:3927   */\n    tag_21:\n        /* \"#utility.yul\":2722:2726   */\n      0x00\n        /* \"#utility.yul\":2760:2763   */\n      0x0100\n        /* \"#utility.yul\":2749:2758   */\n      dup3\n        /* \"#utility.yul\":2745:2764   */\n      add\n        /* \"#utility.yul\":2737:2764   */\n      swap1\n      pop\n        /* \"#utility.yul\":2774:2845   */\n      tag_208\n        /* \"#utility.yul\":2842:2843   */\n      0x00\n        /* \"#utility.yul\":2831:2840   */\n      dup4\n        /* \"#utility.yul\":2827:2844   */\n      add\n        /* \"#utility.yul\":2818:2824   */\n      dup12\n        /* \"#utility.yul\":2774:2845   */\n      tag_135\n      jump\t// in\n    tag_208:\n        /* \"#utility.yul\":2892:2901   */\n      dup2\n        /* \"#utility.yul\":2886:2890   */\n      dup2\n        /* \"#utility.yul\":2882:2902   */\n      sub\n        /* \"#utility.yul\":2877:2879   */\n      0x20\n        /* \"#utility.yul\":2866:2875   */\n      dup4\n        /* \"#utility.yul\":2862:2880   */\n      add\n        /* \"#utility.yul\":2855:2903   */\n      mstore\n        /* \"#utility.yul\":2920:2998   */\n      tag_209\n        /* \"#utility.yul\":2993:2997   */\n      dup2\n        /* \"#utility.yul\":2984:2990   */\n      dup11\n        /* \"#utility.yul\":2920:2998   */\n      tag_145\n      jump\t// in\n    tag_209:\n        /* \"#utility.yul\":2912:2998   */\n      swap1\n      pop\n        /* \"#utility.yul\":3045:3054   */\n      dup2\n        /* \"#utility.yul\":3039:3043   */\n      dup2\n        /* \"#utility.yul\":3035:3055   */\n      sub\n        /* \"#utility.yul\":3030:3032   */\n      0x40\n        /* \"#utility.yul\":3019:3028   */\n      dup4\n        /* \"#utility.yul\":3015:3033   */\n      add\n        /* \"#utility.yul\":3008:3056   */\n      mstore\n        /* \"#utility.yul\":3073:3151   */\n      tag_210\n        /* \"#utility.yul\":3146:3150   */\n      dup2\n        /* \"#utility.yul\":3137:3143   */\n      dup10\n        /* \"#utility.yul\":3073:3151   */\n      tag_145\n      jump\t// in\n    tag_210:\n        /* \"#utility.yul\":3065:3151   */\n      swap1\n      pop\n        /* \"#utility.yul\":3198:3207   */\n      dup2\n        /* \"#utility.yul\":3192:3196   */\n      dup2\n        /* \"#utility.yul\":3188:3208   */\n      sub\n        /* \"#utility.yul\":3183:3185   */\n      0x60\n        /* \"#utility.yul\":3172:3181   */\n      dup4\n        /* \"#utility.yul\":3168:3186   */\n      add\n        /* \"#utility.yul\":3161:3209   */\n      mstore\n        /* \"#utility.yul\":3226:3304   */\n      tag_211\n        /* \"#utility.yul\":3299:3303   */\n      dup2\n        /* \"#utility.yul\":3290:3296   */\n      dup9\n        /* \"#utility.yul\":3226:3304   */\n      tag_145\n      jump\t// in\n    tag_211:\n        /* \"#utility.yul\":3218:3304   */\n      swap1\n      pop\n        /* \"#utility.yul\":3352:3361   */\n      dup2\n        /* \"#utility.yul\":3346:3350   */\n      dup2\n        /* \"#utility.yul\":3342:3362   */\n      sub\n        /* \"#utility.yul\":3336:3339   */\n      0x80\n        /* \"#utility.yul\":3325:3334   */\n      dup4\n        /* \"#utility.yul\":3321:3340   */\n      add\n        /* \"#utility.yul\":3314:3363   */\n      mstore\n        /* \"#utility.yul\":3380:3458   */\n      tag_212\n        /* \"#utility.yul\":3453:3457   */\n      dup2\n        /* \"#utility.yul\":3444:3450   */\n      dup8\n        /* \"#utility.yul\":3380:3458   */\n      tag_145\n      jump\t// in\n    tag_212:\n        /* \"#utility.yul\":3372:3458   */\n      swap1\n      pop\n        /* \"#utility.yul\":3506:3515   */\n      dup2\n        /* \"#utility.yul\":3500:3504   */\n      dup2\n        /* \"#utility.yul\":3496:3516   */\n      sub\n        /* \"#utility.yul\":3490:3493   */\n      0xa0\n        /* \"#utility.yul\":3479:3488   */\n      dup4\n        /* \"#utility.yul\":3475:3494   */\n      add\n        /* \"#utility.yul\":3468:3517   */\n      mstore\n        /* \"#utility.yul\":3534:3612   */\n      tag_213\n        /* \"#utility.yul\":3607:3611   */\n      dup2\n        /* \"#utility.yul\":3598:3604   */\n      dup7\n        /* \"#utility.yul\":3534:3612   */\n      tag_145\n      jump\t// in\n    tag_213:\n        /* \"#utility.yul\":3526:3612   */\n      swap1\n      pop\n        /* \"#utility.yul\":3660:3669   */\n      dup2\n        /* \"#utility.yul\":3654:3658   */\n      dup2\n        /* \"#utility.yul\":3650:3670   */\n      sub\n        /* \"#utility.yul\":3644:3647   */\n      0xc0\n        /* \"#utility.yul\":3633:3642   */\n      dup4\n        /* \"#utility.yul\":3629:3648   */\n      add\n        /* \"#utility.yul\":3622:3671   */\n      mstore\n        /* \"#utility.yul\":3688:3766   */\n      tag_214\n        /* \"#utility.yul\":3761:3765   */\n      dup2\n        /* \"#utility.yul\":3752:3758   */\n      dup6\n        /* \"#utility.yul\":3688:3766   */\n      tag_145\n      jump\t// in\n    tag_214:\n        /* \"#utility.yul\":3680:3766   */\n      swap1\n      pop\n        /* \"#utility.yul\":3814:3823   */\n      dup2\n        /* \"#utility.yul\":3808:3812   */\n      dup2\n        /* \"#utility.yul\":3804:3824   */\n      sub\n        /* \"#utility.yul\":3798:3801   */\n      0xe0\n        /* \"#utility.yul\":3787:3796   */\n      dup4\n        /* \"#utility.yul\":3783:3802   */\n      add\n        /* \"#utility.yul\":3776:3825   */\n      mstore\n        /* \"#utility.yul\":3842:3920   */\n      tag_215\n        /* \"#utility.yul\":3915:3919   */\n      dup2\n        /* \"#utility.yul\":3906:3912   */\n      dup5\n        /* \"#utility.yul\":3842:3920   */\n      tag_145\n      jump\t// in\n    tag_215:\n        /* \"#utility.yul\":3834:3920   */\n      swap1\n      pop\n        /* \"#utility.yul\":2293:3927   */\n      swap10\n      swap9\n      pop\n      pop\n      pop\n      pop\n      pop\n      pop\n      pop\n      pop\n      pop\n      jump\t// out\n        /* \"#utility.yul\":3933:4059   */\n    tag_146:\n        /* \"#utility.yul\":3970:3977   */\n      0x00\n        /* \"#utility.yul\":4010:4052   */\n      0xffffffffffffffffffffffffffffffffffffffff\n        /* \"#utility.yul\":4003:4008   */\n      dup3\n        /* \"#utility.yul\":3999:4053   */\n      and\n        /* \"#utility.yul\":3988:4053   */\n      swap1\n      pop\n        /* \"#utility.yul\":3933:4059   */\n      swap2\n      swap1\n      pop\n      jump\t// out\n        /* \"#utility.yul\":4065:4161   */\n    tag_147:\n        /* \"#utility.yul\":4102:4109   */\n      0x00\n        /* \"#utility.yul\":4131:4155   */\n      tag_218\n        /* \"#utility.yul\":4149:4154   */\n      dup3\n        /* \"#utility.yul\":4131:4155   */\n      tag_146\n      jump\t// in\n    tag_218:\n        /* \"#utility.yul\":4120:4155   */\n      swap1\n      pop\n        /* \"#utility.yul\":4065:4161   */\n      swap2\n      swap1\n      pop\n      jump\t// out\n        /* \"#utility.yul\":4167:4285   */\n    tag_148:\n        /* \"#utility.yul\":4254:4278   */\n      tag_220\n        /* \"#utility.yul\":4272:4277   */\n      dup2\n        /* \"#utility.yul\":4254:4278   */\n      tag_147\n      jump\t// in\n    tag_220:\n        /* \"#utility.yul\":4249:4252   */\n      dup3\n        /* \"#utility.yul\":4242:4279   */\n      mstore\n        /* \"#utility.yul\":4167:4285   */\n      pop\n      pop\n      jump\t// out\n        /* \"#utility.yul\":4291:4513   */\n    tag_25:\n        /* \"#utility.yul\":4384:4388   */\n      0x00\n        /* \"#utility.yul\":4422:4424   */\n      0x20\n        /* \"#utility.yul\":4411:4420   */\n      dup3\n        /* \"#utility.yul\":4407:4425   */\n      add\n        /* \"#utility.yul\":4399:4425   */\n      swap1\n      pop\n        /* \"#utility.yul\":4435:4506   */\n      tag_222\n        /* \"#utility.yul\":4503:4504   */\n      0x00\n        /* \"#utility.yul\":4492:4501   */\n      dup4\n        /* \"#utility.yul\":4488:4505   */\n      add\n        /* \"#utility.yul\":4479:4485   */\n      dup5\n        /* \"#utility.yul\":4435:4506   */\n      tag_148\n      jump\t// in\n    tag_222:\n        /* \"#utility.yul\":4291:4513   */\n      swap3\n      swap2\n      pop\n      pop\n      jump\t// out\n        /* \"#utility.yul\":4519:4636   */\n    tag_149:\n        /* \"#utility.yul\":4628:4629   */\n      0x00\n        /* \"#utility.yul\":4625:4626   */\n      0x00\n        /* \"#utility.yul\":4618:4630   */\n      revert\n        /* \"#utility.yul\":4642:4759   */\n    tag_150:\n        /* \"#utility.yul\":4751:4752   */\n      0x00\n        /* \"#utility.yul\":4748:4749   */\n      0x00\n        /* \"#utility.yul\":4741:4753   */\n      revert\n        /* \"#utility.yul\":4765:4945   */\n    tag_151:\n        /* \"#utility.yul\":4813:4890   */\n      0x4e487b7100000000000000000000000000000000000000000000000000000000\n        /* \"#utility.yul\":4810:4811   */\n      0x00\n        /* \"#utility.yul\":4803:4891   */\n      mstore\n        /* \"#utility.yul\":4910:4914   */\n      0x41\n        /* \"#utility.yul\":4907:4908   */\n      0x04\n        /* \"#utility.yul\":4900:4915   */\n      mstore\n        /* \"#utility.yul\":4934:4938   */\n      0x24\n        /* \"#utility.yul\":4931:4932   */\n      0x00\n        /* \"#utility.yul\":4924:4939   */\n      revert\n        /* \"#utility.yul\":4951:5232   */\n    tag_152:\n        /* \"#utility.yul\":5034:5061   */\n      tag_227\n        /* \"#utility.yul\":5056:5060   */\n      dup3\n        /* \"#utility.yul\":5034:5061   */\n      tag_144\n      jump\t// in\n    tag_227:\n        /* \"#utility.yul\":5026:5032   */\n      dup2\n        /* \"#utility.yul\":5022:5062   */\n      add\n        /* \"#utility.yul\":5164:5170   */\n      dup2\n        /* \"#utility.yul\":5152:5162   */\n      dup2\n        /* \"#utility.yul\":5149:5171   */\n      lt\n        /* \"#utility.yul\":5128:5146   */\n      0xffffffffffffffff\n        /* \"#utility.yul\":5116:5126   */\n      dup3\n        /* \"#utility.yul\":5113:5147   */\n      gt\n        /* \"#utility.yul\":5110:5172   */\n      or\n        /* \"#utility.yul\":5107:5195   */\n      iszero\n      tag_228\n      jumpi\n        /* \"#utility.yul\":5175:5193   */\n      tag_229\n      tag_151\n      jump\t// in\n    tag_229:\n        /* \"#utility.yul\":5107:5195   */\n    tag_228:\n        /* \"#utility.yul\":5215:5225   */\n      dup1\n        /* \"#utility.yul\":5211:5213   */\n      0x40\n        /* \"#utility.yul\":5204:5226   */\n      mstore\n        /* \"#utility.yul\":4994:5232   */\n      pop\n        /* \"#utility.yul\":4951:5232   */\n      pop\n      pop\n      jump\t// out\n        /* \"#utility.yul\":5238:5367   */\n    tag_153:\n        /* \"#utility.yul\":5272:5278   */\n      0x00\n        /* \"#utility.yul\":5299:5319   */\n      tag_231\n      tag_136\n      jump\t// in\n    tag_231:\n        /* \"#utility.yul\":5289:5319   */\n      swap1\n      pop\n        /* \"#utility.yul\":5328:5361   */\n      tag_232\n        /* \"#utility.yul\":5356:5360   */\n      dup3\n        /* \"#utility.yul\":5348:5354   */\n      dup3\n        /* \"#utility.yul\":5328:5361   */\n      tag_152\n      jump\t// in\n    tag_232:\n        /* \"#utility.yul\":5238:5367   */\n      swap2\n      swap1\n      pop\n      jump\t// out\n        /* \"#utility.yul\":5373:5681   */\n    tag_154:\n        /* \"#utility.yul\":5435:5439   */\n      0x00\n        /* \"#utility.yul\":5525:5543   */\n      0xffffffffffffffff\n        /* \"#utility.yul\":5517:5523   */\n      dup3\n        /* \"#utility.yul\":5514:5544   */\n      gt\n        /* \"#utility.yul\":5511:5567   */\n      iszero\n      tag_234\n      jumpi\n        /* \"#utility.yul\":5547:5565   */\n      tag_235\n      tag_151\n      jump\t// in\n    tag_235:\n        /* \"#utility.yul\":5511:5567   */\n    tag_234:\n        /* \"#utility.yul\":5585:5614   */\n      tag_236\n        /* \"#utility.yul\":5607:5613   */\n      dup3\n        /* \"#utility.yul\":5585:5614   */\n      tag_144\n      jump\t// in\n    tag_236:\n        /* \"#utility.yul\":5577:5614   */\n      swap1\n      pop\n        /* \"#utility.yul\":5669:5673   */\n      0x20\n        /* \"#utility.yul\":5663:5667   */\n      dup2\n        /* \"#utility.yul\":5659:5674   */\n      add\n        /* \"#utility.yul\":5651:5674   */\n      swap1\n      pop\n        /* \"#utility.yul\":5373:5681   */\n      swap2\n      swap1\n      pop\n      jump\t// out\n        /* \"#utility.yul\":5687:5835   */\n    tag_155:\n        /* \"#utility.yul\":5785:5791   */\n      dup3\n        /* \"#utility.yul\":5780:5783   */\n      dup2\n        /* \"#utility.yul\":5775:5778   */\n      dup4\n        /* \"#utility.yul\":5762:5792   */\n      calldatacopy\n        /* \"#utility.yul\":5826:5827   */\n      0x00\n        /* \"#utility.yul\":5817:5823   */\n      dup4\n        /* \"#utility.yul\":5812:5815   */\n      dup4\n        /* \"#utility.yul\":5808:5824   */\n      add\n        /* \"#utility.yul\":5801:5828   */\n      mstore\n        /* \"#utility.yul\":5687:5835   */\n      pop\n      pop\n      pop\n      jump\t// out\n        /* \"#utility.yul\":5841:6266   */\n    tag_156:\n        /* \"#utility.yul\":5919:5924   */\n      0x00\n        /* \"#utility.yul\":5944:6010   */\n      tag_239\n        /* \"#utility.yul\":5960:6009   */\n      tag_240\n        /* \"#utility.yul\":6002:6008   */\n      dup5\n        /* \"#utility.yul\":5960:6009   */\n      tag_154\n      jump\t// in\n    tag_240:\n        /* \"#utility.yul\":5944:6010   */\n      tag_153\n      jump\t// in\n    tag_239:\n        /* \"#utility.yul\":5935:6010   */\n      swap1\n      pop\n        /* \"#utility.yul\":6033:6039   */\n      dup3\n        /* \"#utility.yul\":6026:6031   */\n      dup2\n        /* \"#utility.yul\":6019:6040   */\n      mstore\n        /* \"#utility.yul\":6071:6075   */\n      0x20\n        /* \"#utility.yul\":6064:6069   */\n      dup2\n        /* \"#utility.yul\":6060:6076   */\n      add\n        /* \"#utility.yul\":6109:6112   */\n      dup5\n        /* \"#utility.yul\":6100:6106   */\n      dup5\n        /* \"#utility.yul\":6095:6098   */\n      dup5\n        /* \"#utility.yul\":6091:6107   */\n      add\n        /* \"#utility.yul\":6088:6113   */\n      gt\n        /* \"#utility.yul\":6085:6197   */\n      iszero\n      tag_241\n      jumpi\n        /* \"#utility.yul\":6116:6195   */\n      tag_242\n      tag_150\n      jump\t// in\n    tag_242:\n        /* \"#utility.yul\":6085:6197   */\n    tag_241:\n        /* \"#utility.yul\":6206:6260   */\n      tag_243\n        /* \"#utility.yul\":6253:6259   */\n      dup5\n        /* \"#utility.yul\":6248:6251   */\n      dup3\n        /* \"#utility.yul\":6243:6246   */\n      dup6\n        /* \"#utility.yul\":6206:6260   */\n      tag_155\n      jump\t// in\n    tag_243:\n        /* \"#utility.yul\":5925:6266   */\n      pop\n        /* \"#utility.yul\":5841:6266   */\n      swap4\n      swap3\n      pop\n      pop\n      pop\n      jump\t// out\n        /* \"#utility.yul\":6286:6626   */\n    tag_157:\n        /* \"#utility.yul\":6342:6347   */\n      0x00\n        /* \"#utility.yul\":6391:6394   */\n      dup3\n        /* \"#utility.yul\":6384:6388   */\n      0x1f\n        /* \"#utility.yul\":6376:6382   */\n      dup4\n        /* \"#utility.yul\":6372:6389   */\n      add\n        /* \"#utility.yul\":6368:6395   */\n      slt\n        /* \"#utility.yul\":6358:6480   */\n      tag_245\n      jumpi\n        /* \"#utility.yul\":6399:6478   */\n      tag_246\n      tag_149\n      jump\t// in\n    tag_246:\n        /* \"#utility.yul\":6358:6480   */\n    tag_245:\n        /* \"#utility.yul\":6516:6522   */\n      dup2\n        /* \"#utility.yul\":6503:6523   */\n      calldataload\n        /* \"#utility.yul\":6541:6620   */\n      tag_247\n        /* \"#utility.yul\":6616:6619   */\n      dup5\n        /* \"#utility.yul\":6608:6614   */\n      dup3\n        /* \"#utility.yul\":6601:6605   */\n      0x20\n        /* \"#utility.yul\":6593:6599   */\n      dup7\n        /* \"#utility.yul\":6589:6606   */\n      add\n        /* \"#utility.yul\":6541:6620   */\n      tag_156\n      jump\t// in\n    tag_247:\n        /* \"#utility.yul\":6532:6620   */\n      swap2\n      pop\n        /* \"#utility.yul\":6348:6626   */\n      pop\n        /* \"#utility.yul\":6286:6626   */\n      swap3\n      swap2\n      pop\n      pop\n      jump\t// out\n        /* \"#utility.yul\":6632:9095   */\n    tag_28:\n        /* \"#utility.yul\":6815:6821   */\n      0x00\n        /* \"#utility.yul\":6823:6829   */\n      0x00\n        /* \"#utility.yul\":6831:6837   */\n      0x00\n        /* \"#utility.yul\":6839:6845   */\n      0x00\n        /* \"#utility.yul\":6847:6853   */\n      0x00\n        /* \"#utility.yul\":6855:6861   */\n      0x00\n        /* \"#utility.yul\":6863:6869   */\n      0x00\n        /* \"#utility.yul\":6912:6915   */\n      0xe0\n        /* \"#utility.yul\":6900:6909   */\n      dup9\n        /* \"#utility.yul\":6891:6898   */\n      dup11\n        /* \"#utility.yul\":6887:6910   */\n      sub\n        /* \"#utility.yul\":6883:6916   */\n      slt\n        /* \"#utility.yul\":6880:7000   */\n      iszero\n      tag_249\n      jumpi\n        /* \"#utility.yul\":6919:6998   */\n      tag_250\n      tag_137\n      jump\t// in\n    tag_250:\n        /* \"#utility.yul\":6880:7000   */\n    tag_249:\n        /* \"#utility.yul\":7067:7068   */\n      0x00\n        /* \"#utility.yul\":7056:7065   */\n      dup9\n        /* \"#utility.yul\":7052:7069   */\n      add\n        /* \"#utility.yul\":7039:7070   */\n      calldataload\n        /* \"#utility.yul\":7097:7115   */\n      0xffffffffffffffff\n        /* \"#utility.yul\":7089:7095   */\n      dup2\n        /* \"#utility.yul\":7086:7116   */\n      gt\n        /* \"#utility.yul\":7083:7200   */\n      iszero\n      tag_251\n      jumpi\n        /* \"#utility.yul\":7119:7198   */\n      tag_252\n      tag_138\n      jump\t// in\n    tag_252:\n        /* \"#utility.yul\":7083:7200   */\n    tag_251:\n        /* \"#utility.yul\":7224:7287   */\n      tag_253\n        /* \"#utility.yul\":7279:7286   */\n      dup11\n        /* \"#utility.yul\":7270:7276   */\n      dup3\n        /* \"#utility.yul\":7259:7268   */\n      dup12\n        /* \"#utility.yul\":7255:7277   */\n      add\n        /* \"#utility.yul\":7224:7287   */\n      tag_157\n      jump\t// in\n    tag_253:\n        /* \"#utility.yul\":7214:7287   */\n      swap8\n      pop\n        /* \"#utility.yul\":7010:7297   */\n      pop\n        /* \"#utility.yul\":7364:7366   */\n      0x20\n        /* \"#utility.yul\":7353:7362   */\n      dup9\n        /* \"#utility.yul\":7349:7367   */\n      add\n        /* \"#utility.yul\":7336:7368   */\n      calldataload\n        /* \"#utility.yul\":7395:7413   */\n      0xffffffffffffffff\n        /* \"#utility.yul\":7387:7393   */\n      dup2\n        /* \"#utility.yul\":7384:7414   */\n      gt\n        /* \"#utility.yul\":7381:7498   */\n      iszero\n      tag_254\n      jumpi\n        /* \"#utility.yul\":7417:7496   */\n      tag_255\n      tag_138\n      jump\t// in\n    tag_255:\n        /* \"#utility.yul\":7381:7498   */\n    tag_254:\n        /* \"#utility.yul\":7522:7585   */\n      tag_256\n        /* \"#utility.yul\":7577:7584   */\n      dup11\n        /* \"#utility.yul\":7568:7574   */\n      dup3\n        /* \"#utility.yul\":7557:7566   */\n      dup12\n        /* \"#utility.yul\":7553:7575   */\n      add\n        /* \"#utility.yul\":7522:7585   */\n      tag_157\n      jump\t// in\n    tag_256:\n        /* \"#utility.yul\":7512:7585   */\n      swap7\n      pop\n        /* \"#utility.yul\":7307:7595   */\n      pop\n        /* \"#utility.yul\":7662:7664   */\n      0x40\n        /* \"#utility.yul\":7651:7660   */\n      dup9\n        /* \"#utility.yul\":7647:7665   */\n      add\n        /* \"#utility.yul\":7634:7666   */\n      calldataload\n        /* \"#utility.yul\":7693:7711   */\n      0xffffffffffffffff\n        /* \"#utility.yul\":7685:7691   */\n      dup2\n        /* \"#utility.yul\":7682:7712   */\n      gt\n        /* \"#utility.yul\":7679:7796   */\n      iszero\n      tag_257\n      jumpi\n        /* \"#utility.yul\":7715:7794   */\n      tag_258\n      tag_138\n      jump\t// in\n    tag_258:\n        /* \"#utility.yul\":7679:7796   */\n    tag_257:\n        /* \"#utility.yul\":7820:7883   */\n      tag_259\n        /* \"#utility.yul\":7875:7882   */\n      dup11\n        /* \"#utility.yul\":7866:7872   */\n      dup3\n        /* \"#utility.yul\":7855:7864   */\n      dup12\n        /* \"#utility.yul\":7851:7873   */\n      add\n        /* \"#utility.yul\":7820:7883   */\n      tag_157\n      jump\t// in\n    tag_259:\n        /* \"#utility.yul\":7810:7883   */\n      swap6\n      pop\n        /* \"#utility.yul\":7605:7893   */\n      pop\n        /* \"#utility.yul\":7960:7962   */\n      0x60\n        /* \"#utility.yul\":7949:7958   */\n      dup9\n        /* \"#utility.yul\":7945:7963   */\n      add\n        /* \"#utility.yul\":7932:7964   */\n      calldataload\n        /* \"#utility.yul\":7991:8009   */\n      0xffffffffffffffff\n        /* \"#utility.yul\":7983:7989   */\n      dup2\n        /* \"#utility.yul\":7980:8010   */\n      gt\n        /* \"#utility.yul\":7977:8094   */\n      iszero\n      tag_260\n      jumpi\n        /* \"#utility.yul\":8013:8092   */\n      tag_261\n      tag_138\n      jump\t// in\n    tag_261:\n        /* \"#utility.yul\":7977:8094   */\n    tag_260:\n        /* \"#utility.yul\":8118:8181   */\n      tag_262\n        /* \"#utility.yul\":8173:8180   */\n      dup11\n        /* \"#utility.yul\":8164:8170   */\n      dup3\n        /* \"#utility.yul\":8153:8162   */\n      dup12\n        /* \"#utility.yul\":8149:8171   */\n      add\n        /* \"#utility.yul\":8118:8181   */\n      tag_157\n      jump\t// in\n    tag_262:\n        /* \"#utility.yul\":8108:8181   */\n      swap5\n      pop\n        /* \"#utility.yul\":7903:8191   */\n      pop\n        /* \"#utility.yul\":8258:8261   */\n      0x80\n        /* \"#utility.yul\":8247:8256   */\n      dup9\n        /* \"#utility.yul\":8243:8262   */\n      add\n        /* \"#utility.yul\":8230:8263   */\n      calldataload\n        /* \"#utility.yul\":8290:8308   */\n      0xffffffffffffffff\n        /* \"#utility.yul\":8282:8288   */\n      dup2\n        /* \"#utility.yul\":8279:8309   */\n      gt\n        /* \"#utility.yul\":8276:8393   */\n      iszero\n      tag_263\n      jumpi\n        /* \"#utility.yul\":8312:8391   */\n      tag_264\n      tag_138\n      jump\t// in\n    tag_264:\n        /* \"#utility.yul\":8276:8393   */\n    tag_263:\n        /* \"#utility.yul\":8417:8480   */\n      tag_265\n        /* \"#utility.yul\":8472:8479   */\n      dup11\n        /* \"#utility.yul\":8463:8469   */\n      dup3\n        /* \"#utility.yul\":8452:8461   */\n      dup12\n        /* \"#utility.yul\":8448:8470   */\n      add\n        /* \"#utility.yul\":8417:8480   */\n      tag_157\n      jump\t// in\n    tag_265:\n        /* \"#utility.yul\":8407:8480   */\n      swap4\n      pop\n        /* \"#utility.yul\":8201:8490   */\n      pop\n        /* \"#utility.yul\":8557:8560   */\n      0xa0\n        /* \"#utility.yul\":8546:8555   */\n      dup9\n        /* \"#utility.yul\":8542:8561   */\n      add\n        /* \"#utility.yul\":8529:8562   */\n      calldataload\n        /* \"#utility.yul\":8589:8607   */\n      0xffffffffffffffff\n        /* \"#utility.yul\":8581:8587   */\n      dup2\n        /* \"#utility.yul\":8578:8608   */\n      gt\n        /* \"#utility.yul\":8575:8692   */\n      iszero\n      tag_266\n      jumpi\n        /* \"#utility.yul\":8611:8690   */\n      tag_267\n      tag_138\n      jump\t// in\n    tag_267:\n        /* \"#utility.yul\":8575:8692   */\n    tag_266:\n        /* \"#utility.yul\":8716:8779   */\n      tag_268\n        /* \"#utility.yul\":8771:8778   */\n      dup11\n        /* \"#utility.yul\":8762:8768   */\n      dup3\n        /* \"#utility.yul\":8751:8760   */\n      dup12\n        /* \"#utility.yul\":8747:8769   */\n      add\n        /* \"#utility.yul\":8716:8779   */\n      tag_157\n      jump\t// in\n    tag_268:\n        /* \"#utility.yul\":8706:8779   */\n      swap3\n      pop\n        /* \"#utility.yul\":8500:8789   */\n      pop\n        /* \"#utility.yul\":8856:8859   */\n      0xc0\n        /* \"#utility.yul\":8845:8854   */\n      dup9\n        /* \"#utility.yul\":8841:8860   */\n      add\n        /* \"#utility.yul\":8828:8861   */\n      calldataload\n        /* \"#utility.yul\":8888:8906   */\n      0xffffffffffffffff\n        /* \"#utility.yul\":8880:8886   */\n      dup2\n        /* \"#utility.yul\":8877:8907   */\n      gt\n        /* \"#utility.yul\":8874:8991   */\n      iszero\n      tag_269\n      jumpi\n        /* \"#utility.yul\":8910:8989   */\n      tag_270\n      tag_138\n      jump\t// in\n    tag_270:\n        /* \"#utility.yul\":8874:8991   */\n    tag_269:\n        /* \"#utility.yul\":9015:9078   */\n      tag_271\n        /* \"#utility.yul\":9070:9077   */\n      dup11\n        /* \"#utility.yul\":9061:9067   */\n      dup3\n        /* \"#utility.yul\":9050:9059   */\n      dup12\n        /* \"#utility.yul\":9046:9068   */\n      add\n        /* \"#utility.yul\":9015:9078   */\n      tag_157\n      jump\t// in\n    tag_271:\n        /* \"#utility.yul\":9005:9078   */\n      swap2\n      pop\n        /* \"#utility.yul\":8799:9088   */\n      pop\n        /* \"#utility.yul\":6632:9095   */\n      swap3\n      swap6\n      swap9\n      swap2\n      swap5\n      swap8\n      pop\n      swap3\n      swap6\n      pop\n      jump\t// out\n        /* \"#utility.yul\":9101:9281   */\n    tag_158:\n        /* \"#utility.yul\":9149:9226   */\n      0x4e487b7100000000000000000000000000000000000000000000000000000000\n        /* \"#utility.yul\":9146:9147   */\n      0x00\n        /* \"#utility.yul\":9139:9227   */\n      mstore\n        /* \"#utility.yul\":9246:9250   */\n      0x22\n        /* \"#utility.yul\":9243:9244   */\n      0x04\n        /* \"#utility.yul\":9236:9251   */\n      mstore\n        /* \"#utility.yul\":9270:9274   */\n      0x24\n        /* \"#utility.yul\":9267:9268   */\n      0x00\n        /* \"#utility.yul\":9260:9275   */\n      revert\n        /* \"#utility.yul\":9287:9607   */\n    tag_38:\n        /* \"#utility.yul\":9331:9337   */\n      0x00\n        /* \"#utility.yul\":9368:9369   */\n      0x02\n        /* \"#utility.yul\":9362:9366   */\n      dup3\n        /* \"#utility.yul\":9358:9370   */\n      div\n        /* \"#utility.yul\":9348:9370   */\n      swap1\n      pop\n        /* \"#utility.yul\":9415:9416   */\n      0x01\n        /* \"#utility.yul\":9409:9413   */\n      dup3\n        /* \"#utility.yul\":9405:9417   */\n      and\n        /* \"#utility.yul\":9436:9454   */\n      dup1\n        /* \"#utility.yul\":9426:9507   */\n      tag_274\n      jumpi\n        /* \"#utility.yul\":9492:9496   */\n      0x7f\n        /* \"#utility.yul\":9484:9490   */\n      dup3\n        /* \"#utility.yul\":9480:9497   */\n      and\n        /* \"#utility.yul\":9470:9497   */\n      swap2\n      pop\n        /* \"#utility.yul\":9426:9507   */\n    tag_274:\n        /* \"#utility.yul\":9554:9556   */\n      0x20\n        /* \"#utility.yul\":9546:9552   */\n      dup3\n        /* \"#utility.yul\":9543:9557   */\n      lt\n        /* \"#utility.yul\":9523:9541   */\n      dup2\n        /* \"#utility.yul\":9520:9558   */\n      sub\n        /* \"#utility.yul\":9517:9601   */\n      tag_275\n      jumpi\n        /* \"#utility.yul\":9573:9591   */\n      tag_276\n      tag_158\n      jump\t// in\n    tag_276:\n        /* \"#utility.yul\":9517:9601   */\n    tag_275:\n        /* \"#utility.yul\":9338:9607   */\n      pop\n        /* \"#utility.yul\":9287:9607   */\n      swap2\n      swap1\n      pop\n      jump\t// out\n        /* \"#utility.yul\":9613:9860   */\n    tag_159:\n        /* \"#utility.yul\":9753:9787   */\n      0x4e6f7420617574686f72697a65643a204f6e6c7920636f6e7472616374206f77\n        /* \"#utility.yul\":9749:9750   */\n      0x00\n        /* \"#utility.yul\":9741:9747   */\n      dup3\n        /* \"#utility.yul\":9737:9751   */\n      add\n        /* \"#utility.yul\":9730:9788   */\n      mstore\n        /* \"#utility.yul\":9822:9852   */\n      0x6e65722063616e20706572666f726d207468697320616374696f6e2e00000000\n        /* \"#utility.yul\":9817:9819   */\n      0x20\n        /* \"#utility.yul\":9809:9815   */\n      dup3\n        /* \"#utility.yul\":9805:9820   */\n      add\n        /* \"#utility.yul\":9798:9853   */\n      mstore\n        /* \"#utility.yul\":9613:9860   */\n      pop\n      jump\t// out\n        /* \"#utility.yul\":9866:10232   */\n    tag_160:\n        /* \"#utility.yul\":10008:10011   */\n      0x00\n        /* \"#utility.yul\":10029:10096   */\n      tag_279\n        /* \"#utility.yul\":10093:10095   */\n      0x3c\n        /* \"#utility.yul\":10088:10091   */\n      dup4\n        /* \"#utility.yul\":10029:10096   */\n      tag_142\n      jump\t// in\n    tag_279:\n        /* \"#utility.yul\":10022:10096   */\n      swap2\n      pop\n        /* \"#utility.yul\":10105:10198   */\n      tag_280\n        /* \"#utility.yul\":10194:10197   */\n      dup3\n        /* \"#utility.yul\":10105:10198   */\n      tag_159\n      jump\t// in\n    tag_280:\n        /* \"#utility.yul\":10223:10225   */\n      0x40\n        /* \"#utility.yul\":10218:10221   */\n      dup3\n        /* \"#utility.yul\":10214:10226   */\n      add\n        /* \"#utility.yul\":10207:10226   */\n      swap1\n      pop\n        /* \"#utility.yul\":9866:10232   */\n      swap2\n      swap1\n      pop\n      jump\t// out\n        /* \"#utility.yul\":10238:10657   */\n    tag_76:\n        /* \"#utility.yul\":10404:10408   */\n      0x00\n        /* \"#utility.yul\":10442:10444   */\n      0x20\n        /* \"#utility.yul\":10431:10440   */\n      dup3\n        /* \"#utility.yul\":10427:10445   */\n      add\n        /* \"#utility.yul\":10419:10445   */\n      swap1\n      pop\n        /* \"#utility.yul\":10491:10500   */\n      dup2\n        /* \"#utility.yul\":10485:10489   */\n      dup2\n        /* \"#utility.yul\":10481:10501   */\n      sub\n        /* \"#utility.yul\":10477:10478   */\n      0x00\n        /* \"#utility.yul\":10466:10475   */\n      dup4\n        /* \"#utility.yul\":10462:10479   */\n      add\n        /* \"#utility.yul\":10455:10502   */\n      mstore\n        /* \"#utility.yul\":10519:10650   */\n      tag_282\n        /* \"#utility.yul\":10645:10649   */\n      dup2\n        /* \"#utility.yul\":10519:10650   */\n      tag_160\n      jump\t// in\n    tag_282:\n        /* \"#utility.yul\":10511:10650   */\n      swap1\n      pop\n        /* \"#utility.yul\":10238:10657   */\n      swap2\n      swap1\n      pop\n      jump\t// out\n        /* \"#utility.yul\":10663:10897   */\n    tag_161:\n        /* \"#utility.yul\":10803:10837   */\n      0x53746f72616765206c696d697420726561636865643a2043616e6e6f74206164\n        /* \"#utility.yul\":10799:10800   */\n      0x00\n        /* \"#utility.yul\":10791:10797   */\n      dup3\n        /* \"#utility.yul\":10787:10801   */\n      add\n        /* \"#utility.yul\":10780:10838   */\n      mstore\n        /* \"#utility.yul\":10872:10889   */\n      0x64206d6f7265207265636f7264732e0000000000000000000000000000000000\n        /* \"#utility.yul\":10867:10869   */\n      0x20\n        /* \"#utility.yul\":10859:10865   */\n      dup3\n        /* \"#utility.yul\":10855:10870   */\n      add\n        /* \"#utility.yul\":10848:10890   */\n      mstore\n        /* \"#utility.yul\":10663:10897   */\n      pop\n      jump\t// out\n        /* \"#utility.yul\":10903:11269   */\n    tag_162:\n        /* \"#utility.yul\":11045:11048   */\n      0x00\n        /* \"#utility.yul\":11066:11133   */\n      tag_285\n        /* \"#utility.yul\":11130:11132   */\n      0x2f\n        /* \"#utility.yul\":11125:11128   */\n      dup4\n        /* \"#utility.yul\":11066:11133   */\n      tag_142\n      jump\t// in\n    tag_285:\n        /* \"#utility.yul\":11059:11133   */\n      swap2\n      pop\n        /* \"#utility.yul\":11142:11235   */\n      tag_286\n        /* \"#utility.yul\":11231:11234   */\n      dup3\n        /* \"#utility.yul\":11142:11235   */\n      tag_161\n      jump\t// in\n    tag_286:\n        /* \"#utility.yul\":11260:11262   */\n      0x40\n        /* \"#utility.yul\":11255:11258   */\n      dup3\n        /* \"#utility.yul\":11251:11263   */\n      add\n        /* \"#utility.yul\":11244:11263   */\n      swap1\n      pop\n        /* \"#utility.yul\":10903:11269   */\n      swap2\n      swap1\n      pop\n      jump\t// out\n        /* \"#utility.yul\":11275:11694   */\n    tag_80:\n        /* \"#utility.yul\":11441:11445   */\n      0x00\n        /* \"#utility.yul\":11479:11481   */\n      0x20\n        /* \"#utility.yul\":11468:11477   */\n      dup3\n        /* \"#utility.yul\":11464:11482   */\n      add\n        /* \"#utility.yul\":11456:11482   */\n      swap1\n      pop\n        /* \"#utility.yul\":11528:11537   */\n      dup2\n        /* \"#utility.yul\":11522:11526   */\n      dup2\n        /* \"#utility.yul\":11518:11538   */\n      sub\n        /* \"#utility.yul\":11514:11515   */\n      0x00\n        /* \"#utility.yul\":11503:11512   */\n      dup4\n        /* \"#utility.yul\":11499:11516   */\n      add\n        /* \"#utility.yul\":11492:11539   */\n      mstore\n        /* \"#utility.yul\":11556:11687   */\n      tag_288\n        /* \"#utility.yul\":11682:11686   */\n      dup2\n        /* \"#utility.yul\":11556:11687   */\n      tag_162\n      jump\t// in\n    tag_288:\n        /* \"#utility.yul\":11548:11687   */\n      swap1\n      pop\n        /* \"#utility.yul\":11275:11694   */\n      swap2\n      swap1\n      pop\n      jump\t// out\n        /* \"#utility.yul\":11700:11841   */\n    tag_163:\n        /* \"#utility.yul\":11749:11753   */\n      0x00\n        /* \"#utility.yul\":11772:11775   */\n      dup2\n        /* \"#utility.yul\":11764:11775   */\n      swap1\n      pop\n        /* \"#utility.yul\":11795:11798   */\n      dup2\n        /* \"#utility.yul\":11792:11793   */\n      0x00\n        /* \"#utility.yul\":11785:11799   */\n      mstore\n        /* \"#utility.yul\":11829:11833   */\n      0x20\n        /* \"#utility.yul\":11826:11827   */\n      0x00\n        /* \"#utility.yul\":11816:11834   */\n      keccak256\n        /* \"#utility.yul\":11808:11834   */\n      swap1\n      pop\n        /* \"#utility.yul\":11700:11841   */\n      swap2\n      swap1\n      pop\n      jump\t// out\n        /* \"#utility.yul\":11847:11940   */\n    tag_164:\n        /* \"#utility.yul\":11884:11890   */\n      0x00\n        /* \"#utility.yul\":11931:11933   */\n      0x20\n        /* \"#utility.yul\":11926:11928   */\n      0x1f\n        /* \"#utility.yul\":11919:11924   */\n      dup4\n        /* \"#utility.yul\":11915:11929   */\n      add\n        /* \"#utility.yul\":11911:11934   */\n      div\n        /* \"#utility.yul\":11901:11934   */\n      swap1\n      pop\n        /* \"#utility.yul\":11847:11940   */\n      swap2\n      swap1\n      pop\n      jump\t// out\n        /* \"#utility.yul\":11946:12053   */\n    tag_165:\n        /* \"#utility.yul\":11990:11998   */\n      0x00\n        /* \"#utility.yul\":12040:12045   */\n      dup3\n        /* \"#utility.yul\":12034:12038   */\n      dup3\n        /* \"#utility.yul\":12030:12046   */\n      shl\n        /* \"#utility.yul\":12009:12046   */\n      swap1\n      pop\n        /* \"#utility.yul\":11946:12053   */\n      swap3\n      swap2\n      pop\n      pop\n      jump\t// out\n        /* \"#utility.yul\":12059:12452   */\n    tag_166:\n        /* \"#utility.yul\":12128:12134   */\n      0x00\n        /* \"#utility.yul\":12178:12179   */\n      0x08\n        /* \"#utility.yul\":12166:12176   */\n      dup4\n        /* \"#utility.yul\":12162:12180   */\n      mul\n        /* \"#utility.yul\":12201:12298   */\n      tag_293\n        /* \"#utility.yul\":12231:12297   */\n      0xffffffffffffffffffffffffffffffffffffffffffffffffffffffffffffffff\n        /* \"#utility.yul\":12220:12229   */\n      dup3\n        /* \"#utility.yul\":12201:12298   */\n      tag_165\n      jump\t// in\n    tag_293:\n        /* \"#utility.yul\":12319:12358   */\n      tag_294\n        /* \"#utility.yul\":12349:12357   */\n      dup7\n        /* \"#utility.yul\":12338:12347   */\n      dup4\n        /* \"#utility.yul\":12319:12358   */\n      tag_165\n      jump\t// in\n    tag_294:\n        /* \"#utility.yul\":12307:12358   */\n      swap6\n      pop\n        /* \"#utility.yul\":12391:12395   */\n      dup1\n        /* \"#utility.yul\":12387:12396   */\n      not\n        /* \"#utility.yul\":12380:12385   */\n      dup5\n        /* \"#utility.yul\":12376:12397   */\n      and\n        /* \"#utility.yul\":12367:12397   */\n      swap4\n      pop\n        /* \"#utility.yul\":12440:12444   */\n      dup1\n        /* \"#utility.yul\":12430:12438   */\n      dup7\n        /* \"#utility.yul\":12426:12445   */\n      and\n        /* \"#utility.yul\":12419:12424   */\n      dup5\n        /* \"#utility.yul\":12416:12446   */\n      or\n        /* \"#utility.yul\":12406:12446   */\n      swap3\n      pop\n        /* \"#utility.yul\":12135:12452   */\n      pop\n      pop\n        /* \"#utility.yul\":12059:12452   */\n      swap4\n      swap3\n      pop\n      pop\n      pop\n      jump\t// out\n        /* \"#utility.yul\":12458:12518   */\n    tag_167:\n        /* \"#utility.yul\":12486:12489   */\n      0x00\n        /* \"#utility.yul\":12507:12512   */\n      dup2\n        /* \"#utility.yul\":12500:12512   */\n      swap1\n      pop\n        /* \"#utility.yul\":12458:12518   */\n      swap2\n      swap1\n      pop\n      jump\t// out\n        /* \"#utility.yul\":12524:12666   */\n    tag_168:\n        /* \"#utility.yul\":12574:12583   */\n      0x00\n        /* \"#utility.yul\":12607:12660   */\n      tag_297\n        /* \"#utility.yul\":12625:12659   */\n      tag_298\n        /* \"#utility.yul\":12634:12658   */\n      tag_299\n        /* \"#utility.yul\":12652:12657   */\n      dup5\n        /* \"#utility.yul\":12634:12658   */\n      tag_134\n      jump\t// in\n    tag_299:\n        /* \"#utility.yul\":12625:12659   */\n      tag_167\n      jump\t// in\n    tag_298:\n        /* \"#utility.yul\":12607:12660   */\n      tag_134\n      jump\t// in\n    tag_297:\n        /* \"#utility.yul\":12594:12660   */\n      swap1\n      pop\n        /* \"#utility.yul\":12524:12666   */\n      swap2\n      swap1\n      pop\n      jump\t// out\n        /* \"#utility.yul\":12672:12747   */\n    tag_169:\n        /* \"#utility.yul\":12715:12718   */\n      0x00\n        /* \"#utility.yul\":12736:12741   */\n      dup2\n        /* \"#utility.yul\":12729:12741   */\n      swap1\n      pop\n        /* \"#utility.yul\":12672:12747   */\n      swap2\n      swap1\n      pop\n      jump\t// out\n        /* \"#utility.yul\":12753:13022   */\n    tag_170:\n        /* \"#utility.yul\":12863:12902   */\n      tag_302\n        /* \"#utility.yul\":12894:12901   */\n      dup4\n        /* \"#utility.yul\":12863:12902   */\n      tag_168\n      jump\t// in\n    tag_302:\n        /* \"#utility.yul\":12924:13015   */\n      tag_303\n        /* \"#utility.yul\":12973:13014   */\n      tag_304\n        /* \"#utility.yul\":12997:13013   */\n      dup3\n        /* \"#utility.yul\":12973:13014   */\n      tag_169\n      jump\t// in\n    tag_304:\n        /* \"#utility.yul\":12965:12971   */\n      dup5\n        /* \"#utility.yul\":12958:12962   */\n      dup5\n        /* \"#utility.yul\":12952:12963   */\n      sload\n        /* \"#utility.yul\":12924:13015   */\n      tag_166\n      jump\t// in\n    tag_303:\n        /* \"#utility.yul\":12918:12922   */\n      dup3\n        /* \"#utility.yul\":12911:13016   */\n      sstore\n        /* \"#utility.yul\":12829:13022   */\n      pop\n        /* \"#utility.yul\":12753:13022   */\n      pop\n      pop\n      pop\n      jump\t// out\n        /* \"#utility.yul\":13028:13101   */\n    tag_171:\n        /* \"#utility.yul\":13073:13076   */\n      0x00\n        /* \"#utility.yul\":13094:13095   */\n      0x00\n        /* \"#utility.yul\":13087:13095   */\n      swap1\n      pop\n        /* \"#utility.yul\":13028:13101   */\n      swap1\n      jump\t// out\n        /* \"#utility.yul\":13107:13296   */\n    tag_172:\n        /* \"#utility.yul\":13184:13216   */\n      tag_307\n      tag_171\n      jump\t// in\n    tag_307:\n        /* \"#utility.yul\":13225:13290   */\n      tag_308\n        /* \"#utility.yul\":13283:13289   */\n      dup2\n        /* \"#utility.yul\":13275:13281   */\n      dup5\n        /* \"#utility.yul\":13269:13273   */\n      dup5\n        /* \"#utility.yul\":13225:13290   */\n      tag_170\n      jump\t// in\n    tag_308:\n        /* \"#utility.yul\":13160:13296   */\n      pop\n        /* \"#utility.yul\":13107:13296   */\n      pop\n      pop\n      jump\t// out\n        /* \"#utility.yul\":13302:13488   */\n    tag_173:\n        /* \"#utility.yul\":13362:13482   */\n    tag_310:\n        /* \"#utility.yul\":13379:13382   */\n      dup2\n        /* \"#utility.yul\":13372:13377   */\n      dup2\n        /* \"#utility.yul\":13369:13383   */\n      lt\n        /* \"#utility.yul\":13362:13482   */\n      iszero\n      tag_312\n      jumpi\n        /* \"#utility.yul\":13433:13472   */\n      tag_313\n        /* \"#utility.yul\":13470:13471   */\n      0x00\n        /* \"#utility.yul\":13463:13468   */\n      dup3\n        /* \"#utility.yul\":13433:13472   */\n      tag_172\n      jump\t// in\n    tag_313:\n        /* \"#utility.yul\":13406:13407   */\n      0x01\n        /* \"#utility.yul\":13399:13404   */\n      dup2\n        /* \"#utility.yul\":13395:13408   */\n      add\n        /* \"#utility.yul\":13386:13408   */\n      swap1\n      pop\n        /* \"#utility.yul\":13362:13482   */\n      jump(tag_310)\n    tag_312:\n        /* \"#utility.yul\":13302:13488   */\n      pop\n      pop\n      jump\t// out\n        /* \"#utility.yul\":13494:14037   */\n    tag_174:\n        /* \"#utility.yul\":13595:13597   */\n      0x1f\n        /* \"#utility.yul\":13590:13593   */\n      dup3\n        /* \"#utility.yul\":13587:13598   */\n      gt\n        /* \"#utility.yul\":13584:14030   */\n      iszero\n      tag_315\n      jumpi\n        /* \"#utility.yul\":13629:13667   */\n      tag_316\n        /* \"#utility.yul\":13661:13666   */\n      dup2\n        /* \"#utility.yul\":13629:13667   */\n      tag_163\n      jump\t// in\n    tag_316:\n        /* \"#utility.yul\":13713:13742   */\n      tag_317\n        /* \"#utility.yul\":13731:13741   */\n      dup5\n        /* \"#utility.yul\":13713:13742   */\n      tag_164\n      jump\t// in\n    tag_317:\n        /* \"#utility.yul\":13703:13711   */\n      dup2\n        /* \"#utility.yul\":13699:13743   */\n      add\n        /* \"#utility.yul\":13896:13898   */\n      0x20\n        /* \"#utility.yul\":13884:13894   */\n      dup6\n        /* \"#utility.yul\":13881:13899   */\n      lt\n        /* \"#utility.yul\":13878:13927   */\n      iszero\n      tag_318\n      jumpi\n        /* \"#utility.yul\":13917:13925   */\n      dup2\n        /* \"#utility.yul\":13902:13925   */\n      swap1\n      pop\n        /* \"#utility.yul\":13878:13927   */\n    tag_318:\n        /* \"#utility.yul\":13940:14020   */\n      tag_319\n        /* \"#utility.yul\":13996:14018   */\n      tag_320\n        /* \"#utility.yul\":14014:14017   */\n      dup6\n        /* \"#utility.yul\":13996:14018   */\n      tag_164\n      jump\t// in\n    tag_320:\n        /* \"#utility.yul\":13986:13994   */\n      dup4\n        /* \"#utility.yul\":13982:14019   */\n      add\n        /* \"#utility.yul\":13969:13980   */\n      dup3\n        /* \"#utility.yul\":13940:14020   */\n      tag_173\n      jump\t// in\n    tag_319:\n        /* \"#utility.yul\":13599:14030   */\n      pop\n      pop\n        /* \"#utility.yul\":13584:14030   */\n    tag_315:\n        /* \"#utility.yul\":13494:14037   */\n      pop\n      pop\n      pop\n      jump\t// out\n        /* \"#utility.yul\":14043:14160   */\n    tag_175:\n        /* \"#utility.yul\":14097:14105   */\n      0x00\n        /* \"#utility.yul\":14147:14152   */\n      dup3\n        /* \"#utility.yul\":14141:14145   */\n      dup3\n        /* \"#utility.yul\":14137:14153   */\n      shr\n        /* \"#utility.yul\":14116:14153   */\n      swap1\n      pop\n        /* \"#utility.yul\":14043:14160   */\n      swap3\n      swap2\n      pop\n      pop\n      jump\t// out\n        /* \"#utility.yul\":14166:14335   */\n    tag_176:\n        /* \"#utility.yul\":14210:14216   */\n      0x00\n        /* \"#utility.yul\":14243:14294   */\n      tag_323\n        /* \"#utility.yul\":14291:14292   */\n      0x00\n        /* \"#utility.yul\":14287:14293   */\n      not\n        /* \"#utility.yul\":14279:14284   */\n      dup5\n        /* \"#utility.yul\":14276:14277   */\n      0x08\n        /* \"#utility.yul\":14272:14285   */\n      mul\n        /* \"#utility.yul\":14243:14294   */\n      tag_175\n      jump\t// in\n    tag_323:\n        /* \"#utility.yul\":14239:14295   */\n      not\n        /* \"#utility.yul\":14324:14328   */\n      dup1\n        /* \"#utility.yul\":14318:14322   */\n      dup4\n        /* \"#utility.yul\":14314:14329   */\n      and\n        /* \"#utility.yul\":14304:14329   */\n      swap2\n      pop\n        /* \"#utility.yul\":14217:14335   */\n      pop\n        /* \"#utility.yul\":14166:14335   */\n      swap3\n      swap2\n      pop\n      pop\n      jump\t// out\n        /* \"#utility.yul\":14340:14635   */\n    tag_177:\n        /* \"#utility.yul\":14416:14420   */\n      0x00\n        /* \"#utility.yul\":14562:14591   */\n      tag_325\n        /* \"#utility.yul\":14587:14590   */\n      dup4\n        /* \"#utility.yul\":14581:14585   */\n      dup4\n        /* \"#utility.yul\":14562:14591   */\n      tag_176\n      jump\t// in\n    tag_325:\n        /* \"#utility.yul\":14554:14591   */\n      swap2\n      pop\n        /* \"#utility.yul\":14624:14627   */\n      dup3\n        /* \"#utility.yul\":14621:14622   */\n      0x02\n        /* \"#utility.yul\":14617:14628   */\n      mul\n        /* \"#utility.yul\":14611:14615   */\n      dup3\n        /* \"#utility.yul\":14608:14629   */\n      or\n        /* \"#utility.yul\":14600:14629   */\n      swap1\n      pop\n        /* \"#utility.yul\":14340:14635   */\n      swap3\n      swap2\n      pop\n      pop\n      jump\t// out\n        /* \"#utility.yul\":14640:16035   */\n    tag_83:\n        /* \"#utility.yul\":14757:14794   */\n      tag_327\n        /* \"#utility.yul\":14790:14793   */\n      dup3\n        /* \"#utility.yul\":14757:14794   */\n      tag_141\n      jump\t// in\n    tag_327:\n        /* \"#utility.yul\":14859:14877   */\n      0xffffffffffffffff\n        /* \"#utility.yul\":14851:14857   */\n      dup2\n        /* \"#utility.yul\":14848:14878   */\n      gt\n        /* \"#utility.yul\":14845:14901   */\n      iszero\n      tag_328\n      jumpi\n        /* \"#utility.yul\":14881:14899   */\n      tag_329\n      tag_151\n      jump\t// in\n    tag_329:\n        /* \"#utility.yul\":14845:14901   */\n    tag_328:\n        /* \"#utility.yul\":14925:14963   */\n      tag_330\n        /* \"#utility.yul\":14957:14961   */\n      dup3\n        /* \"#utility.yul\":14951:14962   */\n      sload\n        /* \"#utility.yul\":14925:14963   */\n      tag_38\n      jump\t// in\n    tag_330:\n        /* \"#utility.yul\":15010:15077   */\n      tag_331\n        /* \"#utility.yul\":15070:15076   */\n      dup3\n        /* \"#utility.yul\":15062:15068   */\n      dup3\n        /* \"#utility.yul\":15056:15060   */\n      dup6\n        /* \"#utility.yul\":15010:15077   */\n      tag_174\n      jump\t// in\n    tag_331:\n        /* \"#utility.yul\":15104:15105   */\n      0x00\n        /* \"#utility.yul\":15128:15132   */\n      0x20\n        /* \"#utility.yul\":15115:15132   */\n      swap1\n      pop\n        /* \"#utility.yul\":15160:15162   */\n      0x1f\n        /* \"#utility.yul\":15152:15158   */\n      dup4\n        /* \"#utility.yul\":15149:15163   */\n      gt\n        /* \"#utility.yul\":15177:15178   */\n      0x01\n        /* \"#utility.yul\":15172:15790   */\n      dup2\n      eq\n      tag_333\n      jumpi\n        /* \"#utility.yul\":15834:15835   */\n      0x00\n        /* \"#utility.yul\":15851:15857   */\n      dup5\n        /* \"#utility.yul\":15848:15925   */\n      iszero\n      tag_334\n      jumpi\n        /* \"#utility.yul\":15900:15909   */\n      dup3\n        /* \"#utility.yul\":15895:15898   */\n      dup8\n        /* \"#utility.yul\":15891:15910   */\n      add\n        /* \"#utility.yul\":15885:15911   */\n      mload\n        /* \"#utility.yul\":15876:15911   */\n      swap1\n      pop\n        /* \"#utility.yul\":15848:15925   */\n    tag_334:\n        /* \"#utility.yul\":15951:16018   */\n      tag_335\n        /* \"#utility.yul\":16011:16017   */\n      dup6\n        /* \"#utility.yul\":16004:16009   */\n      dup3\n        /* \"#utility.yul\":15951:16018   */\n      tag_177\n      jump\t// in\n    tag_335:\n        /* \"#utility.yul\":15945:15949   */\n      dup7\n        /* \"#utility.yul\":15938:16019   */\n      sstore\n        /* \"#utility.yul\":15807:16029   */\n      pop\n        /* \"#utility.yul\":15142:16029   */\n      jump(tag_332)\n        /* \"#utility.yul\":15172:15790   */\n    tag_333:\n        /* \"#utility.yul\":15224:15228   */\n      0x1f\n        /* \"#utility.yul\":15220:15229   */\n      not\n        /* \"#utility.yul\":15212:15218   */\n      dup5\n        /* \"#utility.yul\":15208:15230   */\n      and\n        /* \"#utility.yul\":15258:15295   */\n      tag_336\n        /* \"#utility.yul\":15290:15294   */\n      dup7\n        /* \"#utility.yul\":15258:15295   */\n      tag_163\n      jump\t// in\n    tag_336:\n        /* \"#utility.yul\":15317:15318   */\n      0x00\n        /* \"#utility.yul\":15331:15539   */\n    tag_337:\n        /* \"#utility.yul\":15345:15352   */\n      dup3\n        /* \"#utility.yul\":15342:15343   */\n      dup2\n        /* \"#utility.yul\":15339:15353   */\n      lt\n        /* \"#utility.yul\":15331:15539   */\n      iszero\n      tag_339\n      jumpi\n        /* \"#utility.yul\":15424:15433   */\n      dup5\n        /* \"#utility.yul\":15419:15422   */\n      dup10\n        /* \"#utility.yul\":15415:15434   */\n      add\n        /* \"#utility.yul\":15409:15435   */\n      mload\n        /* \"#utility.yul\":15401:15407   */\n      dup3\n        /* \"#utility.yul\":15394:15436   */\n      sstore\n        /* \"#utility.yul\":15475:15476   */\n      0x01\n        /* \"#utility.yul\":15467:15473   */\n      dup3\n        /* \"#utility.yul\":15463:15477   */\n      add\n        /* \"#utility.yul\":15453:15477   */\n      swap2\n      pop\n        /* \"#utility.yul\":15522:15524   */\n      0x20\n        /* \"#utility.yul\":15511:15520   */\n      dup6\n        /* \"#utility.yul\":15507:15525   */\n      add\n        /* \"#utility.yul\":15494:15525   */\n      swap5\n      pop\n        /* \"#utility.yul\":15368:15372   */\n      0x20\n        /* \"#utility.yul\":15365:15366   */\n      dup2\n        /* \"#utility.yul\":15361:15373   */\n      add\n        /* \"#utility.yul\":15356:15373   */\n      swap1\n      pop\n        /* \"#utility.yul\":15331:15539   */\n      jump(tag_337)\n    tag_339:\n        /* \"#utility.yul\":15567:15573   */\n      dup7\n        /* \"#utility.yul\":15558:15565   */\n      dup4\n        /* \"#utility.yul\":15555:15574   */\n      lt\n        /* \"#utility.yul\":15552:15731   */\n      iszero\n      tag_340\n      jumpi\n        /* \"#utility.yul\":15625:15634   */\n      dup5\n        /* \"#utility.yul\":15620:15623   */\n      dup10\n        /* \"#utility.yul\":15616:15635   */\n      add\n        /* \"#utility.yul\":15610:15636   */\n      mload\n        /* \"#utility.yul\":15668:15716   */\n      tag_341\n        /* \"#utility.yul\":15710:15714   */\n      0x1f\n        /* \"#utility.yul\":15702:15708   */\n      dup10\n        /* \"#utility.yul\":15698:15715   */\n      and\n        /* \"#utility.yul\":15687:15696   */\n      dup3\n        /* \"#utility.yul\":15668:15716   */\n      tag_176\n      jump\t// in\n    tag_341:\n        /* \"#utility.yul\":15660:15666   */\n      dup4\n        /* \"#utility.yul\":15653:15717   */\n      sstore\n        /* \"#utility.yul\":15575:15731   */\n      pop\n        /* \"#utility.yul\":15552:15731   */\n    tag_340:\n        /* \"#utility.yul\":15777:15778   */\n      0x01\n        /* \"#utility.yul\":15773:15774   */\n      0x02\n        /* \"#utility.yul\":15765:15771   */\n      dup9\n        /* \"#utility.yul\":15761:15775   */\n      mul\n        /* \"#utility.yul\":15757:15779   */\n      add\n        /* \"#utility.yul\":15751:15755   */\n      dup9\n        /* \"#utility.yul\":15744:15780   */\n      sstore\n        /* \"#utility.yul\":15179:15790   */\n      pop\n      pop\n      pop\n        /* \"#utility.yul\":15142:16029   */\n    tag_332:\n      pop\n        /* \"#utility.yul\":14732:16035   */\n      pop\n      pop\n      pop\n        /* \"#utility.yul\":14640:16035   */\n      pop\n      pop\n      jump\t// out\n        /* \"#utility.yul\":16041:16270   */\n    tag_178:\n        /* \"#utility.yul\":16181:16215   */\n      0x496e646578206f7574206f6620626f756e64733a20496e76616c696420726563\n        /* \"#utility.yul\":16177:16178   */\n      0x00\n        /* \"#utility.yul\":16169:16175   */\n      dup3\n        /* \"#utility.yul\":16165:16179   */\n      add\n        /* \"#utility.yul\":16158:16216   */\n      mstore\n        /* \"#utility.yul\":16250:16262   */\n      0x6f726420696e6465782e00000000000000000000000000000000000000000000\n        /* \"#utility.yul\":16245:16247   */\n      0x20\n        /* \"#utility.yul\":16237:16243   */\n      dup3\n        /* \"#utility.yul\":16233:16248   */\n      add\n        /* \"#utility.yul\":16226:16263   */\n      mstore\n        /* \"#utility.yul\":16041:16270   */\n      pop\n      jump\t// out\n        /* \"#utility.yul\":16276:16642   */\n    tag_179:\n        /* \"#utility.yul\":16418:16421   */\n      0x00\n        /* \"#utility.yul\":16439:16506   */\n      tag_344\n        /* \"#utility.yul\":16503:16505   */\n      0x2a\n        /* \"#utility.yul\":16498:16501   */\n      dup4\n        /* \"#utility.yul\":16439:16506   */\n      tag_142\n      jump\t// in\n    tag_344:\n        /* \"#utility.yul\":16432:16506   */\n      swap2\n      pop\n        /* \"#utility.yul\":16515:16608   */\n      tag_345\n        /* \"#utility.yul\":16604:16607   */\n      dup3\n        /* \"#utility.yul\":16515:16608   */\n      tag_178\n      jump\t// in\n    tag_345:\n        /* \"#utility.yul\":16633:16635   */\n      0x40\n        /* \"#utility.yul\":16628:16631   */\n      dup3\n        /* \"#utility.yul\":16624:16636   */\n      add\n        /* \"#utility.yul\":16617:16636   */\n      swap1\n      pop\n        /* \"#utility.yul\":16276:16642   */\n      swap2\n      swap1\n      pop\n      jump\t// out\n        /* \"#utility.yul\":16648:17067   */\n    tag_94:\n        /* \"#utility.yul\":16814:16818   */\n      0x00\n        /* \"#utility.yul\":16852:16854   */\n      0x20\n        /* \"#utility.yul\":16841:16850   */\n      dup3\n        /* \"#utility.yul\":16837:16855   */\n      add\n        /* \"#utility.yul\":16829:16855   */\n      swap1\n      pop\n        /* \"#utility.yul\":16901:16910   */\n      dup2\n        /* \"#utility.yul\":16895:16899   */\n      dup2\n        /* \"#utility.yul\":16891:16911   */\n      sub\n        /* \"#utility.yul\":16887:16888   */\n      0x00\n        /* \"#utility.yul\":16876:16885   */\n      dup4\n        /* \"#utility.yul\":16872:16889   */\n      add\n        /* \"#utility.yul\":16865:16912   */\n      mstore\n        /* \"#utility.yul\":16929:17060   */\n      tag_347\n        /* \"#utility.yul\":17055:17059   */\n      dup2\n        /* \"#utility.yul\":16929:17060   */\n      tag_179\n      jump\t// in\n    tag_347:\n        /* \"#utility.yul\":16921:17060   */\n      swap1\n      pop\n        /* \"#utility.yul\":16648:17067   */\n      swap2\n      swap1\n      pop\n      jump\t// out\n        /* \"#utility.yul\":17073:17253   */\n    tag_97:\n        /* \"#utility.yul\":17121:17198   */\n      0x4e487b7100000000000000000000000000000000000000000000000000000000\n        /* \"#utility.yul\":17118:17119   */\n      0x00\n        /* \"#utility.yul\":17111:17199   */\n      mstore\n        /* \"#utility.yul\":17218:17222   */\n      0x32\n        /* \"#utility.yul\":17215:17216   */\n      0x04\n        /* \"#utility.yul\":17208:17223   */\n      mstore\n        /* \"#utility.yul\":17242:17246   */\n      0x24\n        /* \"#utility.yul\":17239:17240   */\n      0x00\n        /* \"#utility.yul\":17232:17247   */\n      revert\n\n    auxdata: 0xa26469706673582212203cc020dbbe86b25739f13f43ae86d76c59e08b79200a2a99d53568f943b1ab8264736f6c634300081e0033\n}\n",
				"bytecode": {
					"linkReferences": {},
					"object": "6080604052348015600e575f5ffd5b503360015f6101000a81548173ffffffffffffffffffffffffffffffffffffffff021916908373ffffffffffffffffffffffffffffffffffffffff1602179055506115d08061005c5f395ff3fe608060405234801561000f575f5ffd5b5060043610610060575f3560e01c80630aeacb5e146100645780637d4cb964146100825780638bec7048146100a05780638da5cb5b146100d7578063ddf747df146100f5578063e64037fa14610111575b5f5ffd5b61006c610148565b6040516100799190610c76565b60405180910390f35b61008a610153565b6040516100979190610c76565b60405180910390f35b6100ba60048036038101906100b59190610cca565b610158565b6040516100ce989796959493929190610d65565b60405180910390f35b6100df610554565b6040516100ec9190610e51565b60405180910390f35b61010f600480360381019061010a9190610f96565b610579565b005b61012b60048036038101906101269190610cca565b6107a2565b60405161013f989796959493929190610d65565b60405180910390f35b5f5f80549050905090565b606481565b5f8181548110610166575f80fd5b905f5260205f2090600802015f91509050805f01549080600101805461018b90611124565b80601f01602080910402602001604051908101604052809291908181526020018280546101b790611124565b80156102025780601f106101d957610100808354040283529160200191610202565b820191905f5260205f20905b8154815290600101906020018083116101e557829003601f168201915b50505050509080600201805461021790611124565b80601f016020809104026020016040519081016040528092919081815260200182805461024390611124565b801561028e5780601f106102655761010080835404028352916020019161028e565b820191905f5260205f20905b81548152906001019060200180831161027157829003601f168201915b5050505050908060030180546102a390611124565b80601f01602080910402602001604051908101604052809291908181526020018280546102cf90611124565b801561031a5780601f106102f15761010080835404028352916020019161031a565b820191905f5260205f20905b8154815290600101906020018083116102fd57829003601f168201915b50505050509080600401805461032f90611124565b80601f016020809104026020016040519081016040528092919081815260200182805461035b90611124565b80156103a65780601f1061037d576101008083540402835291602001916103a6565b820191905f5260205f20905b81548152906001019060200180831161038957829003601f168201915b5050505050908060050180546103bb90611124565b80601f01602080910402602001604051908101604052809291908181526020018280546103e790611124565b80156104325780601f1061040957610100808354040283529160200191610432565b820191905f5260205f20905b81548152906001019060200180831161041557829003601f168201915b50505050509080600601805461044790611124565b80601f016020809104026020016040519081016040528092919081815260200182805461047390611124565b80156104be5780601f10610495576101008083540402835291602001916104be565b820191905f5260205f20905b8154815290600101906020018083116104a157829003601f168201915b5050505050908060070180546104d390611124565b80601f01602080910402602001604051908101604052809291908181526020018280546104ff90611124565b801561054a5780601f106105215761010080835404028352916020019161054a565b820191905f5260205f20905b81548152906001019060200180831161052d57829003601f168201915b5050505050905088565b60015f9054906101000a900473ffffffffffffffffffffffffffffffffffffffff1681565b60015f9054906101000a900473ffffffffffffffffffffffffffffffffffffffff1673ffffffffffffffffffffffffffffffffffffffff163373ffffffffffffffffffffffffffffffffffffffff1614610608576040517f08c379a00000000000000000000000000000000000000000000000000000000081526004016105ff906111c4565b60405180910390fd5b60645f805490501061064f576040517f08c379a000000000000000000000000000000000000000000000000000000000815260040161064690611252565b60405180910390fd5b5f60405180610100016040528042815260200189815260200188815260200187815260200186815260200185815260200184815260200183815250908060018154018082558091505060019003905f5260205f2090600802015f909190919091505f820151815f015560208201518160010190816106cd9190611410565b5060408201518160020190816106e39190611410565b5060608201518160030190816106f99190611410565b50608082015181600401908161070f9190611410565b5060a08201518160050190816107259190611410565b5060c082015181600601908161073b9190611410565b5060e08201518160070190816107519190611410565b5050507f61312b82ac27a2e0703617e52182f184bfa9862858646b031a6a3cab9ba89d9b4288888888888888604051610791989796959493929190610d65565b60405180910390a150505050505050565b5f60608060608060608060605f8054905089106107f4576040517f08c379a00000000000000000000000000000000000000000000000000000000081526004016107eb9061154f565b60405180910390fd5b5f5f8a815481106108085761080761156d565b5b905f5260205f209060080201604051806101000160405290815f820154815260200160018201805461083990611124565b80601f016020809104026020016040519081016040528092919081815260200182805461086590611124565b80156108b05780601f10610887576101008083540402835291602001916108b0565b820191905f5260205f20905b81548152906001019060200180831161089357829003601f168201915b505050505081526020016002820180546108c990611124565b80601f01602080910402602001604051908101604052809291908181526020018280546108f590611124565b80156109405780601f1061091757610100808354040283529160200191610940565b820191905f5260205f20905b81548152906001019060200180831161092357829003601f168201915b5050505050815260200160038201805461095990611124565b80601f016020809104026020016040519081016040528092919081815260200182805461098590611124565b80156109d05780601f106109a7576101008083540402835291602001916109d0565b820191905f5260205f20905b8154815290600101906020018083116109b357829003601f168201915b505050505081526020016004820180546109e990611124565b80601f0160208091040260200160405190810160405280929190818152602001828054610a1590611124565b8015610a605780601f10610a3757610100808354040283529160200191610a60565b820191905f5260205f20905b815481529060010190602001808311610a4357829003601f168201915b50505050508152602001600582018054610a7990611124565b80601f0160208091040260200160405190810160405280929190818152602001828054610aa590611124565b8015610af05780601f10610ac757610100808354040283529160200191610af0565b820191905f5260205f20905b815481529060010190602001808311610ad357829003601f168201915b50505050508152602001600682018054610b0990611124565b80601f0160208091040260200160405190810160405280929190818152602001828054610b3590611124565b8015610b805780601f10610b5757610100808354040283529160200191610b80565b820191905f5260205f20905b815481529060010190602001808311610b6357829003601f168201915b50505050508152602001600782018054610b9990611124565b80601f0160208091040260200160405190810160405280929190818152602001828054610bc590611124565b8015610c105780601f10610be757610100808354040283529160200191610c10565b820191905f5260205f20905b815481529060010190602001808311610bf357829003601f168201915b5050505050815250509050805f015181602001518260400151836060015184608001518560a001518660c001518760e001519850985098509850985098509850985050919395975091939597565b5f819050919050565b610c7081610c5e565b82525050565b5f602082019050610c895f830184610c67565b92915050565b5f604051905090565b5f5ffd5b5f5ffd5b610ca981610c5e565b8114610cb3575f5ffd5b50565b5f81359050610cc481610ca0565b92915050565b5f60208284031215610cdf57610cde610c98565b5b5f610cec84828501610cb6565b91505092915050565b5f81519050919050565b5f82825260208201905092915050565b8281835e5f83830152505050565b5f601f19601f8301169050919050565b5f610d3782610cf5565b610d418185610cff565b9350610d51818560208601610d0f565b610d5a81610d1d565b840191505092915050565b5f61010082019050610d795f83018b610c67565b8181036020830152610d8b818a610d2d565b90508181036040830152610d9f8189610d2d565b90508181036060830152610db38188610d2d565b90508181036080830152610dc78187610d2d565b905081810360a0830152610ddb8186610d2d565b905081810360c0830152610def8185610d2d565b905081810360e0830152610e038184610d2d565b90509998505050505050505050565b5f73ffffffffffffffffffffffffffffffffffffffff82169050919050565b5f610e3b82610e12565b9050919050565b610e4b81610e31565b82525050565b5f602082019050610e645f830184610e42565b92915050565b5f5ffd5b5f5ffd5b7f4e487b71000000000000000000000000000000000000000000000000000000005f52604160045260245ffd5b610ea882610d1d565b810181811067ffffffffffffffff82111715610ec757610ec6610e72565b5b80604052505050565b5f610ed9610c8f565b9050610ee58282610e9f565b919050565b5f67ffffffffffffffff821115610f0457610f03610e72565b5b610f0d82610d1d565b9050602081019050919050565b828183375f83830152505050565b5f610f3a610f3584610eea565b610ed0565b905082815260208101848484011115610f5657610f55610e6e565b5b610f61848285610f1a565b509392505050565b5f82601f830112610f7d57610f7c610e6a565b5b8135610f8d848260208601610f28565b91505092915050565b5f5f5f5f5f5f5f60e0888a031215610fb157610fb0610c98565b5b5f88013567ffffffffffffffff811115610fce57610fcd610c9c565b5b610fda8a828b01610f69565b975050602088013567ffffffffffffffff811115610ffb57610ffa610c9c565b5b6110078a828b01610f69565b965050604088013567ffffffffffffffff81111561102857611027610c9c565b5b6110348a828b01610f69565b955050606088013567ffffffffffffffff81111561105557611054610c9c565b5b6110618a828b01610f69565b945050608088013567ffffffffffffffff81111561108257611081610c9c565b5b61108e8a828b01610f69565b93505060a088013567ffffffffffffffff8111156110af576110ae610c9c565b5b6110bb8a828b01610f69565b92505060c088013567ffffffffffffffff8111156110dc576110db610c9c565b5b6110e88a828b01610f69565b91505092959891949750929550565b7f4e487b71000000000000000000000000000000000000000000000000000000005f52602260045260245ffd5b5f600282049050600182168061113b57607f821691505b60208210810361114e5761114d6110f7565b5b50919050565b7f4e6f7420617574686f72697a65643a204f6e6c7920636f6e7472616374206f775f8201527f6e65722063616e20706572666f726d207468697320616374696f6e2e00000000602082015250565b5f6111ae603c83610cff565b91506111b982611154565b604082019050919050565b5f6020820190508181035f8301526111db816111a2565b9050919050565b7f53746f72616765206c696d697420726561636865643a2043616e6e6f742061645f8201527f64206d6f7265207265636f7264732e0000000000000000000000000000000000602082015250565b5f61123c602f83610cff565b9150611247826111e2565b604082019050919050565b5f6020820190508181035f83015261126981611230565b9050919050565b5f819050815f5260205f209050919050565b5f6020601f8301049050919050565b5f82821b905092915050565b5f600883026112cc7fffffffffffffffffffffffffffffffffffffffffffffffffffffffffffffffff82611291565b6112d68683611291565b95508019841693508086168417925050509392505050565b5f819050919050565b5f61131161130c61130784610c5e565b6112ee565b610c5e565b9050919050565b5f819050919050565b61132a836112f7565b61133e61133682611318565b84845461129d565b825550505050565b5f5f905090565b611355611346565b611360818484611321565b505050565b5b81811015611383576113785f8261134d565b600181019050611366565b5050565b601f8211156113c85761139981611270565b6113a284611282565b810160208510156113b1578190505b6113c56113bd85611282565b830182611365565b50505b505050565b5f82821c905092915050565b5f6113e85f19846008026113cd565b1980831691505092915050565b5f61140083836113d9565b9150826002028217905092915050565b61141982610cf5565b67ffffffffffffffff81111561143257611431610e72565b5b61143c8254611124565b611447828285611387565b5f60209050601f831160018114611478575f8415611466578287015190505b61147085826113f5565b8655506114d7565b601f19841661148686611270565b5f5b828110156114ad57848901518255600182019150602085019450602081019050611488565b868310156114ca57848901516114c6601f8916826113d9565b8355505b6001600288020188555050505b505050505050565b7f496e646578206f7574206f6620626f756e64733a20496e76616c6964207265635f8201527f6f726420696e6465782e00000000000000000000000000000000000000000000602082015250565b5f611539602a83610cff565b9150611544826114df565b604082019050919050565b5f6020820190508181035f8301526115668161152d565b9050919050565b7f4e487b71000000000000000000000000000000000000000000000000000000005f52603260045260245ffdfea26469706673582212203cc020dbbe86b25739f13f43ae86d76c59e08b79200a2a99d53568f943b1ab8264736f6c634300081e0033",
					"opcodes": "PUSH1 0x80 PUSH1 0x40 MSTORE CALLVALUE DUP1 ISZERO PUSH1 0xE JUMPI PUSH0 PUSH0 REVERT JUMPDEST POP CALLER PUSH1 0x1 PUSH0 PUSH2 0x100 EXP DUP2 SLOAD DUP2 PUSH20 0xFFFFFFFFFFFFFFFFFFFFFFFFFFFFFFFFFFFFFFFF MUL NOT AND SWAP1 DUP4 PUSH20 0xFFFFFFFFFFFFFFFFFFFFFFFFFFFFFFFFFFFFFFFF AND MUL OR SWAP1 SSTORE POP PUSH2 0x15D0 DUP1 PUSH2 0x5C PUSH0 CODECOPY PUSH0 RETURN INVALID PUSH1 0x80 PUSH1 0x40 MSTORE CALLVALUE DUP1 ISZERO PUSH2 0xF JUMPI PUSH0 PUSH0 REVERT JUMPDEST POP PUSH1 0x4 CALLDATASIZE LT PUSH2 0x60 JUMPI PUSH0 CALLDATALOAD PUSH1 0xE0 SHR DUP1 PUSH4 0xAEACB5E EQ PUSH2 0x64 JUMPI DUP1 PUSH4 0x7D4CB964 EQ PUSH2 0x82 JUMPI DUP1 PUSH4 0x8BEC7048 EQ PUSH2 0xA0 JUMPI DUP1 PUSH4 0x8DA5CB5B EQ PUSH2 0xD7 JUMPI DUP1 PUSH4 0xDDF747DF EQ PUSH2 0xF5 JUMPI DUP1 PUSH4 0xE64037FA EQ PUSH2 0x111 JUMPI JUMPDEST PUSH0 PUSH0 REVERT JUMPDEST PUSH2 0x6C PUSH2 0x148 JUMP JUMPDEST PUSH1 0x40 MLOAD PUSH2 0x79 SWAP2 SWAP1 PUSH2 0xC76 JUMP JUMPDEST PUSH1 0x40 MLOAD DUP1 SWAP2 SUB SWAP1 RETURN JUMPDEST PUSH2 0x8A PUSH2 0x153 JUMP JUMPDEST PUSH1 0x40 MLOAD PUSH2 0x97 SWAP2 SWAP1 PUSH2 0xC76 JUMP JUMPDEST PUSH1 0x40 MLOAD DUP1 SWAP2 SUB SWAP1 RETURN JUMPDEST PUSH2 0xBA PUSH1 0x4 DUP1 CALLDATASIZE SUB DUP2 ADD SWAP1 PUSH2 0xB5 SWAP2 SWAP1 PUSH2 0xCCA JUMP JUMPDEST PUSH2 0x158 JUMP JUMPDEST PUSH1 0x40 MLOAD PUSH2 0xCE SWAP9 SWAP8 SWAP7 SWAP6 SWAP5 SWAP4 SWAP3 SWAP2 SWAP1 PUSH2 0xD65 JUMP JUMPDEST PUSH1 0x40 MLOAD DUP1 SWAP2 SUB SWAP1 RETURN JUMPDEST PUSH2 0xDF PUSH2 0x554 JUMP JUMPDEST PUSH1 0x40 MLOAD PUSH2 0xEC SWAP2 SWAP1 PUSH2 0xE51 JUMP JUMPDEST PUSH1 0x40 MLOAD DUP1 SWAP2 SUB SWAP1 RETURN JUMPDEST PUSH2 0x10F PUSH1 0x4 DUP1 CALLDATASIZE SUB DUP2 ADD SWAP1 PUSH2 0x10A SWAP2 SWAP1 PUSH2 0xF96 JUMP JUMPDEST PUSH2 0x579 JUMP JUMPDEST STOP JUMPDEST PUSH2 0x12B PUSH1 0x4 DUP1 CALLDATASIZE SUB DUP2 ADD SWAP1 PUSH2 0x126 SWAP2 SWAP1 PUSH2 0xCCA JUMP JUMPDEST PUSH2 0x7A2 JUMP JUMPDEST PUSH1 0x40 MLOAD PUSH2 0x13F SWAP9 SWAP8 SWAP7 SWAP6 SWAP5 SWAP4 SWAP3 SWAP2 SWAP1 PUSH2 0xD65 JUMP JUMPDEST PUSH1 0x40 MLOAD DUP1 SWAP2 SUB SWAP1 RETURN JUMPDEST PUSH0 PUSH0 DUP1 SLOAD SWAP1 POP SWAP1 POP SWAP1 JUMP JUMPDEST PUSH1 0x64 DUP2 JUMP JUMPDEST PUSH0 DUP2 DUP2 SLOAD DUP2 LT PUSH2 0x166 JUMPI PUSH0 DUP1 REVERT JUMPDEST SWAP1 PUSH0 MSTORE PUSH1 0x20 PUSH0 KECCAK256 SWAP1 PUSH1 0x8 MUL ADD PUSH0 SWAP2 POP SWAP1 POP DUP1 PUSH0 ADD SLOAD SWAP1 DUP1 PUSH1 0x1 ADD DUP1 SLOAD PUSH2 0x18B SWAP1 PUSH2 0x1124 JUMP JUMPDEST DUP1 PUSH1 0x1F ADD PUSH1 0x20 DUP1 SWAP2 DIV MUL PUSH1 0x20 ADD PUSH1 0x40 MLOAD SWAP1 DUP2 ADD PUSH1 0x40 MSTORE DUP1 SWAP3 SWAP2 SWAP1 DUP2 DUP2 MSTORE PUSH1 0x20 ADD DUP3 DUP1 SLOAD PUSH2 0x1B7 SWAP1 PUSH2 0x1124 JUMP JUMPDEST DUP1 ISZERO PUSH2 0x202 JUMPI DUP1 PUSH1 0x1F LT PUSH2 0x1D9 JUMPI PUSH2 0x100 DUP1 DUP4 SLOAD DIV MUL DUP4 MSTORE SWAP2 PUSH1 0x20 ADD SWAP2 PUSH2 0x202 JUMP JUMPDEST DUP3 ADD SWAP2 SWAP1 PUSH0 MSTORE PUSH1 0x20 PUSH0 KECCAK256 SWAP1 JUMPDEST DUP2 SLOAD DUP2 MSTORE SWAP1 PUSH1 0x1 ADD SWAP1 PUSH1 0x20 ADD DUP1 DUP4 GT PUSH2 0x1E5 JUMPI DUP3 SWAP1 SUB PUSH1 0x1F AND DUP3 ADD SWAP2 JUMPDEST POP POP POP POP POP SWAP1 DUP1 PUSH1 0x2 ADD DUP1 SLOAD PUSH2 0x217 SWAP1 PUSH2 0x1124 JUMP JUMPDEST DUP1 PUSH1 0x1F ADD PUSH1 0x20 DUP1 SWAP2 DIV MUL PUSH1 0x20 ADD PUSH1 0x40 MLOAD SWAP1 DUP2 ADD PUSH1 0x40 MSTORE DUP1 SWAP3 SWAP2 SWAP1 DUP2 DUP2 MSTORE PUSH1 0x20 ADD DUP3 DUP1 SLOAD PUSH2 0x243 SWAP1 PUSH2 0x1124 JUMP JUMPDEST DUP1 ISZERO PUSH2 0x28E JUMPI DUP1 PUSH1 0x1F LT PUSH2 0x265 JUMPI PUSH2 0x100 DUP1 DUP4 SLOAD DIV MUL DUP4 MSTORE SWAP2 PUSH1 0x20 ADD SWAP2 PUSH2 0x28E JUMP JUMPDEST DUP3 ADD SWAP2 SWAP1 PUSH0 MSTORE PUSH1 0x20 PUSH0 KECCAK256 SWAP1 JUMPDEST DUP2 SLOAD DUP2 MSTORE SWAP1 PUSH1 0x1 ADD SWAP1 PUSH1 0x20 ADD DUP1 DUP4 GT PUSH2 0x271 JUMPI DUP3 SWAP1 SUB PUSH1 0x1F AND DUP3 ADD SWAP2 JUMPDEST POP POP POP POP POP SWAP1 DUP1 PUSH1 0x3 ADD DUP1 SLOAD PUSH2 0x2A3 SWAP1 PUSH2 0x1124 JUMP JUMPDEST DUP1 PUSH1 0x1F ADD PUSH1 0x20 DUP1 SWAP2 DIV MUL PUSH1 0x20 ADD PUSH1 0x40 MLOAD SWAP1 DUP2 ADD PUSH1 0x40 MSTORE DUP1 SWAP3 SWAP2 SWAP1 DUP2 DUP2 MSTORE PUSH1 0x20 ADD DUP3 DUP1 SLOAD PUSH2 0x2CF SWAP1 PUSH2 0x1124 JUMP JUMPDEST DUP1 ISZERO PUSH2 0x31A JUMPI DUP1 PUSH1 0x1F LT PUSH2 0x2F1 JUMPI PUSH2 0x100 DUP1 DUP4 SLOAD DIV MUL DUP4 MSTORE SWAP2 PUSH1 0x20 ADD SWAP2 PUSH2 0x31A JUMP JUMPDEST DUP3 ADD SWAP2 SWAP1 PUSH0 MSTORE PUSH1 0x20 PUSH0 KECCAK256 SWAP1 JUMPDEST DUP2 SLOAD DUP2 MSTORE SWAP1 PUSH1 0x1 ADD SWAP1 PUSH1 0x20 ADD DUP1 DUP4 GT PUSH2 0x2FD JUMPI DUP3 SWAP1 SUB PUSH1 0x1F AND DUP3 ADD SWAP2 JUMPDEST POP POP POP POP POP SWAP1 DUP1 PUSH1 0x4 ADD DUP1 SLOAD PUSH2 0x32F SWAP1 PUSH2 0x1124 JUMP JUMPDEST DUP1 PUSH1 0x1F ADD PUSH1 0x20 DUP1 SWAP2 DIV MUL PUSH1 0x20 ADD PUSH1 0x40 MLOAD SWAP1 DUP2 ADD PUSH1 0x40 MSTORE DUP1 SWAP3 SWAP2 SWAP1 DUP2 DUP2 MSTORE PUSH1 0x20 ADD DUP3 DUP1 SLOAD PUSH2 0x35B SWAP1 PUSH2 0x1124 JUMP JUMPDEST DUP1 ISZERO PUSH2 0x3A6 JUMPI DUP1 PUSH1 0x1F LT PUSH2 0x37D JUMPI PUSH2 0x100 DUP1 DUP4 SLOAD DIV MUL DUP4 MSTORE SWAP2 PUSH1 0x20 ADD SWAP2 PUSH2 0x3A6 JUMP JUMPDEST DUP3 ADD SWAP2 SWAP1 PUSH0 MSTORE PUSH1 0x20 PUSH0 KECCAK256 SWAP1 JUMPDEST DUP2 SLOAD DUP2 MSTORE SWAP1 PUSH1 0x1 ADD SWAP1 PUSH1 0x20 ADD DUP1 DUP4 GT PUSH2 0x389 JUMPI DUP3 SWAP1 SUB PUSH1 0x1F AND DUP3 ADD SWAP2 JUMPDEST POP POP POP POP POP SWAP1 DUP1 PUSH1 0x5 ADD DUP1 SLOAD PUSH2 0x3BB SWAP1 PUSH2 0x1124 JUMP JUMPDEST DUP1 PUSH1 0x1F ADD PUSH1 0x20 DUP1 SWAP2 DIV MUL PUSH1 0x20 ADD PUSH1 0x40 MLOAD SWAP1 DUP2 ADD PUSH1 0x40 MSTORE DUP1 SWAP3 SWAP2 SWAP1 DUP2 DUP2 MSTORE PUSH1 0x20 ADD DUP3 DUP1 SLOAD PUSH2 0x3E7 SWAP1 PUSH2 0x1124 JUMP JUMPDEST DUP1 ISZERO PUSH2 0x432 JUMPI DUP1 PUSH1 0x1F LT PUSH2 0x409 JUMPI PUSH2 0x100 DUP1 DUP4 SLOAD DIV MUL DUP4 MSTORE SWAP2 PUSH1 0x20 ADD SWAP2 PUSH2 0x432 JUMP JUMPDEST DUP3 ADD SWAP2 SWAP1 PUSH0 MSTORE PUSH1 0x20 PUSH0 KECCAK256 SWAP1 JUMPDEST DUP2 SLOAD DUP2 MSTORE SWAP1 PUSH1 0x1 ADD SWAP1 PUSH1 0x20 ADD DUP1 DUP4 GT PUSH2 0x415 JUMPI DUP3 SWAP1 SUB PUSH1 0x1F AND DUP3 ADD SWAP2 JUMPDEST POP POP POP POP POP SWAP1 DUP1 PUSH1 0x6 ADD DUP1 SLOAD PUSH2 0x447 SWAP1 PUSH2 0x1124 JUMP JUMPDEST DUP1 PUSH1 0x1F ADD PUSH1 0x20 DUP1 SWAP2 DIV MUL PUSH1 0x20 ADD PUSH1 0x40 MLOAD SWAP1 DUP2 ADD PUSH1 0x40 MSTORE DUP1 SWAP3 SWAP2 SWAP1 DUP2 DUP2 MSTORE PUSH1 0x20 ADD DUP3 DUP1 SLOAD PUSH2 0x473 SWAP1 PUSH2 0x1124 JUMP JUMPDEST DUP1 ISZERO PUSH2 0x4BE JUMPI DUP1 PUSH1 0x1F LT PUSH2 0x495 JUMPI PUSH2 0x100 DUP1 DUP4 SLOAD DIV MUL DUP4 MSTORE SWAP2 PUSH1 0x20 ADD SWAP2 PUSH2 0x4BE JUMP JUMPDEST DUP3 ADD SWAP2 SWAP1 PUSH0 MSTORE PUSH1 0x20 PUSH0 KECCAK256 SWAP1 JUMPDEST DUP2 SLOAD DUP2 MSTORE SWAP1 PUSH1 0x1 ADD SWAP1 PUSH1 0x20 ADD DUP1 DUP4 GT PUSH2 0x4A1 JUMPI DUP3 SWAP1 SUB PUSH1 0x1F AND DUP3 ADD SWAP2 JUMPDEST POP POP POP POP POP SWAP1 DUP1 PUSH1 0x7 ADD DUP1 SLOAD PUSH2 0x4D3 SWAP1 PUSH2 0x1124 JUMP JUMPDEST DUP1 PUSH1 0x1F ADD PUSH1 0x20 DUP1 SWAP2 DIV MUL PUSH1 0x20 ADD PUSH1 0x40 MLOAD SWAP1 DUP2 ADD PUSH1 0x40 MSTORE DUP1 SWAP3 SWAP2 SWAP1 DUP2 DUP2 MSTORE PUSH1 0x20 ADD DUP3 DUP1 SLOAD PUSH2 0x4FF SWAP1 PUSH2 0x1124 JUMP JUMPDEST DUP1 ISZERO PUSH2 0x54A JUMPI DUP1 PUSH1 0x1F LT PUSH2 0x521 JUMPI PUSH2 0x100 DUP1 DUP4 SLOAD DIV MUL DUP4 MSTORE SWAP2 PUSH1 0x20 ADD SWAP2 PUSH2 0x54A JUMP JUMPDEST DUP3 ADD SWAP2 SWAP1 PUSH0 MSTORE PUSH1 0x20 PUSH0 KECCAK256 SWAP1 JUMPDEST DUP2 SLOAD DUP2 MSTORE SWAP1 PUSH1 0x1 ADD SWAP1 PUSH1 0x20 ADD DUP1 DUP4 GT PUSH2 0x52D JUMPI DUP3 SWAP1 SUB PUSH1 0x1F AND DUP3 ADD SWAP2 JUMPDEST POP POP POP POP POP SWAP1 POP DUP9 JUMP JUMPDEST PUSH1 0x1 PUSH0 SWAP1 SLOAD SWAP1 PUSH2 0x100 EXP SWAP1 DIV PUSH20 0xFFFFFFFFFFFFFFFFFFFFFFFFFFFFFFFFFFFFFFFF AND DUP2 JUMP JUMPDEST PUSH1 0x1 PUSH0 SWAP1 SLOAD SWAP1 PUSH2 0x100 EXP SWAP1 DIV PUSH20 0xFFFFFFFFFFFFFFFFFFFFFFFFFFFFFFFFFFFFFFFF AND PUSH20 0xFFFFFFFFFFFFFFFFFFFFFFFFFFFFFFFFFFFFFFFF AND CALLER PUSH20 0xFFFFFFFFFFFFFFFFFFFFFFFFFFFFFFFFFFFFFFFF AND EQ PUSH2 0x608 JUMPI PUSH1 0x40 MLOAD PUSH32 0x8C379A000000000000000000000000000000000000000000000000000000000 DUP2 MSTORE PUSH1 0x4 ADD PUSH2 0x5FF SWAP1 PUSH2 0x11C4 JUMP JUMPDEST PUSH1 0x40 MLOAD DUP1 SWAP2 SUB SWAP1 REVERT JUMPDEST PUSH1 0x64 PUSH0 DUP1 SLOAD SWAP1 POP LT PUSH2 0x64F JUMPI PUSH1 0x40 MLOAD PUSH32 0x8C379A000000000000000000000000000000000000000000000000000000000 DUP2 MSTORE PUSH1 0x4 ADD PUSH2 0x646 SWAP1 PUSH2 0x1252 JUMP JUMPDEST PUSH1 0x40 MLOAD DUP1 SWAP2 SUB SWAP1 REVERT JUMPDEST PUSH0 PUSH1 0x40 MLOAD DUP1 PUSH2 0x100 ADD PUSH1 0x40 MSTORE DUP1 TIMESTAMP DUP2 MSTORE PUSH1 0x20 ADD DUP10 DUP2 MSTORE PUSH1 0x20 ADD DUP9 DUP2 MSTORE PUSH1 0x20 ADD DUP8 DUP2 MSTORE PUSH1 0x20 ADD DUP7 DUP2 MSTORE PUSH1 0x20 ADD DUP6 DUP2 MSTORE PUSH1 0x20 ADD DUP5 DUP2 MSTORE PUSH1 0x20 ADD DUP4 DUP2 MSTORE POP SWAP1 DUP1 PUSH1 0x1 DUP2 SLOAD ADD DUP1 DUP3 SSTORE DUP1 SWAP2 POP POP PUSH1 0x1 SWAP1 SUB SWAP1 PUSH0 MSTORE PUSH1 0x20 PUSH0 KECCAK256 SWAP1 PUSH1 0x8 MUL ADD PUSH0 SWAP1 SWAP2 SWAP1 SWAP2 SWAP1 SWAP2 POP PUSH0 DUP3 ADD MLOAD DUP2 PUSH0 ADD SSTORE PUSH1 0x20 DUP3 ADD MLOAD DUP2 PUSH1 0x1 ADD SWAP1 DUP2 PUSH2 0x6CD SWAP2 SWAP1 PUSH2 0x1410 JUMP JUMPDEST POP PUSH1 0x40 DUP3 ADD MLOAD DUP2 PUSH1 0x2 ADD SWAP1 DUP2 PUSH2 0x6E3 SWAP2 SWAP1 PUSH2 0x1410 JUMP JUMPDEST POP PUSH1 0x60 DUP3 ADD MLOAD DUP2 PUSH1 0x3 ADD SWAP1 DUP2 PUSH2 0x6F9 SWAP2 SWAP1 PUSH2 0x1410 JUMP JUMPDEST POP PUSH1 0x80 DUP3 ADD MLOAD DUP2 PUSH1 0x4 ADD SWAP1 DUP2 PUSH2 0x70F SWAP2 SWAP1 PUSH2 0x1410 JUMP JUMPDEST POP PUSH1 0xA0 DUP3 ADD MLOAD DUP2 PUSH1 0x5 ADD SWAP1 DUP2 PUSH2 0x725 SWAP2 SWAP1 PUSH2 0x1410 JUMP JUMPDEST POP PUSH1 0xC0 DUP3 ADD MLOAD DUP2 PUSH1 0x6 ADD SWAP1 DUP2 PUSH2 0x73B SWAP2 SWAP1 PUSH2 0x1410 JUMP JUMPDEST POP PUSH1 0xE0 DUP3 ADD MLOAD DUP2 PUSH1 0x7 ADD SWAP1 DUP2 PUSH2 0x751 SWAP2 SWAP1 PUSH2 0x1410 JUMP JUMPDEST POP POP POP PUSH32 0x61312B82AC27A2E0703617E52182F184BFA9862858646B031A6A3CAB9BA89D9B TIMESTAMP DUP9 DUP9 DUP9 DUP9 DUP9 DUP9 DUP9 PUSH1 0x40 MLOAD PUSH2 0x791 SWAP9 SWAP8 SWAP7 SWAP6 SWAP5 SWAP4 SWAP3 SWAP2 SWAP1 PUSH2 0xD65 JUMP JUMPDEST PUSH1 0x40 MLOAD DUP1 SWAP2 SUB SWAP1 LOG1 POP POP POP POP POP POP POP JUMP JUMPDEST PUSH0 PUSH1 0x60 DUP1 PUSH1 0x60 DUP1 PUSH1 0x60 DUP1 PUSH1 0x60 PUSH0 DUP1 SLOAD SWAP1 POP DUP10 LT PUSH2 0x7F4 JUMPI PUSH1 0x40 MLOAD PUSH32 0x8C379A000000000000000000000000000000000000000000000000000000000 DUP2 MSTORE PUSH1 0x4 ADD PUSH2 0x7EB SWAP1 PUSH2 0x154F JUMP JUMPDEST PUSH1 0x40 MLOAD DUP1 SWAP2 SUB SWAP1 REVERT JUMPDEST PUSH0 PUSH0 DUP11 DUP2 SLOAD DUP2 LT PUSH2 0x808 JUMPI PUSH2 0x807 PUSH2 0x156D JUMP JUMPDEST JUMPDEST SWAP1 PUSH0 MSTORE PUSH1 0x20 PUSH0 KECCAK256 SWAP1 PUSH1 0x8 MUL ADD PUSH1 0x40 MLOAD DUP1 PUSH2 0x100 ADD PUSH1 0x40 MSTORE SWAP1 DUP2 PUSH0 DUP3 ADD SLOAD DUP2 MSTORE PUSH1 0x20 ADD PUSH1 0x1 DUP3 ADD DUP1 SLOAD PUSH2 0x839 SWAP1 PUSH2 0x1124 JUMP JUMPDEST DUP1 PUSH1 0x1F ADD PUSH1 0x20 DUP1 SWAP2 DIV MUL PUSH1 0x20 ADD PUSH1 0x40 MLOAD SWAP1 DUP2 ADD PUSH1 0x40 MSTORE DUP1 SWAP3 SWAP2 SWAP1 DUP2 DUP2 MSTORE PUSH1 0x20 ADD DUP3 DUP1 SLOAD PUSH2 0x865 SWAP1 PUSH2 0x1124 JUMP JUMPDEST DUP1 ISZERO PUSH2 0x8B0 JUMPI DUP1 PUSH1 0x1F LT PUSH2 0x887 JUMPI PUSH2 0x100 DUP1 DUP4 SLOAD DIV MUL DUP4 MSTORE SWAP2 PUSH1 0x20 ADD SWAP2 PUSH2 0x8B0 JUMP JUMPDEST DUP3 ADD SWAP2 SWAP1 PUSH0 MSTORE PUSH1 0x20 PUSH0 KECCAK256 SWAP1 JUMPDEST DUP2 SLOAD DUP2 MSTORE SWAP1 PUSH1 0x1 ADD SWAP1 PUSH1 0x20 ADD DUP1 DUP4 GT PUSH2 0x893 JUMPI DUP3 SWAP1 SUB PUSH1 0x1F AND DUP3 ADD SWAP2 JUMPDEST POP POP POP POP POP DUP2 MSTORE PUSH1 0x20 ADD PUSH1 0x2 DUP3 ADD DUP1 SLOAD PUSH2 0x8C9 SWAP1 PUSH2 0x1124 JUMP JUMPDEST DUP1 PUSH1 0x1F ADD PUSH1 0x20 DUP1 SWAP2 DIV MUL PUSH1 0x20 ADD PUSH1 0x40 MLOAD SWAP1 DUP2 ADD PUSH1 0x40 MSTORE DUP1 SWAP3 SWAP2 SWAP1 DUP2 DUP2 MSTORE PUSH1 0x20 ADD DUP3 DUP1 SLOAD PUSH2 0x8F5 SWAP1 PUSH2 0x1124 JUMP JUMPDEST DUP1 ISZERO PUSH2 0x940 JUMPI DUP1 PUSH1 0x1F LT PUSH2 0x917 JUMPI PUSH2 0x100 DUP1 DUP4 SLOAD DIV MUL DUP4 MSTORE SWAP2 PUSH1 0x20 ADD SWAP2 PUSH2 0x940 JUMP JUMPDEST DUP3 ADD SWAP2 SWAP1 PUSH0 MSTORE PUSH1 0x20 PUSH0 KECCAK256 SWAP1 JUMPDEST DUP2 SLOAD DUP2 MSTORE SWAP1 PUSH1 0x1 ADD SWAP1 PUSH1 0x20 ADD DUP1 DUP4 GT PUSH2 0x923 JUMPI DUP3 SWAP1 SUB PUSH1 0x1F AND DUP3 ADD SWAP2 JUMPDEST POP POP POP POP POP DUP2 MSTORE PUSH1 0x20 ADD PUSH1 0x3 DUP3 ADD DUP1 SLOAD PUSH2 0x959 SWAP1 PUSH2 0x1124 JUMP JUMPDEST DUP1 PUSH1 0x1F ADD PUSH1 0x20 DUP1 SWAP2 DIV MUL PUSH1 0x20 ADD PUSH1 0x40 MLOAD SWAP1 DUP2 ADD PUSH1 0x40 MSTORE DUP1 SWAP3 SWAP2 SWAP1 DUP2 DUP2 MSTORE PUSH1 0x20 ADD DUP3 DUP1 SLOAD PUSH2 0x985 SWAP1 PUSH2 0x1124 JUMP JUMPDEST DUP1 ISZERO PUSH2 0x9D0 JUMPI DUP1 PUSH1 0x1F LT PUSH2 0x9A7 JUMPI PUSH2 0x100 DUP1 DUP4 SLOAD DIV MUL DUP4 MSTORE SWAP2 PUSH1 0x20 ADD SWAP2 PUSH2 0x9D0 JUMP JUMPDEST DUP3 ADD SWAP2 SWAP1 PUSH0 MSTORE PUSH1 0x20 PUSH0 KECCAK256 SWAP1 JUMPDEST DUP2 SLOAD DUP2 MSTORE SWAP1 PUSH1 0x1 ADD SWAP1 PUSH1 0x20 ADD DUP1 DUP4 GT PUSH2 0x9B3 JUMPI DUP3 SWAP1 SUB PUSH1 0x1F AND DUP3 ADD SWAP2 JUMPDEST POP POP POP POP POP DUP2 MSTORE PUSH1 0x20 ADD PUSH1 0x4 DUP3 ADD DUP1 SLOAD PUSH2 0x9E9 SWAP1 PUSH2 0x1124 JUMP JUMPDEST DUP1 PUSH1 0x1F ADD PUSH1 0x20 DUP1 SWAP2 DIV MUL PUSH1 0x20 ADD PUSH1 0x40 MLOAD SWAP1 DUP2 ADD PUSH1 0x40 MSTORE DUP1 SWAP3 SWAP2 SWAP1 DUP2 DUP2 MSTORE PUSH1 0x20 ADD DUP3 DUP1 SLOAD PUSH2 0xA15 SWAP1 PUSH2 0x1124 JUMP JUMPDEST DUP1 ISZERO PUSH2 0xA60 JUMPI DUP1 PUSH1 0x1F LT PUSH2 0xA37 JUMPI PUSH2 0x100 DUP1 DUP4 SLOAD DIV MUL DUP4 MSTORE SWAP2 PUSH1 0x20 ADD SWAP2 PUSH2 0xA60 JUMP JUMPDEST DUP3 ADD SWAP2 SWAP1 PUSH0 MSTORE PUSH1 0x20 PUSH0 KECCAK256 SWAP1 JUMPDEST DUP2 SLOAD DUP2 MSTORE SWAP1 PUSH1 0x1 ADD SWAP1 PUSH1 0x20 ADD DUP1 DUP4 GT PUSH2 0xA43 JUMPI DUP3 SWAP1 SUB PUSH1 0x1F AND DUP3 ADD SWAP2 JUMPDEST POP POP POP POP POP DUP2 MSTORE PUSH1 0x20 ADD PUSH1 0x5 DUP3 ADD DUP1 SLOAD PUSH2 0xA79 SWAP1 PUSH2 0x1124 JUMP JUMPDEST DUP1 PUSH1 0x1F ADD PUSH1 0x20 DUP1 SWAP2 DIV MUL PUSH1 0x20 ADD PUSH1 0x40 MLOAD SWAP1 DUP2 ADD PUSH1 0x40 MSTORE DUP1 SWAP3 SWAP2 SWAP1 DUP2 DUP2 MSTORE PUSH1 0x20 ADD DUP3 DUP1 SLOAD PUSH2 0xAA5 SWAP1 PUSH2 0x1124 JUMP JUMPDEST DUP1 ISZERO PUSH2 0xAF0 JUMPI DUP1 PUSH1 0x1F LT PUSH2 0xAC7 JUMPI PUSH2 0x100 DUP1 DUP4 SLOAD DIV MUL DUP4 MSTORE SWAP2 PUSH1 0x20 ADD SWAP2 PUSH2 0xAF0 JUMP JUMPDEST DUP3 ADD SWAP2 SWAP1 PUSH0 MSTORE PUSH1 0x20 PUSH0 KECCAK256 SWAP1 JUMPDEST DUP2 SLOAD DUP2 MSTORE SWAP1 PUSH1 0x1 ADD SWAP1 PUSH1 0x20 ADD DUP1 DUP4 GT PUSH2 0xAD3 JUMPI DUP3 SWAP1 SUB PUSH1 0x1F AND DUP3 ADD SWAP2 JUMPDEST POP POP POP POP POP DUP2 MSTORE PUSH1 0x20 ADD PUSH1 0x6 DUP3 ADD DUP1 SLOAD PUSH2 0xB09 SWAP1 PUSH2 0x1124 JUMP JUMPDEST DUP1 PUSH1 0x1F ADD PUSH1 0x20 DUP1 SWAP2 DIV MUL PUSH1 0x20 ADD PUSH1 0x40 MLOAD SWAP1 DUP2 ADD PUSH1 0x40 MSTORE DUP1 SWAP3 SWAP2 SWAP1 DUP2 DUP2 MSTORE PUSH1 0x20 ADD DUP3 DUP1 SLOAD PUSH2 0xB35 SWAP1 PUSH2 0x1124 JUMP JUMPDEST DUP1 ISZERO PUSH2 0xB80 JUMPI DUP1 PUSH1 0x1F LT PUSH2 0xB57 JUMPI PUSH2 0x100 DUP1 DUP4 SLOAD DIV MUL DUP4 MSTORE SWAP2 PUSH1 0x20 ADD SWAP2 PUSH2 0xB80 JUMP JUMPDEST DUP3 ADD SWAP2 SWAP1 PUSH0 MSTORE PUSH1 0x20 PUSH0 KECCAK256 SWAP1 JUMPDEST DUP2 SLOAD DUP2 MSTORE SWAP1 PUSH1 0x1 ADD SWAP1 PUSH1 0x20 ADD DUP1 DUP4 GT PUSH2 0xB63 JUMPI DUP3 SWAP1 SUB PUSH1 0x1F AND DUP3 ADD SWAP2 JUMPDEST POP POP POP POP POP DUP2 MSTORE PUSH1 0x20 ADD PUSH1 0x7 DUP3 ADD DUP1 SLOAD PUSH2 0xB99 SWAP1 PUSH2 0x1124 JUMP JUMPDEST DUP1 PUSH1 0x1F ADD PUSH1 0x20 DUP1 SWAP2 DIV MUL PUSH1 0x20 ADD PUSH1 0x40 MLOAD SWAP1 DUP2 ADD PUSH1 0x40 MSTORE DUP1 SWAP3 SWAP2 SWAP1 DUP2 DUP2 MSTORE PUSH1 0x20 ADD DUP3 DUP1 SLOAD PUSH2 0xBC5 SWAP1 PUSH2 0x1124 JUMP JUMPDEST DUP1 ISZERO PUSH2 0xC10 JUMPI DUP1 PUSH1 0x1F LT PUSH2 0xBE7 JUMPI PUSH2 0x100 DUP1 DUP4 SLOAD DIV MUL DUP4 MSTORE SWAP2 PUSH1 0x20 ADD SWAP2 PUSH2 0xC10 JUMP JUMPDEST DUP3 ADD SWAP2 SWAP1 PUSH0 MSTORE PUSH1 0x20 PUSH0 KECCAK256 SWAP1 JUMPDEST DUP2 SLOAD DUP2 MSTORE SWAP1 PUSH1 0x1 ADD SWAP1 PUSH1 0x20 ADD DUP1 DUP4 GT PUSH2 0xBF3 JUMPI DUP3 SWAP1 SUB PUSH1 0x1F AND DUP3 ADD SWAP2 JUMPDEST POP POP POP POP POP DUP2 MSTORE POP POP SWAP1 POP DUP1 PUSH0 ADD MLOAD DUP2 PUSH1 0x20 ADD MLOAD DUP3 PUSH1 0x40 ADD MLOAD DUP4 PUSH1 0x60 ADD MLOAD DUP5 PUSH1 0x80 ADD MLOAD DUP6 PUSH1 0xA0 ADD MLOAD DUP7 PUSH1 0xC0 ADD MLOAD DUP8 PUSH1 0xE0 ADD MLOAD SWAP9 POP SWAP9 POP SWAP9 POP SWAP9 POP SWAP9 POP SWAP9 POP SWAP9 POP SWAP9 POP POP SWAP2 SWAP4 SWAP6 SWAP8 POP SWAP2 SWAP4 SWAP6 SWAP8 JUMP JUMPDEST PUSH0 DUP2 SWAP1 POP SWAP2 SWAP1 POP JUMP JUMPDEST PUSH2 0xC70 DUP2 PUSH2 0xC5E JUMP JUMPDEST DUP3 MSTORE POP POP JUMP JUMPDEST PUSH0 PUSH1 0x20 DUP3 ADD SWAP1 POP PUSH2 0xC89 PUSH0 DUP4 ADD DUP5 PUSH2 0xC67 JUMP JUMPDEST SWAP3 SWAP2 POP POP JUMP JUMPDEST PUSH0 PUSH1 0x40 MLOAD SWAP1 POP SWAP1 JUMP JUMPDEST PUSH0 PUSH0 REVERT JUMPDEST PUSH0 PUSH0 REVERT JUMPDEST PUSH2 0xCA9 DUP2 PUSH2 0xC5E JUMP JUMPDEST DUP2 EQ PUSH2 0xCB3 JUMPI PUSH0 PUSH0 REVERT JUMPDEST POP JUMP JUMPDEST PUSH0 DUP2 CALLDATALOAD SWAP1 POP PUSH2 0xCC4 DUP2 PUSH2 0xCA0 JUMP JUMPDEST SWAP3 SWAP2 POP POP JUMP JUMPDEST PUSH0 PUSH1 0x20 DUP3 DUP5 SUB SLT ISZERO PUSH2 0xCDF JUMPI PUSH2 0xCDE PUSH2 0xC98 JUMP JUMPDEST JUMPDEST PUSH0 PUSH2 0xCEC DUP5 DUP3 DUP6 ADD PUSH2 0xCB6 JUMP JUMPDEST SWAP2 POP POP SWAP3 SWAP2 POP POP JUMP JUMPDEST PUSH0 DUP2 MLOAD SWAP1 POP SWAP2 SWAP1 POP JUMP JUMPDEST PUSH0 DUP3 DUP3 MSTORE PUSH1 0x20 DUP3 ADD SWAP1 POP SWAP3 SWAP2 POP POP JUMP JUMPDEST DUP3 DUP2 DUP4 MCOPY PUSH0 DUP4 DUP4 ADD MSTORE POP POP POP JUMP JUMPDEST PUSH0 PUSH1 0x1F NOT PUSH1 0x1F DUP4 ADD AND SWAP1 POP SWAP2 SWAP1 POP JUMP JUMPDEST PUSH0 PUSH2 0xD37 DUP3 PUSH2 0xCF5 JUMP JUMPDEST PUSH2 0xD41 DUP2 DUP6 PUSH2 0xCFF JUMP JUMPDEST SWAP4 POP PUSH2 0xD51 DUP2 DUP6 PUSH1 0x20 DUP7 ADD PUSH2 0xD0F JUMP JUMPDEST PUSH2 0xD5A DUP2 PUSH2 0xD1D JUMP JUMPDEST DUP5 ADD SWAP2 POP POP SWAP3 SWAP2 POP POP JUMP JUMPDEST PUSH0 PUSH2 0x100 DUP3 ADD SWAP1 POP PUSH2 0xD79 PUSH0 DUP4 ADD DUP12 PUSH2 0xC67 JUMP JUMPDEST DUP2 DUP2 SUB PUSH1 0x20 DUP4 ADD MSTORE PUSH2 0xD8B DUP2 DUP11 PUSH2 0xD2D JUMP JUMPDEST SWAP1 POP DUP2 DUP2 SUB PUSH1 0x40 DUP4 ADD MSTORE PUSH2 0xD9F DUP2 DUP10 PUSH2 0xD2D JUMP JUMPDEST SWAP1 POP DUP2 DUP2 SUB PUSH1 0x60 DUP4 ADD MSTORE PUSH2 0xDB3 DUP2 DUP9 PUSH2 0xD2D JUMP JUMPDEST SWAP1 POP DUP2 DUP2 SUB PUSH1 0x80 DUP4 ADD MSTORE PUSH2 0xDC7 DUP2 DUP8 PUSH2 0xD2D JUMP JUMPDEST SWAP1 POP DUP2 DUP2 SUB PUSH1 0xA0 DUP4 ADD MSTORE PUSH2 0xDDB DUP2 DUP7 PUSH2 0xD2D JUMP JUMPDEST SWAP1 POP DUP2 DUP2 SUB PUSH1 0xC0 DUP4 ADD MSTORE PUSH2 0xDEF DUP2 DUP6 PUSH2 0xD2D JUMP JUMPDEST SWAP1 POP DUP2 DUP2 SUB PUSH1 0xE0 DUP4 ADD MSTORE PUSH2 0xE03 DUP2 DUP5 PUSH2 0xD2D JUMP JUMPDEST SWAP1 POP SWAP10 SWAP9 POP POP POP POP POP POP POP POP POP JUMP JUMPDEST PUSH0 PUSH20 0xFFFFFFFFFFFFFFFFFFFFFFFFFFFFFFFFFFFFFFFF DUP3 AND SWAP1 POP SWAP2 SWAP1 POP JUMP JUMPDEST PUSH0 PUSH2 0xE3B DUP3 PUSH2 0xE12 JUMP JUMPDEST SWAP1 POP SWAP2 SWAP1 POP JUMP JUMPDEST PUSH2 0xE4B DUP2 PUSH2 0xE31 JUMP JUMPDEST DUP3 MSTORE POP POP JUMP JUMPDEST PUSH0 PUSH1 0x20 DUP3 ADD SWAP1 POP PUSH2 0xE64 PUSH0 DUP4 ADD DUP5 PUSH2 0xE42 JUMP JUMPDEST SWAP3 SWAP2 POP POP JUMP JUMPDEST PUSH0 PUSH0 REVERT JUMPDEST PUSH0 PUSH0 REVERT JUMPDEST PUSH32 0x4E487B7100000000000000000000000000000000000000000000000000000000 PUSH0 MSTORE PUSH1 0x41 PUSH1 0x4 MSTORE PUSH1 0x24 PUSH0 REVERT JUMPDEST PUSH2 0xEA8 DUP3 PUSH2 0xD1D JUMP JUMPDEST DUP2 ADD DUP2 DUP2 LT PUSH8 0xFFFFFFFFFFFFFFFF DUP3 GT OR ISZERO PUSH2 0xEC7 JUMPI PUSH2 0xEC6 PUSH2 0xE72 JUMP JUMPDEST JUMPDEST DUP1 PUSH1 0x40 MSTORE POP POP POP JUMP JUMPDEST PUSH0 PUSH2 0xED9 PUSH2 0xC8F JUMP JUMPDEST SWAP1 POP PUSH2 0xEE5 DUP3 DUP3 PUSH2 0xE9F JUMP JUMPDEST SWAP2 SWAP1 POP JUMP JUMPDEST PUSH0 PUSH8 0xFFFFFFFFFFFFFFFF DUP3 GT ISZERO PUSH2 0xF04 JUMPI PUSH2 0xF03 PUSH2 0xE72 JUMP JUMPDEST JUMPDEST PUSH2 0xF0D DUP3 PUSH2 0xD1D JUMP JUMPDEST SWAP1 POP PUSH1 0x20 DUP2 ADD SWAP1 POP SWAP2 SWAP1 POP JUMP JUMPDEST DUP3 DUP2 DUP4 CALLDATACOPY PUSH0 DUP4 DUP4 ADD MSTORE POP POP POP JUMP JUMPDEST PUSH0 PUSH2 0xF3A PUSH2 0xF35 DUP5 PUSH2 0xEEA JUMP JUMPDEST PUSH2 0xED0 JUMP JUMPDEST SWAP1 POP DUP3 DUP2 MSTORE PUSH1 0x20 DUP2 ADD DUP5 DUP5 DUP5 ADD GT ISZERO PUSH2 0xF56 JUMPI PUSH2 0xF55 PUSH2 0xE6E JUMP JUMPDEST JUMPDEST PUSH2 0xF61 DUP5 DUP3 DUP6 PUSH2 0xF1A JUMP JUMPDEST POP SWAP4 SWAP3 POP POP POP JUMP JUMPDEST PUSH0 DUP3 PUSH1 0x1F DUP4 ADD SLT PUSH2 0xF7D JUMPI PUSH2 0xF7C PUSH2 0xE6A JUMP JUMPDEST JUMPDEST DUP2 CALLDATALOAD PUSH2 0xF8D DUP5 DUP3 PUSH1 0x20 DUP7 ADD PUSH2 0xF28 JUMP JUMPDEST SWAP2 POP POP SWAP3 SWAP2 POP POP JUMP JUMPDEST PUSH0 PUSH0 PUSH0 PUSH0 PUSH0 PUSH0 PUSH0 PUSH1 0xE0 DUP9 DUP11 SUB SLT ISZERO PUSH2 0xFB1 JUMPI PUSH2 0xFB0 PUSH2 0xC98 JUMP JUMPDEST JUMPDEST PUSH0 DUP9 ADD CALLDATALOAD PUSH8 0xFFFFFFFFFFFFFFFF DUP2 GT ISZERO PUSH2 0xFCE JUMPI PUSH2 0xFCD PUSH2 0xC9C JUMP JUMPDEST JUMPDEST PUSH2 0xFDA DUP11 DUP3 DUP12 ADD PUSH2 0xF69 JUMP JUMPDEST SWAP8 POP POP PUSH1 0x20 DUP9 ADD CALLDATALOAD PUSH8 0xFFFFFFFFFFFFFFFF DUP2 GT ISZERO PUSH2 0xFFB JUMPI PUSH2 0xFFA PUSH2 0xC9C JUMP JUMPDEST JUMPDEST PUSH2 0x1007 DUP11 DUP3 DUP12 ADD PUSH2 0xF69 JUMP JUMPDEST SWAP7 POP POP PUSH1 0x40 DUP9 ADD CALLDATALOAD PUSH8 0xFFFFFFFFFFFFFFFF DUP2 GT ISZERO PUSH2 0x1028 JUMPI PUSH2 0x1027 PUSH2 0xC9C JUMP JUMPDEST JUMPDEST PUSH2 0x1034 DUP11 DUP3 DUP12 ADD PUSH2 0xF69 JUMP JUMPDEST SWAP6 POP POP PUSH1 0x60 DUP9 ADD CALLDATALOAD PUSH8 0xFFFFFFFFFFFFFFFF DUP2 GT ISZERO PUSH2 0x1055 JUMPI PUSH2 0x1054 PUSH2 0xC9C JUMP JUMPDEST JUMPDEST PUSH2 0x1061 DUP11 DUP3 DUP12 ADD PUSH2 0xF69 JUMP JUMPDEST SWAP5 POP POP PUSH1 0x80 DUP9 ADD CALLDATALOAD PUSH8 0xFFFFFFFFFFFFFFFF DUP2 GT ISZERO PUSH2 0x1082 JUMPI PUSH2 0x1081 PUSH2 0xC9C JUMP JUMPDEST JUMPDEST PUSH2 0x108E DUP11 DUP3 DUP12 ADD PUSH2 0xF69 JUMP JUMPDEST SWAP4 POP POP PUSH1 0xA0 DUP9 ADD CALLDATALOAD PUSH8 0xFFFFFFFFFFFFFFFF DUP2 GT ISZERO PUSH2 0x10AF JUMPI PUSH2 0x10AE PUSH2 0xC9C JUMP JUMPDEST JUMPDEST PUSH2 0x10BB DUP11 DUP3 DUP12 ADD PUSH2 0xF69 JUMP JUMPDEST SWAP3 POP POP PUSH1 0xC0 DUP9 ADD CALLDATALOAD PUSH8 0xFFFFFFFFFFFFFFFF DUP2 GT ISZERO PUSH2 0x10DC JUMPI PUSH2 0x10DB PUSH2 0xC9C JUMP JUMPDEST JUMPDEST PUSH2 0x10E8 DUP11 DUP3 DUP12 ADD PUSH2 0xF69 JUMP JUMPDEST SWAP2 POP POP SWAP3 SWAP6 SWAP9 SWAP2 SWAP5 SWAP8 POP SWAP3 SWAP6 POP JUMP JUMPDEST PUSH32 0x4E487B7100000000000000000000000000000000000000000000000000000000 PUSH0 MSTORE PUSH1 0x22 PUSH1 0x4 MSTORE PUSH1 0x24 PUSH0 REVERT JUMPDEST PUSH0 PUSH1 0x2 DUP3 DIV SWAP1 POP PUSH1 0x1 DUP3 AND DUP1 PUSH2 0x113B JUMPI PUSH1 0x7F DUP3 AND SWAP2 POP JUMPDEST PUSH1 0x20 DUP3 LT DUP2 SUB PUSH2 0x114E JUMPI PUSH2 0x114D PUSH2 0x10F7 JUMP JUMPDEST JUMPDEST POP SWAP2 SWAP1 POP JUMP JUMPDEST PUSH32 0x4E6F7420617574686F72697A65643A204F6E6C7920636F6E7472616374206F77 PUSH0 DUP3 ADD MSTORE PUSH32 0x6E65722063616E20706572666F726D207468697320616374696F6E2E00000000 PUSH1 0x20 DUP3 ADD MSTORE POP JUMP JUMPDEST PUSH0 PUSH2 0x11AE PUSH1 0x3C DUP4 PUSH2 0xCFF JUMP JUMPDEST SWAP2 POP PUSH2 0x11B9 DUP3 PUSH2 0x1154 JUMP JUMPDEST PUSH1 0x40 DUP3 ADD SWAP1 POP SWAP2 SWAP1 POP JUMP JUMPDEST PUSH0 PUSH1 0x20 DUP3 ADD SWAP1 POP DUP2 DUP2 SUB PUSH0 DUP4 ADD MSTORE PUSH2 0x11DB DUP2 PUSH2 0x11A2 JUMP JUMPDEST SWAP1 POP SWAP2 SWAP1 POP JUMP JUMPDEST PUSH32 0x53746F72616765206C696D697420726561636865643A2043616E6E6F74206164 PUSH0 DUP3 ADD MSTORE PUSH32 0x64206D6F7265207265636F7264732E0000000000000000000000000000000000 PUSH1 0x20 DUP3 ADD MSTORE POP JUMP JUMPDEST PUSH0 PUSH2 0x123C PUSH1 0x2F DUP4 PUSH2 0xCFF JUMP JUMPDEST SWAP2 POP PUSH2 0x1247 DUP3 PUSH2 0x11E2 JUMP JUMPDEST PUSH1 0x40 DUP3 ADD SWAP1 POP SWAP2 SWAP1 POP JUMP JUMPDEST PUSH0 PUSH1 0x20 DUP3 ADD SWAP1 POP DUP2 DUP2 SUB PUSH0 DUP4 ADD MSTORE PUSH2 0x1269 DUP2 PUSH2 0x1230 JUMP JUMPDEST SWAP1 POP SWAP2 SWAP1 POP JUMP JUMPDEST PUSH0 DUP2 SWAP1 POP DUP2 PUSH0 MSTORE PUSH1 0x20 PUSH0 KECCAK256 SWAP1 POP SWAP2 SWAP1 POP JUMP JUMPDEST PUSH0 PUSH1 0x20 PUSH1 0x1F DUP4 ADD DIV SWAP1 POP SWAP2 SWAP1 POP JUMP JUMPDEST PUSH0 DUP3 DUP3 SHL SWAP1 POP SWAP3 SWAP2 POP POP JUMP JUMPDEST PUSH0 PUSH1 0x8 DUP4 MUL PUSH2 0x12CC PUSH32 0xFFFFFFFFFFFFFFFFFFFFFFFFFFFFFFFFFFFFFFFFFFFFFFFFFFFFFFFFFFFFFFFF DUP3 PUSH2 0x1291 JUMP JUMPDEST PUSH2 0x12D6 DUP7 DUP4 PUSH2 0x1291 JUMP JUMPDEST SWAP6 POP DUP1 NOT DUP5 AND SWAP4 POP DUP1 DUP7 AND DUP5 OR SWAP3 POP POP POP SWAP4 SWAP3 POP POP POP JUMP JUMPDEST PUSH0 DUP2 SWAP1 POP SWAP2 SWAP1 POP JUMP JUMPDEST PUSH0 PUSH2 0x1311 PUSH2 0x130C PUSH2 0x1307 DUP5 PUSH2 0xC5E JUMP JUMPDEST PUSH2 0x12EE JUMP JUMPDEST PUSH2 0xC5E JUMP JUMPDEST SWAP1 POP SWAP2 SWAP1 POP JUMP JUMPDEST PUSH0 DUP2 SWAP1 POP SWAP2 SWAP1 POP JUMP JUMPDEST PUSH2 0x132A DUP4 PUSH2 0x12F7 JUMP JUMPDEST PUSH2 0x133E PUSH2 0x1336 DUP3 PUSH2 0x1318 JUMP JUMPDEST DUP5 DUP5 SLOAD PUSH2 0x129D JUMP JUMPDEST DUP3 SSTORE POP POP POP POP JUMP JUMPDEST PUSH0 PUSH0 SWAP1 POP SWAP1 JUMP JUMPDEST PUSH2 0x1355 PUSH2 0x1346 JUMP JUMPDEST PUSH2 0x1360 DUP2 DUP5 DUP5 PUSH2 0x1321 JUMP JUMPDEST POP POP POP JUMP JUMPDEST JUMPDEST DUP2 DUP2 LT ISZERO PUSH2 0x1383 JUMPI PUSH2 0x1378 PUSH0 DUP3 PUSH2 0x134D JUMP JUMPDEST PUSH1 0x1 DUP2 ADD SWAP1 POP PUSH2 0x1366 JUMP JUMPDEST POP POP JUMP JUMPDEST PUSH1 0x1F DUP3 GT ISZERO PUSH2 0x13C8 JUMPI PUSH2 0x1399 DUP2 PUSH2 0x1270 JUMP JUMPDEST PUSH2 0x13A2 DUP5 PUSH2 0x1282 JUMP JUMPDEST DUP2 ADD PUSH1 0x20 DUP6 LT ISZERO PUSH2 0x13B1 JUMPI DUP2 SWAP1 POP JUMPDEST PUSH2 0x13C5 PUSH2 0x13BD DUP6 PUSH2 0x1282 JUMP JUMPDEST DUP4 ADD DUP3 PUSH2 0x1365 JUMP JUMPDEST POP POP JUMPDEST POP POP POP JUMP JUMPDEST PUSH0 DUP3 DUP3 SHR SWAP1 POP SWAP3 SWAP2 POP POP JUMP JUMPDEST PUSH0 PUSH2 0x13E8 PUSH0 NOT DUP5 PUSH1 0x8 MUL PUSH2 0x13CD JUMP JUMPDEST NOT DUP1 DUP4 AND SWAP2 POP POP SWAP3 SWAP2 POP POP JUMP JUMPDEST PUSH0 PUSH2 0x1400 DUP4 DUP4 PUSH2 0x13D9 JUMP JUMPDEST SWAP2 POP DUP3 PUSH1 0x2 MUL DUP3 OR SWAP1 POP SWAP3 SWAP2 POP POP JUMP JUMPDEST PUSH2 0x1419 DUP3 PUSH2 0xCF5 JUMP JUMPDEST PUSH8 0xFFFFFFFFFFFFFFFF DUP2 GT ISZERO PUSH2 0x1432 JUMPI PUSH2 0x1431 PUSH2 0xE72 JUMP JUMPDEST JUMPDEST PUSH2 0x143C DUP3 SLOAD PUSH2 0x1124 JUMP JUMPDEST PUSH2 0x1447 DUP3 DUP3 DUP6 PUSH2 0x1387 JUMP JUMPDEST PUSH0 PUSH1 0x20 SWAP1 POP PUSH1 0x1F DUP4 GT PUSH1 0x1 DUP2 EQ PUSH2 0x1478 JUMPI PUSH0 DUP5 ISZERO PUSH2 0x1466 JUMPI DUP3 DUP8 ADD MLOAD SWAP1 POP JUMPDEST PUSH2 0x1470 DUP6 DUP3 PUSH2 0x13F5 JUMP JUMPDEST DUP7 SSTORE POP PUSH2 0x14D7 JUMP JUMPDEST PUSH1 0x1F NOT DUP5 AND PUSH2 0x1486 DUP7 PUSH2 0x1270 JUMP JUMPDEST PUSH0 JUMPDEST DUP3 DUP2 LT ISZERO PUSH2 0x14AD JUMPI DUP5 DUP10 ADD MLOAD DUP3 SSTORE PUSH1 0x1 DUP3 ADD SWAP2 POP PUSH1 0x20 DUP6 ADD SWAP5 POP PUSH1 0x20 DUP2 ADD SWAP1 POP PUSH2 0x1488 JUMP JUMPDEST DUP7 DUP4 LT ISZERO PUSH2 0x14CA JUMPI DUP5 DUP10 ADD MLOAD PUSH2 0x14C6 PUSH1 0x1F DUP10 AND DUP3 PUSH2 0x13D9 JUMP JUMPDEST DUP4 SSTORE POP JUMPDEST PUSH1 0x1 PUSH1 0x2 DUP9 MUL ADD DUP9 SSTORE POP POP POP JUMPDEST POP POP POP POP POP POP JUMP JUMPDEST PUSH32 0x496E646578206F7574206F6620626F756E64733A20496E76616C696420726563 PUSH0 DUP3 ADD MSTORE PUSH32 0x6F726420696E6465782E00000000000000000000000000000000000000000000 PUSH1 0x20 DUP3 ADD MSTORE POP JUMP JUMPDEST PUSH0 PUSH2 0x1539 PUSH1 0x2A DUP4 PUSH2 0xCFF JUMP JUMPDEST SWAP2 POP PUSH2 0x1544 DUP3 PUSH2 0x14DF JUMP JUMPDEST PUSH1 0x40 DUP3 ADD SWAP1 POP SWAP2 SWAP1 POP JUMP JUMPDEST PUSH0 PUSH1 0x20 DUP3 ADD SWAP1 POP DUP2 DUP2 SUB PUSH0 DUP4 ADD MSTORE PUSH2 0x1566 DUP2 PUSH2 0x152D JUMP JUMPDEST SWAP1 POP SWAP2 SWAP1 POP JUMP JUMPDEST PUSH32 0x4E487B7100000000000000000000000000000000000000000000000000000000 PUSH0 MSTORE PUSH1 0x32 PUSH1 0x4 MSTORE PUSH1 0x24 PUSH0 REVERT INVALID LOG2 PUSH5 0x6970667358 0x22 SLT KECCAK256 EXTCODECOPY 0xC0 KECCAK256 0xDB 0xBE DUP7 0xB2 JUMPI CODECOPY CALL EXTCODEHASH NUMBER 0xAE DUP7 0xD7 PUSH13 0x59E08B79200A2A99D53568F943 0xB1 0xAB DUP3 PUSH5 0x736F6C6343 STOP ADDMOD 0x1E STOP CALLER "
				},
				"gasEstimates": {
					"creation": {
						"codeDepositCost": "1116800",
						"executionCost": "25423",
						"totalCost": "1142223"
					},
					"external": {
						"MAX_ENTRIES()": "325",
						"getLogisticsRecord(uint256)": "infinite",
						"getTotalRecords()": "2417",
						"logisticsRecords(uint256)": "infinite",
						"owner()": "2552",
						"storeLogisticsData(string,string,string,string,string,string,string)": "infinite"
					}
				},
				"methodIdentifiers": {
					"MAX_ENTRIES()": "7d4cb964",
					"getLogisticsRecord(uint256)": "e64037fa",
					"getTotalRecords()": "0aeacb5e",
					"logisticsRecords(uint256)": "8bec7048",
					"owner()": "8da5cb5b",
					"storeLogisticsData(string,string,string,string,string,string,string)": "ddf747df"
				}
			},
			"storageLayout": {
				"storage": [
					{
						"astId": 25,
						"contract": "IoTDataStorage.sol:LogisticsDataStorage",
						"label": "logisticsRecords",
						"offset": 0,
						"slot": "0",
						"type": "t_array(t_struct(LogisticsRecord)18_storage)dyn_storage"
					},
					{
						"astId": 27,
						"contract": "IoTDataStorage.sol:LogisticsDataStorage",
						"label": "owner",
						"offset": 0,
						"slot": "1",
						"type": "t_address"
					}
				],
				"types": {
					"t_address": {
						"encoding": "inplace",
						"label": "address",
						"numberOfBytes": "20"
					},
					"t_array(t_struct(LogisticsRecord)18_storage)dyn_storage": {
						"base": "t_struct(LogisticsRecord)18_storage",
						"encoding": "dynamic_array",
						"label": "struct LogisticsDataStorage.LogisticsRecord[]",
						"numberOfBytes": "32"
					},
					"t_string_storage": {
						"encoding": "bytes",
						"label": "string",
						"numberOfBytes": "32"
					},
					"t_struct(LogisticsRecord)18_storage": {
						"encoding": "inplace",
						"label": "struct LogisticsDataStorage.LogisticsRecord",
						"members": [
							{
								"astId": 3,
								"contract": "IoTDataStorage.sol:LogisticsDataStorage",
								"label": "blockchainTimestamp",
								"offset": 0,
								"slot": "0",
								"type": "t_uint256"
							},
							{
								"astId": 5,
								"contract": "IoTDataStorage.sol:LogisticsDataStorage",
								"label": "originalTimestamp",
								"offset": 0,
								"slot": "1",
								"type": "t_string_storage"
							},
							{
								"astId": 7,
								"contract": "IoTDataStorage.sol:LogisticsDataStorage",
								"label": "packageId",
								"offset": 0,
								"slot": "2",
								"type": "t_string_storage"
							},
							{
								"astId": 9,
								"contract": "IoTDataStorage.sol:LogisticsDataStorage",
								"label": "rfidTag",
								"offset": 0,
								"slot": "3",
								"type": "t_string_storage"
							},
							{
								"astId": 11,
								"contract": "IoTDataStorage.sol:LogisticsDataStorage",
								"label": "latitude",
								"offset": 0,
								"slot": "4",
								"type": "t_string_storage"
							},
							{
								"astId": 13,
								"contract": "IoTDataStorage.sol:LogisticsDataStorage",
								"label": "longitude",
								"offset": 0,
								"slot": "5",
								"type": "t_string_storage"
							},
							{
								"astId": 15,
								"contract": "IoTDataStorage.sol:LogisticsDataStorage",
								"label": "temperatureC",
								"offset": 0,
								"slot": "6",
								"type": "t_string_storage"
							},
							{
								"astId": 17,
								"contract": "IoTDataStorage.sol:LogisticsDataStorage",
								"label": "deviceId",
								"offset": 0,
								"slot": "7",
								"type": "t_string_storage"
							}
						],
						"numberOfBytes": "256"
					},
					"t_uint256": {
						"encoding": "inplace",
						"label": "uint256",
						"numberOfBytes": "32"
					}
				}
			},
			"userdoc": {
				"kind": "user",
				"methods": {},
				"version": 1
			}
		}
	}
}